{
  "_format": "hh-sol-artifact-1",
  "contractName": "Assemblage",
  "sourceName": "contracts/Assemblage.sol",
  "abi": [
    {
      "inputs": [
        {
          "internalType": "string",
          "name": "_initialBaseURI",
          "type": "string"
        },
        {
          "components": [
            {
              "internalType": "address",
              "name": "whitelistAddress",
              "type": "address"
            },
            {
              "internalType": "uint256",
              "name": "amount",
              "type": "uint256"
            }
          ],
          "internalType": "struct Assemblage.WhitelistItem[]",
          "name": "_initialWhitelist",
          "type": "tuple[]"
        }
      ],
      "stateMutability": "nonpayable",
      "type": "constructor"
    },
    {
      "anonymous": false,
      "inputs": [
        {
          "indexed": true,
          "internalType": "address",
          "name": "owner",
          "type": "address"
        },
        {
          "indexed": true,
          "internalType": "address",
          "name": "approved",
          "type": "address"
        },
        {
          "indexed": true,
          "internalType": "uint256",
          "name": "tokenId",
          "type": "uint256"
        }
      ],
      "name": "Approval",
      "type": "event"
    },
    {
      "anonymous": false,
      "inputs": [
        {
          "indexed": true,
          "internalType": "address",
          "name": "owner",
          "type": "address"
        },
        {
          "indexed": true,
          "internalType": "address",
          "name": "operator",
          "type": "address"
        },
        {
          "indexed": false,
          "internalType": "bool",
          "name": "approved",
          "type": "bool"
        }
      ],
      "name": "ApprovalForAll",
      "type": "event"
    },
    {
      "anonymous": false,
      "inputs": [
        {
          "indexed": true,
          "internalType": "address",
          "name": "previousOwner",
          "type": "address"
        },
        {
          "indexed": true,
          "internalType": "address",
          "name": "newOwner",
          "type": "address"
        }
      ],
      "name": "OwnershipTransferred",
      "type": "event"
    },
    {
      "anonymous": false,
      "inputs": [
        {
          "components": [
            {
              "internalType": "address",
              "name": "sourceContract",
              "type": "address"
            },
            {
              "internalType": "uint256",
              "name": "sourceTokenId",
              "type": "uint256"
            }
          ],
          "indexed": false,
          "internalType": "struct Assemblage.SourceToken",
          "name": "",
          "type": "tuple"
        },
        {
          "indexed": false,
          "internalType": "uint256",
          "name": "tokenId",
          "type": "uint256"
        },
        {
          "indexed": false,
          "internalType": "address",
          "name": "to",
          "type": "address"
        }
      ],
      "name": "SourceTokenMinted",
      "type": "event"
    },
    {
      "anonymous": false,
      "inputs": [
        {
          "indexed": true,
          "internalType": "address",
          "name": "from",
          "type": "address"
        },
        {
          "indexed": true,
          "internalType": "address",
          "name": "to",
          "type": "address"
        },
        {
          "indexed": true,
          "internalType": "uint256",
          "name": "tokenId",
          "type": "uint256"
        }
      ],
      "name": "Transfer",
      "type": "event"
    },
    {
      "inputs": [
        {
          "internalType": "address",
          "name": "to",
          "type": "address"
        },
        {
          "internalType": "uint256",
          "name": "tokenId",
          "type": "uint256"
        }
      ],
      "name": "approve",
      "outputs": [],
      "stateMutability": "nonpayable",
      "type": "function"
    },
    {
      "inputs": [
        {
          "internalType": "address",
          "name": "owner",
          "type": "address"
        }
      ],
      "name": "balanceOf",
      "outputs": [
        {
          "internalType": "uint256",
          "name": "",
          "type": "uint256"
        }
      ],
      "stateMutability": "view",
      "type": "function"
    },
    {
      "inputs": [
        {
          "internalType": "uint256",
          "name": "tokenId",
          "type": "uint256"
        }
      ],
      "name": "getApproved",
      "outputs": [
        {
          "internalType": "address",
          "name": "",
          "type": "address"
        }
      ],
      "stateMutability": "view",
      "type": "function"
    },
    {
      "inputs": [
        {
          "internalType": "address",
          "name": "owner",
          "type": "address"
        },
        {
          "internalType": "address",
          "name": "operator",
          "type": "address"
        }
      ],
      "name": "isApprovedForAll",
      "outputs": [
        {
          "internalType": "bool",
          "name": "",
          "type": "bool"
        }
      ],
      "stateMutability": "view",
      "type": "function"
    },
    {
      "inputs": [],
      "name": "maxSupply",
      "outputs": [
        {
          "internalType": "uint256",
          "name": "",
          "type": "uint256"
        }
      ],
      "stateMutability": "view",
      "type": "function"
    },
    {
      "inputs": [
        {
          "internalType": "address",
          "name": "sourceContract",
          "type": "address"
        },
        {
          "internalType": "uint256",
          "name": "sourceTokenId",
          "type": "uint256"
        }
      ],
      "name": "mint",
      "outputs": [],
      "stateMutability": "payable",
      "type": "function"
    },
    {
      "inputs": [],
      "name": "mintEnabled",
      "outputs": [
        {
          "internalType": "bool",
          "name": "",
          "type": "bool"
        }
      ],
      "stateMutability": "view",
      "type": "function"
    },
    {
      "inputs": [],
      "name": "mintPrice",
      "outputs": [
        {
          "internalType": "uint256",
          "name": "",
          "type": "uint256"
        }
      ],
      "stateMutability": "view",
      "type": "function"
    },
    {
      "inputs": [],
      "name": "name",
      "outputs": [
        {
          "internalType": "string",
          "name": "",
          "type": "string"
        }
      ],
      "stateMutability": "view",
      "type": "function"
    },
    {
      "inputs": [],
      "name": "orderPrints",
      "outputs": [],
      "stateMutability": "payable",
      "type": "function"
    },
    {
      "inputs": [],
      "name": "owner",
      "outputs": [
        {
          "internalType": "address",
          "name": "",
          "type": "address"
        }
      ],
      "stateMutability": "view",
      "type": "function"
    },
    {
      "inputs": [
        {
          "internalType": "uint256",
          "name": "tokenId",
          "type": "uint256"
        }
      ],
      "name": "ownerOf",
      "outputs": [
        {
          "internalType": "address",
          "name": "",
          "type": "address"
        }
      ],
      "stateMutability": "view",
      "type": "function"
    },
    {
      "inputs": [],
      "name": "renounceOwnership",
      "outputs": [],
      "stateMutability": "nonpayable",
      "type": "function"
    },
    {
      "inputs": [
        {
          "internalType": "uint256",
          "name": "",
          "type": "uint256"
        },
        {
          "internalType": "uint256",
          "name": "value",
          "type": "uint256"
        }
      ],
      "name": "royaltyInfo",
      "outputs": [
        {
          "internalType": "address",
          "name": "receiver",
          "type": "address"
        },
        {
          "internalType": "uint256",
          "name": "royaltyAmount",
          "type": "uint256"
        }
      ],
      "stateMutability": "view",
      "type": "function"
    },
    {
      "inputs": [
        {
          "internalType": "address",
          "name": "from",
          "type": "address"
        },
        {
          "internalType": "address",
          "name": "to",
          "type": "address"
        },
        {
          "internalType": "uint256",
          "name": "tokenId",
          "type": "uint256"
        }
      ],
      "name": "safeTransferFrom",
      "outputs": [],
      "stateMutability": "nonpayable",
      "type": "function"
    },
    {
      "inputs": [
        {
          "internalType": "address",
          "name": "from",
          "type": "address"
        },
        {
          "internalType": "address",
          "name": "to",
          "type": "address"
        },
        {
          "internalType": "uint256",
          "name": "tokenId",
          "type": "uint256"
        },
        {
          "internalType": "bytes",
          "name": "_data",
          "type": "bytes"
        }
      ],
      "name": "safeTransferFrom",
      "outputs": [],
      "stateMutability": "nonpayable",
      "type": "function"
    },
    {
      "inputs": [
        {
          "internalType": "address",
          "name": "operator",
          "type": "address"
        },
        {
          "internalType": "bool",
          "name": "approved",
          "type": "bool"
        }
      ],
      "name": "setApprovalForAll",
      "outputs": [],
      "stateMutability": "nonpayable",
      "type": "function"
    },
    {
      "inputs": [
        {
          "internalType": "string",
          "name": "newBaseURI",
          "type": "string"
        }
      ],
      "name": "setBaseURI",
      "outputs": [],
      "stateMutability": "nonpayable",
      "type": "function"
    },
    {
      "inputs": [
        {
          "internalType": "uint256",
          "name": "newMintPrice",
          "type": "uint256"
        }
      ],
      "name": "setMintPrice",
      "outputs": [],
      "stateMutability": "nonpayable",
      "type": "function"
    },
    {
      "inputs": [
        {
          "internalType": "bool",
          "name": "newMintingState",
          "type": "bool"
        }
      ],
      "name": "setMinting",
      "outputs": [],
      "stateMutability": "nonpayable",
      "type": "function"
    },
    {
      "inputs": [
        {
          "internalType": "address",
          "name": "recipient",
          "type": "address"
        },
        {
          "internalType": "uint256",
          "name": "value",
          "type": "uint256"
        }
      ],
      "name": "setRoyalties",
      "outputs": [],
      "stateMutability": "nonpayable",
      "type": "function"
    },
    {
      "inputs": [
        {
          "components": [
            {
              "internalType": "address",
              "name": "whitelistAddress",
              "type": "address"
            },
            {
              "internalType": "uint256",
              "name": "amount",
              "type": "uint256"
            }
          ],
          "internalType": "struct Assemblage.WhitelistItem[]",
          "name": "_array",
          "type": "tuple[]"
        }
      ],
      "name": "setWhitelist",
      "outputs": [],
      "stateMutability": "nonpayable",
      "type": "function"
    },
    {
      "inputs": [
        {
          "internalType": "uint256",
          "name": "",
          "type": "uint256"
        }
      ],
      "name": "sourceTokens",
      "outputs": [
        {
          "internalType": "address",
          "name": "sourceContract",
          "type": "address"
        },
        {
          "internalType": "uint256",
          "name": "sourceTokenId",
          "type": "uint256"
        }
      ],
      "stateMutability": "view",
      "type": "function"
    },
    {
      "inputs": [
        {
          "internalType": "bytes4",
          "name": "interfaceId",
          "type": "bytes4"
        }
      ],
      "name": "supportsInterface",
      "outputs": [
        {
          "internalType": "bool",
          "name": "",
          "type": "bool"
        }
      ],
      "stateMutability": "view",
      "type": "function"
    },
    {
      "inputs": [],
      "name": "symbol",
      "outputs": [
        {
          "internalType": "string",
          "name": "",
          "type": "string"
        }
      ],
      "stateMutability": "view",
      "type": "function"
    },
    {
      "inputs": [
        {
          "internalType": "uint256",
          "name": "index",
          "type": "uint256"
        }
      ],
      "name": "tokenByIndex",
      "outputs": [
        {
          "internalType": "uint256",
          "name": "",
          "type": "uint256"
        }
      ],
      "stateMutability": "view",
      "type": "function"
    },
    {
      "inputs": [
        {
          "internalType": "address",
          "name": "owner",
          "type": "address"
        },
        {
          "internalType": "uint256",
          "name": "index",
          "type": "uint256"
        }
      ],
      "name": "tokenOfOwnerByIndex",
      "outputs": [
        {
          "internalType": "uint256",
          "name": "",
          "type": "uint256"
        }
      ],
      "stateMutability": "view",
      "type": "function"
    },
    {
      "inputs": [
        {
          "internalType": "uint256",
          "name": "tokenId",
          "type": "uint256"
        }
      ],
      "name": "tokenURI",
      "outputs": [
        {
          "internalType": "string",
          "name": "",
          "type": "string"
        }
      ],
      "stateMutability": "view",
      "type": "function"
    },
    {
      "inputs": [],
      "name": "totalSupply",
      "outputs": [
        {
          "internalType": "uint256",
          "name": "",
          "type": "uint256"
        }
      ],
      "stateMutability": "view",
      "type": "function"
    },
    {
      "inputs": [
        {
          "internalType": "address",
          "name": "from",
          "type": "address"
        },
        {
          "internalType": "address",
          "name": "to",
          "type": "address"
        },
        {
          "internalType": "uint256",
          "name": "tokenId",
          "type": "uint256"
        }
      ],
      "name": "transferFrom",
      "outputs": [],
      "stateMutability": "nonpayable",
      "type": "function"
    },
    {
      "inputs": [
        {
          "internalType": "address",
          "name": "newOwner",
          "type": "address"
        }
      ],
      "name": "transferOwnership",
      "outputs": [],
      "stateMutability": "nonpayable",
      "type": "function"
    },
    {
      "inputs": [
        {
          "internalType": "address",
          "name": "",
          "type": "address"
        }
      ],
      "name": "whitelist",
      "outputs": [
        {
          "internalType": "uint256",
          "name": "",
          "type": "uint256"
        }
      ],
      "stateMutability": "view",
      "type": "function"
    },
    {
      "inputs": [],
      "name": "withdrawEth",
      "outputs": [],
      "stateMutability": "nonpayable",
      "type": "function"
    }
  ],
  "bytecode": "0x60a06040523480156200001157600080fd5b506040516200311e3803806200311e8339810160408190526200003491620004a3565b604080518082018252600a815269417373656d626c61676560b01b60208083019182528351808501909452600384526210509360ea1b908401528151919291620000819160009162000332565b5080516200009790600190602084019062000332565b505050620000b4620000ae6200011960201b60201c565b6200011d565b8151620000c990600e90602085019062000332565b5067011c37937e080000600c55600d805460ff19169055611ef1608052620000f1816200016f565b6200011162000108600a546001600160a01b031690565b6101f462000243565b505062000679565b3390565b600a80546001600160a01b038381166001600160a01b0319831681179093556040519116919082907f8be0079c531659141344cd1fd0a4f28419497f9722a3daafe3b4186f6b6457e090600090a35050565b600a546001600160a01b03163314620001be5760405162461bcd60e51b81526020600482018190526024820152600080516020620030fe83398151915260448201526064015b60405180910390fd5b60005b81518110156200023f57818181518110620001e057620001e06200064d565b602002602001015160200151600f60008484815181106200020557620002056200064d565b602090810291909101810151516001600160a01b031682528101919091526040016000205580620002368162000623565b915050620001c1565b5050565b600a546001600160a01b031633146200028e5760405162461bcd60e51b81526020600482018190526024820152600080516020620030fe8339815191526044820152606401620001b5565b6200023f8282612710811115620002e85760405162461bcd60e51b815260206004820152601a60248201527f45524332393831526f79616c746965733a20546f6f20686967680000000000006044820152606401620001b5565b604080518082019091526001600160a01b0390921680835262ffffff9091166020909201829052600b8054600160a01b9093026001600160b81b0319909316909117919091179055565b8280546200034090620005e6565b90600052602060002090601f016020900481019282620003645760008555620003af565b82601f106200037f57805160ff1916838001178555620003af565b82800160010185558215620003af579182015b82811115620003af57825182559160200191906001019062000392565b50620003bd929150620003c1565b5090565b5b80821115620003bd5760008155600101620003c2565b600082601f830112620003ea57600080fd5b815160206001600160401b0382111562000408576200040862000663565b62000418818360051b01620005b3565b80838252828201915082860187848660061b89010111156200043957600080fd5b60005b858110156200049657604080838b0312156200045757600080fd5b6200046162000588565b83516001600160a01b03811681146200047957600080fd5b81528387015187820152855293850193909101906001016200043c565b5090979650505050505050565b60008060408385031215620004b757600080fd5b82516001600160401b0380821115620004cf57600080fd5b818501915085601f830112620004e457600080fd5b815181811115620004f957620004f962000663565b60206200050f601f8301601f19168201620005b3565b82815288828487010111156200052457600080fd5b60005b838110156200054457858101830151828201840152820162000527565b83811115620005565760008385840101525b5090870151909550925050808211156200056f57600080fd5b506200057e85828601620003d8565b9150509250929050565b604080519081016001600160401b0381118282101715620005ad57620005ad62000663565b60405290565b604051601f8201601f191681016001600160401b0381118282101715620005de57620005de62000663565b604052919050565b600181811c90821680620005fb57607f821691505b602082108114156200061d57634e487b7160e01b600052602260045260246000fd5b50919050565b60006000198214156200064657634e487b7160e01b600052601160045260246000fd5b5060010190565b634e487b7160e01b600052603260045260246000fd5b634e487b7160e01b600052604160045260246000fd5b608051612a626200069c6000396000818161057b0152610ad10152612a626000f3fe6080604052600436106101ee5760003560e01c8063715018a61161010d578063b88d4fde116100a0578063e985e9c51161006f578063e985e9c51461059d578063eb53ef52146105e6578063f2fde38b14610626578063f4a0a52814610646578063f70429de1461066657600080fd5b8063b88d4fde14610514578063c87b56dd14610534578063d123973014610554578063d5abeb011461056957600080fd5b80639b19251a116100dc5780639b19251a14610492578063a0ef91df146104bf578063a22cb465146104d4578063b4c7f066146104f457600080fd5b8063715018a61461042a5780638c7ea24b1461043f5780638da5cb5b1461045f57806395d89b411461047d57600080fd5b80632f745c591161018557806355f804b31161015457806355f804b3146103b55780636352211e146103d55780636817c76c146103f557806370a082311461040a57600080fd5b80632f745c591461034257806340c10f191461036257806342842e0e146103755780634f6ccce71461039557600080fd5b806318160ddd116101c157806318160ddd146102a45780631f8e6551146102c357806323b872dd146102e35780632a55205a1461030357600080fd5b806301ffc9a7146101f357806306fdde0314610228578063081812fc1461024a578063095ea7b314610282575b600080fd5b3480156101ff57600080fd5b5061021361020e3660046125c7565b61066e565b60405190151581526020015b60405180910390f35b34801561023457600080fd5b5061023d61067f565b60405161021f9190612748565b34801561025657600080fd5b5061026a61026536600461264a565b610711565b6040516001600160a01b03909116815260200161021f565b34801561028e57600080fd5b506102a261029d366004612487565b6107ab565b005b3480156102b057600080fd5b506008545b60405190815260200161021f565b3480156102cf57600080fd5b506102a26102de3660046124b3565b6108c1565b3480156102ef57600080fd5b506102a26102fe366004612398565b610966565b34801561030f57600080fd5b5061032361031e36600461267c565b610997565b604080516001600160a01b03909316835260208301919091520161021f565b34801561034e57600080fd5b506102b561035d366004612487565b6109ec565b6102a2610370366004612487565b610a82565b34801561038157600080fd5b506102a2610390366004612398565b610f20565b3480156103a157600080fd5b506102b56103b036600461264a565b610f3b565b3480156103c157600080fd5b506102a26103d0366004612601565b610fce565b3480156103e157600080fd5b5061026a6103f036600461264a565b61100b565b34801561040157600080fd5b506102b5611082565b34801561041657600080fd5b506102b5610425366004612325565b6110d5565b34801561043657600080fd5b506102a261115c565b34801561044b57600080fd5b506102a261045a366004612487565b611192565b34801561046b57600080fd5b50600a546001600160a01b031661026a565b34801561048957600080fd5b5061023d6111c6565b34801561049e57600080fd5b506102b56104ad366004612325565b600f6020526000908152604090205481565b3480156104cb57600080fd5b506102a26111d5565b3480156104e057600080fd5b506102a26104ef366004612459565b61128b565b34801561050057600080fd5b506102a261050f36600461258d565b611296565b34801561052057600080fd5b506102a261052f3660046123d9565b6112d3565b34801561054057600080fd5b5061023d61054f36600461264a565b61130b565b34801561056057600080fd5b506102136113e6565b34801561057557600080fd5b506102b57f000000000000000000000000000000000000000000000000000000000000000081565b3480156105a957600080fd5b506102136105b836600461235f565b6001600160a01b03918216600090815260056020908152604080832093909416825291909152205460ff1690565b3480156105f257600080fd5b5061032361060136600461264a565b601060205260009081526040902080546001909101546001600160a01b039091169082565b34801561063257600080fd5b506102a2610641366004612325565b61143c565b34801561065257600080fd5b506102a261066136600461264a565b6114d7565b6102a2611506565b600061067982611565565b92915050565b60606000805461068e9061291b565b80601f01602080910402602001604051908101604052809291908181526020018280546106ba9061291b565b80156107075780601f106106dc57610100808354040283529160200191610707565b820191906000526020600020905b8154815290600101906020018083116106ea57829003601f168201915b5050505050905090565b6000818152600260205260408120546001600160a01b031661078f5760405162461bcd60e51b815260206004820152602c60248201527f4552433732313a20617070726f76656420717565727920666f72206e6f6e657860448201526b34b9ba32b73a103a37b5b2b760a11b60648201526084015b60405180910390fd5b506000908152600460205260409020546001600160a01b031690565b60006107b68261100b565b9050806001600160a01b0316836001600160a01b031614156108245760405162461bcd60e51b815260206004820152602160248201527f4552433732313a20617070726f76616c20746f2063757272656e74206f776e656044820152603960f91b6064820152608401610786565b336001600160a01b0382161480610840575061084081336105b8565b6108b25760405162461bcd60e51b815260206004820152603860248201527f4552433732313a20617070726f76652063616c6c6572206973206e6f74206f7760448201527f6e6572206e6f7220617070726f76656420666f7220616c6c00000000000000006064820152608401610786565b6108bc838361158a565b505050565b600a546001600160a01b031633146108eb5760405162461bcd60e51b8152600401610786906127ad565b60005b815181101561096257818181518110610909576109096129c7565b602002602001015160200151600f600084848151811061092b5761092b6129c7565b602090810291909101810151516001600160a01b03168252810191909152604001600020558061095a81612956565b9150506108ee565b5050565b61097033826115f8565b61098c5760405162461bcd60e51b8152600401610786906127e2565b6108bc8383836116ef565b60408051808201909152600b546001600160a01b038116808352600160a01b90910462ffffff16602083018190529091600091612710906109d890866128b9565b6109e291906128a5565b9150509250929050565b60006109f7836110d5565b8210610a595760405162461bcd60e51b815260206004820152602b60248201527f455243373231456e756d657261626c653a206f776e657220696e646578206f7560448201526a74206f6620626f756e647360a81b6064820152608401610786565b506001600160a01b03919091166000908152600660209081526040808320938352929052205490565b610a8a6113e6565b610acf5760405162461bcd60e51b8152602060048201526016602482015275135a5b9d1a5b99c81a5cc81b9bdd08195b98589b195960521b6044820152606401610786565b7f0000000000000000000000000000000000000000000000000000000000000000610af960085490565b10610b3c5760405162461bcd60e51b815260206004820152601360248201527214dd5c1c1b1e481a5cc8195e1a185d5cdd1959606a1b6044820152606401610786565b6001600160a01b038216600090815260116020908152604080832084845290915290205460ff1615610bb05760405162461bcd60e51b815260206004820152601d60248201527f5468697320746f6b656e2077617320616c7265616479206d696e7465640000006044820152606401610786565b610bb8611082565b341015610c075760405162461bcd60e51b815260206004820152601b60248201527f496e73756666696369656e742076616c756520666f72206d696e7400000000006044820152606401610786565b610c216001600160a01b0383166380ac58cd60e01b61189a565b15610d14576040516331a9108f60e11b81526004810182905233906001600160a01b03841690636352211e9060240160206040518083038186803b158015610c6857600080fd5b505afa158015610c7c573d6000803e3d6000fd5b505050506040513d601f19601f82011682018060405250810190610ca09190612342565b6001600160a01b031614610d0f5760405162461bcd60e51b815260206004820152603060248201527f596f7520646f206e6f74206f776e207468697320746f6b656e20696e2074686560448201526f081cdbdd5c98d94818dbdb9d1c9858dd60821b6064820152608401610786565b610e19565b610d2e6001600160a01b038316636cdb3d1360e11b61189a565b15610e1957604051627eeac760e11b8152336004820152602481018290526000906001600160a01b0384169062fdd58e9060440160206040518083038186803b158015610d7a57600080fd5b505afa158015610d8e573d6000803e3d6000fd5b505050506040513d601f19601f82011682018060405250810190610db29190612663565b11610e195760405162461bcd60e51b815260206004820152603160248201527f596f7520646f206e6f74206f776e207468697320746f6b656e20696e2074686560448201527020736f7572636520636f6e74726163742160781b6064820152608401610786565b6000610e2460085490565b336000908152600f602052604090205490915015610e6257336000908152600f60205260408120805460019290610e5c9084906128d8565b90915550505b610e6c33826118b6565b6040805180820182526001600160a01b038581168083526020808401878152600087815260108352868120865181546001600160a01b0319169087161781558251600191820155938152601183528681208982528352869020805460ff1916909317909255845184519093168352905190820152918201839052336060830152907f670e7290204c50f0ab4452d3e4a7534e1e511f6098ad647a5f9e2727356a01489060800160405180910390a150505050565b6108bc838383604051806020016040528060008152506112d3565b6000610f4660085490565b8210610fa95760405162461bcd60e51b815260206004820152602c60248201527f455243373231456e756d657261626c653a20676c6f62616c20696e646578206f60448201526b7574206f6620626f756e647360a01b6064820152608401610786565b60088281548110610fbc57610fbc6129c7565b90600052602060002001549050919050565b600a546001600160a01b03163314610ff85760405162461bcd60e51b8152600401610786906127ad565b805161096290600e906020840190612234565b6000818152600260205260408120546001600160a01b0316806106795760405162461bcd60e51b815260206004820152602960248201527f4552433732313a206f776e657220717565727920666f72206e6f6e657869737460448201526832b73a103a37b5b2b760b91b6064820152608401610786565b6000611096600a546001600160a01b031690565b6001600160a01b0316336001600160a01b031614806110c35750336000908152600f602052604090205415155b156110ce5750600090565b50600c5490565b60006001600160a01b0382166111405760405162461bcd60e51b815260206004820152602a60248201527f4552433732313a2062616c616e636520717565727920666f7220746865207a65604482015269726f206164647265737360b01b6064820152608401610786565b506001600160a01b031660009081526003602052604090205490565b600a546001600160a01b031633146111865760405162461bcd60e51b8152600401610786906127ad565b61119060006118d0565b565b600a546001600160a01b031633146111bc5760405162461bcd60e51b8152600401610786906127ad565b6109628282611922565b60606001805461068e9061291b565b600a546001600160a01b031633146111ff5760405162461bcd60e51b8152600401610786906127ad565b6040514790600090339083908381818185875af1925050503d8060008114611243576040519150601f19603f3d011682016040523d82523d6000602084013e611248565b606091505b50509050806109625760405162461bcd60e51b815260206004820152600f60248201526e15da5d1a191c985dc819985a5b1959608a1b6044820152606401610786565b6109623383836119be565b600a546001600160a01b031633146112c05760405162461bcd60e51b8152600401610786906127ad565b600d805460ff1916911515919091179055565b6112dd33836115f8565b6112f95760405162461bcd60e51b8152600401610786906127e2565b61130584848484611a8d565b50505050565b6000818152600260205260409020546060906001600160a01b031661138a5760405162461bcd60e51b815260206004820152602f60248201527f4552433732314d657461646174613a2055524920717565727920666f72206e6f60448201526e3732bc34b9ba32b73a103a37b5b2b760891b6064820152608401610786565b6000611394611ac0565b905060008151116113b457604051806020016040528060008152506113df565b806113be84611acf565b6040516020016113cf9291906126e6565b6040516020818303038152906040525b9392505050565b60006113fa600a546001600160a01b031690565b6001600160a01b0316336001600160a01b031614806114275750336000908152600f602052604090205415155b156114325750600190565b50600d5460ff1690565b600a546001600160a01b031633146114665760405162461bcd60e51b8152600401610786906127ad565b6001600160a01b0381166114cb5760405162461bcd60e51b815260206004820152602660248201527f4f776e61626c653a206e6577206f776e657220697320746865207a65726f206160448201526564647265737360d01b6064820152608401610786565b6114d4816118d0565b50565b600a546001600160a01b031633146115015760405162461bcd60e51b8152600401610786906127ad565b600c55565b600034116111905760405162461bcd60e51b815260206004820152602660248201527f496e73756666696369656e742076616c756520666f72206f72646572696e67206044820152657072696e747360d01b6064820152608401610786565b60006001600160e01b0319821663152a902d60e11b1480610679575061067982611bcd565b600081815260046020526040902080546001600160a01b0319166001600160a01b03841690811790915581906115bf8261100b565b6001600160a01b03167f8c5be1e5ebec7d5bd14f71427d1e84f3dd0314c0f7b2291e5b200ac8c7c3b92560405160405180910390a45050565b6000818152600260205260408120546001600160a01b03166116715760405162461bcd60e51b815260206004820152602c60248201527f4552433732313a206f70657261746f7220717565727920666f72206e6f6e657860448201526b34b9ba32b73a103a37b5b2b760a11b6064820152608401610786565b600061167c8361100b565b9050806001600160a01b0316846001600160a01b031614806116b75750836001600160a01b03166116ac84610711565b6001600160a01b0316145b806116e757506001600160a01b0380821660009081526005602090815260408083209388168352929052205460ff165b949350505050565b826001600160a01b03166117028261100b565b6001600160a01b03161461176a5760405162461bcd60e51b815260206004820152602960248201527f4552433732313a207472616e73666572206f6620746f6b656e2074686174206960448201526839903737ba1037bbb760b91b6064820152608401610786565b6001600160a01b0382166117cc5760405162461bcd60e51b8152602060048201526024808201527f4552433732313a207472616e7366657220746f20746865207a65726f206164646044820152637265737360e01b6064820152608401610786565b6117d7838383611bf2565b6117e260008261158a565b6001600160a01b038316600090815260036020526040812080546001929061180b9084906128d8565b90915550506001600160a01b038216600090815260036020526040812080546001929061183990849061288d565b909155505060008181526002602052604080822080546001600160a01b0319166001600160a01b0386811691821790925591518493918716917fddf252ad1be2c89b69c2b068fc378daa952ba7f163c4a11628f55a4df523b3ef91a4505050565b60006118a583611caa565b80156113df57506113df8383611cdd565b610962828260405180602001604052806000815250611dc6565b600a80546001600160a01b038381166001600160a01b0319831681179093556040519116919082907f8be0079c531659141344cd1fd0a4f28419497f9722a3daafe3b4186f6b6457e090600090a35050565b6127108111156119745760405162461bcd60e51b815260206004820152601a60248201527f45524332393831526f79616c746965733a20546f6f20686967680000000000006044820152606401610786565b604080518082019091526001600160a01b0390921680835262ffffff9091166020909201829052600b8054600160a01b9093026001600160b81b0319909316909117919091179055565b816001600160a01b0316836001600160a01b03161415611a205760405162461bcd60e51b815260206004820152601960248201527f4552433732313a20617070726f766520746f2063616c6c6572000000000000006044820152606401610786565b6001600160a01b03838116600081815260056020908152604080832094871680845294825291829020805460ff191686151590811790915591519182527f17307eab39ab6107e8899845ad3d59bd9653f200f220920489ca2b5937696c31910160405180910390a3505050565b611a988484846116ef565b611aa484848484611df9565b6113055760405162461bcd60e51b81526004016107869061275b565b6060600e805461068e9061291b565b606081611af35750506040805180820190915260018152600360fc1b602082015290565b8160005b8115611b1d5780611b0781612956565b9150611b169050600a836128a5565b9150611af7565b60008167ffffffffffffffff811115611b3857611b386129dd565b6040519080825280601f01601f191660200182016040528015611b62576020820181803683370190505b5090505b84156116e757611b776001836128d8565b9150611b84600a86612971565b611b8f90603061288d565b60f81b818381518110611ba457611ba46129c7565b60200101906001600160f81b031916908160001a905350611bc6600a866128a5565b9450611b66565b60006001600160e01b0319821663780e9d6360e01b1480610679575061067982611f06565b6001600160a01b038316611c4d57611c4881600880546000838152600960205260408120829055600182018355919091527ff3f7a9fe364faab93b216da50a3214154f22a0a2b415b23a84c8169e8b636ee30155565b611c70565b816001600160a01b0316836001600160a01b031614611c7057611c708382611f56565b6001600160a01b038216611c87576108bc81611ff3565b826001600160a01b0316826001600160a01b0316146108bc576108bc82826120a2565b6000611cbd826301ffc9a760e01b611cdd565b80156106795750611cd6826001600160e01b0319611cdd565b1592915050565b604080516001600160e01b0319831660248083019190915282518083039091018152604490910182526020810180516001600160e01b03166301ffc9a760e01b179052905160009190829081906001600160a01b0387169061753090611d449086906126ca565b6000604051808303818686fa925050503d8060008114611d80576040519150601f19603f3d011682016040523d82523d6000602084013e611d85565b606091505b5091509150602081511015611da05760009350505050610679565b818015611dbc575080806020019051810190611dbc91906125aa565b9695505050505050565b611dd083836120e6565b611ddd6000848484611df9565b6108bc5760405162461bcd60e51b81526004016107869061275b565b60006001600160a01b0384163b15611efb57604051630a85bd0160e11b81526001600160a01b0385169063150b7a0290611e3d903390899088908890600401612715565b602060405180830381600087803b158015611e5757600080fd5b505af1925050508015611e87575060408051601f3d908101601f19168201909252611e84918101906125e4565b60015b611ee1573d808015611eb5576040519150601f19603f3d011682016040523d82523d6000602084013e611eba565b606091505b508051611ed95760405162461bcd60e51b81526004016107869061275b565b805181602001fd5b6001600160e01b031916630a85bd0160e11b1490506116e7565b506001949350505050565b60006001600160e01b031982166380ac58cd60e01b1480611f3757506001600160e01b03198216635b5e139f60e01b145b8061067957506301ffc9a760e01b6001600160e01b0319831614610679565b60006001611f63846110d5565b611f6d91906128d8565b600083815260076020526040902054909150808214611fc0576001600160a01b03841660009081526006602090815260408083208584528252808320548484528184208190558352600790915290208190555b5060009182526007602090815260408084208490556001600160a01b039094168352600681528383209183525290812055565b600854600090612005906001906128d8565b6000838152600960205260408120546008805493945090928490811061202d5761202d6129c7565b90600052602060002001549050806008838154811061204e5761204e6129c7565b6000918252602080832090910192909255828152600990915260408082208490558582528120556008805480612086576120866129b1565b6001900381819060005260206000200160009055905550505050565b60006120ad836110d5565b6001600160a01b039093166000908152600660209081526040808320868452825280832085905593825260079052919091209190915550565b6001600160a01b03821661213c5760405162461bcd60e51b815260206004820181905260248201527f4552433732313a206d696e7420746f20746865207a65726f20616464726573736044820152606401610786565b6000818152600260205260409020546001600160a01b0316156121a15760405162461bcd60e51b815260206004820152601c60248201527f4552433732313a20746f6b656e20616c7265616479206d696e746564000000006044820152606401610786565b6121ad60008383611bf2565b6001600160a01b03821660009081526003602052604081208054600192906121d690849061288d565b909155505060008181526002602052604080822080546001600160a01b0319166001600160a01b03861690811790915590518392907fddf252ad1be2c89b69c2b068fc378daa952ba7f163c4a11628f55a4df523b3ef908290a45050565b8280546122409061291b565b90600052602060002090601f01602090048101928261226257600085556122a8565b82601f1061227b57805160ff19168380011785556122a8565b828001600101855582156122a8579182015b828111156122a857825182559160200191906001019061228d565b506122b49291506122b8565b5090565b5b808211156122b457600081556001016122b9565b600067ffffffffffffffff8311156122e7576122e76129dd565b6122fa601f8401601f191660200161285c565b905082815283838301111561230e57600080fd5b828260208301376000602084830101529392505050565b60006020828403121561233757600080fd5b81356113df816129f3565b60006020828403121561235457600080fd5b81516113df816129f3565b6000806040838503121561237257600080fd5b823561237d816129f3565b9150602083013561238d816129f3565b809150509250929050565b6000806000606084860312156123ad57600080fd5b83356123b8816129f3565b925060208401356123c8816129f3565b929592945050506040919091013590565b600080600080608085870312156123ef57600080fd5b84356123fa816129f3565b9350602085013561240a816129f3565b925060408501359150606085013567ffffffffffffffff81111561242d57600080fd5b8501601f8101871361243e57600080fd5b61244d878235602084016122cd565b91505092959194509250565b6000806040838503121561246c57600080fd5b8235612477816129f3565b9150602083013561238d81612a08565b6000806040838503121561249a57600080fd5b82356124a5816129f3565b946020939093013593505050565b600060208083850312156124c657600080fd5b823567ffffffffffffffff808211156124de57600080fd5b818501915085601f8301126124f257600080fd5b813581811115612504576125046129dd565b612512848260051b0161285c565b8181528481019250838501600683901b8501860189101561253257600080fd5b60009450845b8381101561257f57604080838c031215612550578687fd5b612558612833565b8335612563816129f3565b8152838901358982015286529487019490910190600101612538565b509098975050505050505050565b60006020828403121561259f57600080fd5b81356113df81612a08565b6000602082840312156125bc57600080fd5b81516113df81612a08565b6000602082840312156125d957600080fd5b81356113df81612a16565b6000602082840312156125f657600080fd5b81516113df81612a16565b60006020828403121561261357600080fd5b813567ffffffffffffffff81111561262a57600080fd5b8201601f8101841361263b57600080fd5b6116e7848235602084016122cd565b60006020828403121561265c57600080fd5b5035919050565b60006020828403121561267557600080fd5b5051919050565b6000806040838503121561268f57600080fd5b50508035926020909101359150565b600081518084526126b68160208601602086016128ef565b601f01601f19169290920160200192915050565b600082516126dc8184602087016128ef565b9190910192915050565b600083516126f88184602088016128ef565b83519083019061270c8183602088016128ef565b01949350505050565b6001600160a01b0385811682528416602082015260408101839052608060608201819052600090611dbc9083018461269e565b6020815260006113df602083018461269e565b60208082526032908201527f4552433732313a207472616e7366657220746f206e6f6e20455243373231526560408201527131b2b4bb32b91034b6b83632b6b2b73a32b960711b606082015260800190565b6020808252818101527f4f776e61626c653a2063616c6c6572206973206e6f7420746865206f776e6572604082015260600190565b60208082526031908201527f4552433732313a207472616e736665722063616c6c6572206973206e6f74206f6040820152701ddb995c881b9bdc88185c1c1c9bdd9959607a1b606082015260800190565b6040805190810167ffffffffffffffff81118282101715612856576128566129dd565b60405290565b604051601f8201601f1916810167ffffffffffffffff81118282101715612885576128856129dd565b604052919050565b600082198211156128a0576128a0612985565b500190565b6000826128b4576128b461299b565b500490565b60008160001904831182151516156128d3576128d3612985565b500290565b6000828210156128ea576128ea612985565b500390565b60005b8381101561290a5781810151838201526020016128f2565b838111156113055750506000910152565b600181811c9082168061292f57607f821691505b6020821081141561295057634e487b7160e01b600052602260045260246000fd5b50919050565b600060001982141561296a5761296a612985565b5060010190565b6000826129805761298061299b565b500690565b634e487b7160e01b600052601160045260246000fd5b634e487b7160e01b600052601260045260246000fd5b634e487b7160e01b600052603160045260246000fd5b634e487b7160e01b600052603260045260246000fd5b634e487b7160e01b600052604160045260246000fd5b6001600160a01b03811681146114d457600080fd5b80151581146114d457600080fd5b6001600160e01b0319811681146114d457600080fdfea264697066735822122003c5e74b97f3ad97f26a6c2a2bfe71555cb2e3a801bafff80fad3e54468ede6864736f6c634300080700334f776e61626c653a2063616c6c6572206973206e6f7420746865206f776e6572",
  "linkReferences": {},
  "deployedLinkReferences": {}
}