{
  "_format": "hh-sol-artifact-1",
  "contractName": "Assemblage",
  "sourceName": "contracts/Assemblage.sol",
  "abi": [
    {
      "inputs": [
        {
          "internalType": "string",
          "name": "_initialBaseURI",
          "type": "string"
        },
        {
          "components": [
            {
              "internalType": "address",
              "name": "minter",
              "type": "address"
            },
            {
              "internalType": "uint256",
              "name": "amount",
              "type": "uint256"
            }
          ],
          "internalType": "struct Assemblage.FreemintItem[]",
          "name": "_initialFreemints",
          "type": "tuple[]"
        }
      ],
      "stateMutability": "nonpayable",
      "type": "constructor"
    },
    {
      "anonymous": false,
      "inputs": [
        {
          "indexed": true,
          "internalType": "address",
          "name": "owner",
          "type": "address"
        },
        {
          "indexed": true,
          "internalType": "address",
          "name": "approved",
          "type": "address"
        },
        {
          "indexed": true,
          "internalType": "uint256",
          "name": "tokenId",
          "type": "uint256"
        }
      ],
      "name": "Approval",
      "type": "event"
    },
    {
      "anonymous": false,
      "inputs": [
        {
          "indexed": true,
          "internalType": "address",
          "name": "owner",
          "type": "address"
        },
        {
          "indexed": true,
          "internalType": "address",
          "name": "operator",
          "type": "address"
        },
        {
          "indexed": false,
          "internalType": "bool",
          "name": "approved",
          "type": "bool"
        }
      ],
      "name": "ApprovalForAll",
      "type": "event"
    },
    {
      "anonymous": false,
      "inputs": [
        {
          "indexed": true,
          "internalType": "address",
          "name": "previousOwner",
          "type": "address"
        },
        {
          "indexed": true,
          "internalType": "address",
          "name": "newOwner",
          "type": "address"
        }
      ],
      "name": "OwnershipTransferred",
      "type": "event"
    },
    {
      "anonymous": false,
      "inputs": [
        {
          "indexed": false,
          "internalType": "address",
          "name": "from",
          "type": "address"
        },
        {
          "indexed": false,
          "internalType": "uint256",
          "name": "amount",
          "type": "uint256"
        }
      ],
      "name": "PrintOrdered",
      "type": "event"
    },
    {
      "anonymous": false,
      "inputs": [
        {
          "components": [
            {
              "internalType": "address",
              "name": "sourceContract",
              "type": "address"
            },
            {
              "internalType": "uint256",
              "name": "sourceTokenId",
              "type": "uint256"
            }
          ],
          "indexed": false,
          "internalType": "struct Assemblage.SourceToken",
          "name": "",
          "type": "tuple"
        },
        {
          "indexed": false,
          "internalType": "uint256",
          "name": "tokenId",
          "type": "uint256"
        },
        {
          "indexed": false,
          "internalType": "address",
          "name": "to",
          "type": "address"
        }
      ],
      "name": "SourceTokenMinted",
      "type": "event"
    },
    {
      "anonymous": false,
      "inputs": [
        {
          "indexed": true,
          "internalType": "address",
          "name": "from",
          "type": "address"
        },
        {
          "indexed": true,
          "internalType": "address",
          "name": "to",
          "type": "address"
        },
        {
          "indexed": true,
          "internalType": "uint256",
          "name": "tokenId",
          "type": "uint256"
        }
      ],
      "name": "Transfer",
      "type": "event"
    },
    {
      "inputs": [
        {
          "internalType": "address",
          "name": "to",
          "type": "address"
        },
        {
          "internalType": "uint256",
          "name": "tokenId",
          "type": "uint256"
        }
      ],
      "name": "approve",
      "outputs": [],
      "stateMutability": "nonpayable",
      "type": "function"
    },
    {
      "inputs": [
        {
          "internalType": "address",
          "name": "owner",
          "type": "address"
        }
      ],
      "name": "balanceOf",
      "outputs": [
        {
          "internalType": "uint256",
          "name": "",
          "type": "uint256"
        }
      ],
      "stateMutability": "view",
      "type": "function"
    },
    {
      "inputs": [],
      "name": "contractURI",
      "outputs": [
        {
          "internalType": "string",
          "name": "",
          "type": "string"
        }
      ],
      "stateMutability": "view",
      "type": "function"
    },
    {
      "inputs": [
        {
          "internalType": "address",
          "name": "",
          "type": "address"
        }
      ],
      "name": "freemints",
      "outputs": [
        {
          "internalType": "uint256",
          "name": "",
          "type": "uint256"
        }
      ],
      "stateMutability": "view",
      "type": "function"
    },
    {
      "inputs": [
        {
          "internalType": "uint256",
          "name": "tokenId",
          "type": "uint256"
        }
      ],
      "name": "getApproved",
      "outputs": [
        {
          "internalType": "address",
          "name": "",
          "type": "address"
        }
      ],
      "stateMutability": "view",
      "type": "function"
    },
    {
      "inputs": [
        {
          "internalType": "address",
          "name": "owner",
          "type": "address"
        },
        {
          "internalType": "address",
          "name": "operator",
          "type": "address"
        }
      ],
      "name": "isApprovedForAll",
      "outputs": [
        {
          "internalType": "bool",
          "name": "",
          "type": "bool"
        }
      ],
      "stateMutability": "view",
      "type": "function"
    },
    {
      "inputs": [],
      "name": "maxSupply",
      "outputs": [
        {
          "internalType": "uint256",
          "name": "",
          "type": "uint256"
        }
      ],
      "stateMutability": "view",
      "type": "function"
    },
    {
      "inputs": [
        {
          "internalType": "address",
          "name": "sourceContract",
          "type": "address"
        },
        {
          "internalType": "uint256",
          "name": "sourceTokenId",
          "type": "uint256"
        }
      ],
      "name": "mint",
      "outputs": [],
      "stateMutability": "payable",
      "type": "function"
    },
    {
      "inputs": [],
      "name": "mintEnabled",
      "outputs": [
        {
          "internalType": "bool",
          "name": "",
          "type": "bool"
        }
      ],
      "stateMutability": "view",
      "type": "function"
    },
    {
      "inputs": [],
      "name": "mintPrice",
      "outputs": [
        {
          "internalType": "uint256",
          "name": "",
          "type": "uint256"
        }
      ],
      "stateMutability": "view",
      "type": "function"
    },
    {
      "inputs": [],
      "name": "name",
      "outputs": [
        {
          "internalType": "string",
          "name": "",
          "type": "string"
        }
      ],
      "stateMutability": "view",
      "type": "function"
    },
    {
      "inputs": [],
      "name": "orderPrints",
      "outputs": [],
      "stateMutability": "payable",
      "type": "function"
    },
    {
      "inputs": [],
      "name": "owner",
      "outputs": [
        {
          "internalType": "address",
          "name": "",
          "type": "address"
        }
      ],
      "stateMutability": "view",
      "type": "function"
    },
    {
      "inputs": [
        {
          "internalType": "uint256",
          "name": "tokenId",
          "type": "uint256"
        }
      ],
      "name": "ownerOf",
      "outputs": [
        {
          "internalType": "address",
          "name": "",
          "type": "address"
        }
      ],
      "stateMutability": "view",
      "type": "function"
    },
    {
      "inputs": [],
      "name": "renounceOwnership",
      "outputs": [],
      "stateMutability": "nonpayable",
      "type": "function"
    },
    {
      "inputs": [
        {
          "internalType": "uint256",
          "name": "",
          "type": "uint256"
        },
        {
          "internalType": "uint256",
          "name": "value",
          "type": "uint256"
        }
      ],
      "name": "royaltyInfo",
      "outputs": [
        {
          "internalType": "address",
          "name": "receiver",
          "type": "address"
        },
        {
          "internalType": "uint256",
          "name": "royaltyAmount",
          "type": "uint256"
        }
      ],
      "stateMutability": "view",
      "type": "function"
    },
    {
      "inputs": [
        {
          "internalType": "address",
          "name": "from",
          "type": "address"
        },
        {
          "internalType": "address",
          "name": "to",
          "type": "address"
        },
        {
          "internalType": "uint256",
          "name": "tokenId",
          "type": "uint256"
        }
      ],
      "name": "safeTransferFrom",
      "outputs": [],
      "stateMutability": "nonpayable",
      "type": "function"
    },
    {
      "inputs": [
        {
          "internalType": "address",
          "name": "from",
          "type": "address"
        },
        {
          "internalType": "address",
          "name": "to",
          "type": "address"
        },
        {
          "internalType": "uint256",
          "name": "tokenId",
          "type": "uint256"
        },
        {
          "internalType": "bytes",
          "name": "_data",
          "type": "bytes"
        }
      ],
      "name": "safeTransferFrom",
      "outputs": [],
      "stateMutability": "nonpayable",
      "type": "function"
    },
    {
      "inputs": [
        {
          "internalType": "address",
          "name": "operator",
          "type": "address"
        },
        {
          "internalType": "bool",
          "name": "approved",
          "type": "bool"
        }
      ],
      "name": "setApprovalForAll",
      "outputs": [],
      "stateMutability": "nonpayable",
      "type": "function"
    },
    {
      "inputs": [
        {
          "internalType": "string",
          "name": "newBaseURI",
          "type": "string"
        }
      ],
      "name": "setBaseURI",
      "outputs": [],
      "stateMutability": "nonpayable",
      "type": "function"
    },
    {
      "inputs": [
        {
          "components": [
            {
              "internalType": "address",
              "name": "minter",
              "type": "address"
            },
            {
              "internalType": "uint256",
              "name": "amount",
              "type": "uint256"
            }
          ],
          "internalType": "struct Assemblage.FreemintItem[]",
          "name": "_array",
          "type": "tuple[]"
        }
      ],
      "name": "setFreemints",
      "outputs": [],
      "stateMutability": "nonpayable",
      "type": "function"
    },
    {
      "inputs": [
        {
          "internalType": "uint256",
          "name": "newMintPrice",
          "type": "uint256"
        }
      ],
      "name": "setMintPrice",
      "outputs": [],
      "stateMutability": "nonpayable",
      "type": "function"
    },
    {
      "inputs": [
        {
          "internalType": "bool",
          "name": "newMintingState",
          "type": "bool"
        }
      ],
      "name": "setMinting",
      "outputs": [],
      "stateMutability": "nonpayable",
      "type": "function"
    },
    {
      "inputs": [
        {
          "internalType": "address",
          "name": "recipient",
          "type": "address"
        },
        {
          "internalType": "uint256",
          "name": "value",
          "type": "uint256"
        }
      ],
      "name": "setRoyalties",
      "outputs": [],
      "stateMutability": "nonpayable",
      "type": "function"
    },
    {
      "inputs": [
        {
          "internalType": "address",
          "name": "",
          "type": "address"
        },
        {
          "internalType": "uint256",
          "name": "",
          "type": "uint256"
        }
      ],
      "name": "sourceTokenMinted",
      "outputs": [
        {
          "internalType": "bool",
          "name": "",
          "type": "bool"
        }
      ],
      "stateMutability": "view",
      "type": "function"
    },
    {
      "inputs": [
        {
          "internalType": "uint256",
          "name": "",
          "type": "uint256"
        }
      ],
      "name": "sourceTokens",
      "outputs": [
        {
          "internalType": "address",
          "name": "sourceContract",
          "type": "address"
        },
        {
          "internalType": "uint256",
          "name": "sourceTokenId",
          "type": "uint256"
        }
      ],
      "stateMutability": "view",
      "type": "function"
    },
    {
      "inputs": [
        {
          "internalType": "bytes4",
          "name": "interfaceId",
          "type": "bytes4"
        }
      ],
      "name": "supportsInterface",
      "outputs": [
        {
          "internalType": "bool",
          "name": "",
          "type": "bool"
        }
      ],
      "stateMutability": "view",
      "type": "function"
    },
    {
      "inputs": [],
      "name": "symbol",
      "outputs": [
        {
          "internalType": "string",
          "name": "",
          "type": "string"
        }
      ],
      "stateMutability": "view",
      "type": "function"
    },
    {
      "inputs": [
        {
          "internalType": "uint256",
          "name": "index",
          "type": "uint256"
        }
      ],
      "name": "tokenByIndex",
      "outputs": [
        {
          "internalType": "uint256",
          "name": "",
          "type": "uint256"
        }
      ],
      "stateMutability": "view",
      "type": "function"
    },
    {
      "inputs": [
        {
          "internalType": "address",
          "name": "owner",
          "type": "address"
        },
        {
          "internalType": "uint256",
          "name": "index",
          "type": "uint256"
        }
      ],
      "name": "tokenOfOwnerByIndex",
      "outputs": [
        {
          "internalType": "uint256",
          "name": "",
          "type": "uint256"
        }
      ],
      "stateMutability": "view",
      "type": "function"
    },
    {
      "inputs": [
        {
          "internalType": "uint256",
          "name": "tokenId",
          "type": "uint256"
        }
      ],
      "name": "tokenURI",
      "outputs": [
        {
          "internalType": "string",
          "name": "",
          "type": "string"
        }
      ],
      "stateMutability": "view",
      "type": "function"
    },
    {
      "inputs": [],
      "name": "totalSupply",
      "outputs": [
        {
          "internalType": "uint256",
          "name": "",
          "type": "uint256"
        }
      ],
      "stateMutability": "view",
      "type": "function"
    },
    {
      "inputs": [
        {
          "internalType": "address",
          "name": "from",
          "type": "address"
        },
        {
          "internalType": "address",
          "name": "to",
          "type": "address"
        },
        {
          "internalType": "uint256",
          "name": "tokenId",
          "type": "uint256"
        }
      ],
      "name": "transferFrom",
      "outputs": [],
      "stateMutability": "nonpayable",
      "type": "function"
    },
    {
      "inputs": [
        {
          "internalType": "address",
          "name": "newOwner",
          "type": "address"
        }
      ],
      "name": "transferOwnership",
      "outputs": [],
      "stateMutability": "nonpayable",
      "type": "function"
    },
    {
      "inputs": [],
      "name": "withdrawEth",
      "outputs": [],
      "stateMutability": "nonpayable",
      "type": "function"
    }
  ],
  "bytecode": "0x60a06040523480156200001157600080fd5b506040516200318c3803806200318c833981016040819052620000349162000512565b604080518082018252600a815269417373656d626c61676560b01b60208083019182528351808501909452600384526210509360ea1b908401528151919291620000819160009162000332565b5080516200009790600190602084019062000332565b505050620000b4620000ae6200011960201b60201c565b6200011d565b8151620000c990600e90602085019062000332565b5067011c37937e080000600c55600d805460ff19169055611ef1608052620000f1816200016f565b6200011162000108600a546001600160a01b031690565b6101f462000243565b505062000674565b3390565b600a80546001600160a01b038381166001600160a01b0319831681179093556040519116919082907f8be0079c531659141344cd1fd0a4f28419497f9722a3daafe3b4186f6b6457e090600090a35050565b600a546001600160a01b03163314620001be5760405162461bcd60e51b815260206004820181905260248201526000805160206200316c83398151915260448201526064015b60405180910390fd5b60005b81518110156200023f57818181518110620001e057620001e0620005f7565b602002602001015160200151600f6000848481518110620002055762000205620005f7565b602090810291909101810151516001600160a01b03168252810191909152604001600020558062000236816200060d565b915050620001c1565b5050565b600a546001600160a01b031633146200028e5760405162461bcd60e51b815260206004820181905260248201526000805160206200316c8339815191526044820152606401620001b5565b6200023f8282612710811115620002e85760405162461bcd60e51b815260206004820152601a60248201527f45524332393831526f79616c746965733a20546f6f20686967680000000000006044820152606401620001b5565b604080518082019091526001600160a01b0390921680835262ffffff9091166020909201829052600b8054600160a01b9093026001600160b81b0319909316909117919091179055565b828054620003409062000637565b90600052602060002090601f016020900481019282620003645760008555620003af565b82601f106200037f57805160ff1916838001178555620003af565b82800160010185558215620003af579182015b82811115620003af57825182559160200191906001019062000392565b50620003bd929150620003c1565b5090565b5b80821115620003bd5760008155600101620003c2565b634e487b7160e01b600052604160045260246000fd5b604080519081016001600160401b0381118282101715620004135762000413620003d8565b60405290565b604051601f8201601f191681016001600160401b0381118282101715620004445762000444620003d8565b604052919050565b600082601f8301126200045e57600080fd5b815160206001600160401b038211156200047c576200047c620003d8565b6200048c818360051b0162000419565b82815260069290921b84018101918181019086841115620004ac57600080fd5b8286015b84811015620005075760408189031215620004cb5760008081fd5b620004d5620003ee565b81516001600160a01b0381168114620004ee5760008081fd5b81528185015185820152835291830191604001620004b0565b509695505050505050565b600080604083850312156200052657600080fd5b82516001600160401b03808211156200053e57600080fd5b818501915085601f8301126200055357600080fd5b815181811115620005685762000568620003d8565b60206200057e601f8301601f1916820162000419565b82815288828487010111156200059357600080fd5b60005b83811015620005b357858101830151828201840152820162000596565b83811115620005c55760008385840101525b509087015190955092505080821115620005de57600080fd5b50620005ed858286016200044c565b9150509250929050565b634e487b7160e01b600052603260045260246000fd5b60006000198214156200063057634e487b7160e01b600052601160045260246000fd5b5060010190565b600181811c908216806200064c57607f821691505b602082108114156200066e57634e487b7160e01b600052602260045260246000fd5b50919050565b608051612ad562000697600039600081816105cc0152610a920152612ad56000f3fe6080604052600436106102045760003560e01c80638c7ea24b11610118578063c87b56dd116100a0578063e985e9c51161006f578063e985e9c514610603578063eb53ef521461064c578063f2fde38b1461068c578063f4a0a528146106ac578063f70429de146106cc57600080fd5b8063c87b56dd14610585578063d1239730146105a5578063d5abeb01146105ba578063e8a3d485146105ee57600080fd5b8063a22cb465116100e7578063a22cb465146104bd578063aff810e7146104dd578063b4c7f06614610518578063b88d4fde14610538578063bfacda061461055857600080fd5b80638c7ea24b146104555780638da5cb5b1461047557806395d89b4114610493578063a0ef91df146104a857600080fd5b806340c10f191161019b5780636352211e1161016a5780636352211e146103cb5780636817c76c146103eb57806370a0823114610400578063715018a614610420578063839983e21461043557600080fd5b806340c10f191461035857806342842e0e1461036b5780634f6ccce71461038b57806355f804b3146103ab57600080fd5b806318160ddd116101d757806318160ddd146102ba57806323b872dd146102d95780632a55205a146102f95780632f745c591461033857600080fd5b806301ffc9a71461020957806306fdde031461023e578063081812fc14610260578063095ea7b314610298575b600080fd5b34801561021557600080fd5b50610229610224366004612329565b6106d4565b60405190151581526020015b60405180910390f35b34801561024a57600080fd5b506102536106e5565b604051610235919061239e565b34801561026c57600080fd5b5061028061027b3660046123b1565b610777565b6040516001600160a01b039091168152602001610235565b3480156102a457600080fd5b506102b86102b33660046123df565b610811565b005b3480156102c657600080fd5b506008545b604051908152602001610235565b3480156102e557600080fd5b506102b86102f436600461240b565b610927565b34801561030557600080fd5b5061031961031436600461244c565b610958565b604080516001600160a01b039093168352602083019190915201610235565b34801561034457600080fd5b506102cb6103533660046123df565b6109ad565b6102b86103663660046123df565b610a43565b34801561037757600080fd5b506102b861038636600461240b565b610eae565b34801561039757600080fd5b506102cb6103a63660046123b1565b610ec9565b3480156103b757600080fd5b506102b86103c6366004612536565b610f5c565b3480156103d757600080fd5b506102806103e63660046123b1565b610f9d565b3480156103f757600080fd5b506102cb611014565b34801561040c57600080fd5b506102cb61041b36600461257f565b611067565b34801561042c57600080fd5b506102b86110ee565b34801561044157600080fd5b506102b861045036600461259c565b611124565b34801561046157600080fd5b506102b86104703660046123df565b6111c5565b34801561048157600080fd5b50600a546001600160a01b0316610280565b34801561049f57600080fd5b506102536111f9565b3480156104b457600080fd5b506102b8611208565b3480156104c957600080fd5b506102b86104d8366004612680565b611261565b3480156104e957600080fd5b506102296104f83660046123df565b601160209081526000928352604080842090915290825290205460ff1681565b34801561052457600080fd5b506102b86105333660046126b9565b61126c565b34801561054457600080fd5b506102b86105533660046126d6565b6112a9565b34801561056457600080fd5b506102cb61057336600461257f565b600f6020526000908152604090205481565b34801561059157600080fd5b506102536105a03660046123b1565b6112e1565b3480156105b157600080fd5b506102296113bc565b3480156105c657600080fd5b506102cb7f000000000000000000000000000000000000000000000000000000000000000081565b3480156105fa57600080fd5b50610253611412565b34801561060f57600080fd5b5061022961061e366004612756565b6001600160a01b03918216600090815260056020908152604080832093909416825291909152205460ff1690565b34801561065857600080fd5b506103196106673660046123b1565b601060205260009081526040902080546001909101546001600160a01b039091169082565b34801561069857600080fd5b506102b86106a736600461257f565b611465565b3480156106b857600080fd5b506102b86106c73660046123b1565b6114fd565b6102b861152c565b60006106df826115ab565b92915050565b6060600080546106f490612784565b80601f016020809104026020016040519081016040528092919081815260200182805461072090612784565b801561076d5780601f106107425761010080835404028352916020019161076d565b820191906000526020600020905b81548152906001019060200180831161075057829003601f168201915b5050505050905090565b6000818152600260205260408120546001600160a01b03166107f55760405162461bcd60e51b815260206004820152602c60248201527f4552433732313a20617070726f76656420717565727920666f72206e6f6e657860448201526b34b9ba32b73a103a37b5b2b760a11b60648201526084015b60405180910390fd5b506000908152600460205260409020546001600160a01b031690565b600061081c82610f9d565b9050806001600160a01b0316836001600160a01b0316141561088a5760405162461bcd60e51b815260206004820152602160248201527f4552433732313a20617070726f76616c20746f2063757272656e74206f776e656044820152603960f91b60648201526084016107ec565b336001600160a01b03821614806108a657506108a6813361061e565b6109185760405162461bcd60e51b815260206004820152603860248201527f4552433732313a20617070726f76652063616c6c6572206973206e6f74206f7760448201527f6e6572206e6f7220617070726f76656420666f7220616c6c000000000000000060648201526084016107ec565b61092283836115d0565b505050565b610931338261163e565b61094d5760405162461bcd60e51b81526004016107ec906127bf565b610922838383611735565b60408051808201909152600b546001600160a01b038116808352600160a01b90910462ffffff16602083018190529091600091612710906109999086612826565b6109a3919061285b565b9150509250929050565b60006109b883611067565b8210610a1a5760405162461bcd60e51b815260206004820152602b60248201527f455243373231456e756d657261626c653a206f776e657220696e646578206f7560448201526a74206f6620626f756e647360a81b60648201526084016107ec565b506001600160a01b03919091166000908152600660209081526040808320938352929052205490565b610a4b6113bc565b610a905760405162461bcd60e51b8152602060048201526016602482015275135a5b9d1a5b99c81a5cc81b9bdd08195b98589b195960521b60448201526064016107ec565b7f0000000000000000000000000000000000000000000000000000000000000000610aba60085490565b10610afd5760405162461bcd60e51b815260206004820152601360248201527214dd5c1c1b1e481a5cc8195e1a185d5cdd1959606a1b60448201526064016107ec565b6001600160a01b038216600090815260116020908152604080832084845290915290205460ff1615610b715760405162461bcd60e51b815260206004820152601d60248201527f5468697320746f6b656e2077617320616c7265616479206d696e74656400000060448201526064016107ec565b610b79611014565b341015610bc85760405162461bcd60e51b815260206004820152601b60248201527f496e73756666696369656e742076616c756520666f72206d696e74000000000060448201526064016107ec565b610be26001600160a01b0383166380ac58cd60e01b6118e0565b15610cbc576040516331a9108f60e11b81526004810182905233906001600160a01b03841690636352211e9060240160206040518083038186803b158015610c2957600080fd5b505afa158015610c3d573d6000803e3d6000fd5b505050506040513d601f19601f82011682018060405250810190610c61919061286f565b6001600160a01b031614610cb75760405162461bcd60e51b815260206004820181905260248201527f596f7520646f206e6f74206f776e207468697320736f7572636520746f6b656e60448201526064016107ec565b610da7565b610cd66001600160a01b038316636cdb3d1360e11b6118e0565b15610da757604051627eeac760e11b8152336004820152602481018290526000906001600160a01b0384169062fdd58e9060440160206040518083038186803b158015610d2257600080fd5b505afa158015610d36573d6000803e3d6000fd5b505050506040513d601f19601f82011682018060405250810190610d5a919061288c565b11610da75760405162461bcd60e51b815260206004820181905260248201527f596f7520646f206e6f74206f776e207468697320736f7572636520746f6b656e60448201526064016107ec565b6000610db260085490565b336000908152600f602052604090205490915015610df057336000908152600f60205260408120805460019290610dea9084906128a5565b90915550505b610dfa33826118fc565b6040805180820182526001600160a01b038581168083526020808401878152600087815260108352868120865181546001600160a01b0319169087161781558251600191820155938152601183528681208982528352869020805460ff1916909317909255845184519093168352905190820152918201839052336060830152907f670e7290204c50f0ab4452d3e4a7534e1e511f6098ad647a5f9e2727356a01489060800160405180910390a150505050565b610922838383604051806020016040528060008152506112a9565b6000610ed460085490565b8210610f375760405162461bcd60e51b815260206004820152602c60248201527f455243373231456e756d657261626c653a20676c6f62616c20696e646578206f60448201526b7574206f6620626f756e647360a01b60648201526084016107ec565b60088281548110610f4a57610f4a6128bc565b90600052602060002001549050919050565b600a546001600160a01b03163314610f865760405162461bcd60e51b81526004016107ec906128d2565b8051610f9990600e90602084019061227a565b5050565b6000818152600260205260408120546001600160a01b0316806106df5760405162461bcd60e51b815260206004820152602960248201527f4552433732313a206f776e657220717565727920666f72206e6f6e657869737460448201526832b73a103a37b5b2b760b91b60648201526084016107ec565b6000611028600a546001600160a01b031690565b6001600160a01b0316336001600160a01b031614806110555750336000908152600f602052604090205415155b156110605750600090565b50600c5490565b60006001600160a01b0382166110d25760405162461bcd60e51b815260206004820152602a60248201527f4552433732313a2062616c616e636520717565727920666f7220746865207a65604482015269726f206164647265737360b01b60648201526084016107ec565b506001600160a01b031660009081526003602052604090205490565b600a546001600160a01b031633146111185760405162461bcd60e51b81526004016107ec906128d2565b6111226000611916565b565b600a546001600160a01b0316331461114e5760405162461bcd60e51b81526004016107ec906128d2565b60005b8151811015610f995781818151811061116c5761116c6128bc565b602002602001015160200151600f600084848151811061118e5761118e6128bc565b602090810291909101810151516001600160a01b0316825281019190915260400160002055806111bd81612907565b915050611151565b600a546001600160a01b031633146111ef5760405162461bcd60e51b81526004016107ec906128d2565b610f998282611968565b6060600180546106f490612784565b600a546001600160a01b031633146112325760405162461bcd60e51b81526004016107ec906128d2565b60405133904780156108fc02916000818181858888f1935050505015801561125e573d6000803e3d6000fd5b50565b610f99338383611a04565b600a546001600160a01b031633146112965760405162461bcd60e51b81526004016107ec906128d2565b600d805460ff1916911515919091179055565b6112b3338361163e565b6112cf5760405162461bcd60e51b81526004016107ec906127bf565b6112db84848484611ad3565b50505050565b6000818152600260205260409020546060906001600160a01b03166113605760405162461bcd60e51b815260206004820152602f60248201527f4552433732314d657461646174613a2055524920717565727920666f72206e6f60448201526e3732bc34b9ba32b73a103a37b5b2b760891b60648201526084016107ec565b600061136a611b06565b9050600081511161138a57604051806020016040528060008152506113b5565b8061139484611b15565b6040516020016113a5929190612922565b6040516020818303038152906040525b9392505050565b60006113d0600a546001600160a01b031690565b6001600160a01b0316336001600160a01b031614806113fd5750336000908152600f602052604090205415155b156114085750600190565b50600d5460ff1690565b6060600061141e611b06565b9050600081511161143e576040518060200160405280600081525061145f565b8060405160200161144f9190612951565b6040516020818303038152906040525b91505090565b600a546001600160a01b0316331461148f5760405162461bcd60e51b81526004016107ec906128d2565b6001600160a01b0381166114f45760405162461bcd60e51b815260206004820152602660248201527f4f776e61626c653a206e6577206f776e657220697320746865207a65726f206160448201526564647265737360d01b60648201526084016107ec565b61125e81611916565b600a546001600160a01b031633146115275760405162461bcd60e51b81526004016107ec906128d2565b600c55565b600034116115715760405162461bcd60e51b8152602060048201526012602482015271496e73756666696369656e742076616c756560701b60448201526064016107ec565b604080513381523460208201527fa4cf3ada86a3fccf5f0429f5f8dcac085349231b6700d053945bd0292f222744910160405180910390a1565b60006001600160e01b0319821663152a902d60e11b14806106df57506106df82611c13565b600081815260046020526040902080546001600160a01b0319166001600160a01b038416908117909155819061160582610f9d565b6001600160a01b03167f8c5be1e5ebec7d5bd14f71427d1e84f3dd0314c0f7b2291e5b200ac8c7c3b92560405160405180910390a45050565b6000818152600260205260408120546001600160a01b03166116b75760405162461bcd60e51b815260206004820152602c60248201527f4552433732313a206f70657261746f7220717565727920666f72206e6f6e657860448201526b34b9ba32b73a103a37b5b2b760a11b60648201526084016107ec565b60006116c283610f9d565b9050806001600160a01b0316846001600160a01b031614806116fd5750836001600160a01b03166116f284610777565b6001600160a01b0316145b8061172d57506001600160a01b0380821660009081526005602090815260408083209388168352929052205460ff165b949350505050565b826001600160a01b031661174882610f9d565b6001600160a01b0316146117b05760405162461bcd60e51b815260206004820152602960248201527f4552433732313a207472616e73666572206f6620746f6b656e2074686174206960448201526839903737ba1037bbb760b91b60648201526084016107ec565b6001600160a01b0382166118125760405162461bcd60e51b8152602060048201526024808201527f4552433732313a207472616e7366657220746f20746865207a65726f206164646044820152637265737360e01b60648201526084016107ec565b61181d838383611c38565b6118286000826115d0565b6001600160a01b03831660009081526003602052604081208054600192906118519084906128a5565b90915550506001600160a01b038216600090815260036020526040812080546001929061187f908490612982565b909155505060008181526002602052604080822080546001600160a01b0319166001600160a01b0386811691821790925591518493918716917fddf252ad1be2c89b69c2b068fc378daa952ba7f163c4a11628f55a4df523b3ef91a4505050565b60006118eb83611cf0565b80156113b557506113b58383611d23565b610f99828260405180602001604052806000815250611e0c565b600a80546001600160a01b038381166001600160a01b0319831681179093556040519116919082907f8be0079c531659141344cd1fd0a4f28419497f9722a3daafe3b4186f6b6457e090600090a35050565b6127108111156119ba5760405162461bcd60e51b815260206004820152601a60248201527f45524332393831526f79616c746965733a20546f6f206869676800000000000060448201526064016107ec565b604080518082019091526001600160a01b0390921680835262ffffff9091166020909201829052600b8054600160a01b9093026001600160b81b0319909316909117919091179055565b816001600160a01b0316836001600160a01b03161415611a665760405162461bcd60e51b815260206004820152601960248201527f4552433732313a20617070726f766520746f2063616c6c65720000000000000060448201526064016107ec565b6001600160a01b03838116600081815260056020908152604080832094871680845294825291829020805460ff191686151590811790915591519182527f17307eab39ab6107e8899845ad3d59bd9653f200f220920489ca2b5937696c31910160405180910390a3505050565b611ade848484611735565b611aea84848484611e3f565b6112db5760405162461bcd60e51b81526004016107ec9061299a565b6060600e80546106f490612784565b606081611b395750506040805180820190915260018152600360fc1b602082015290565b8160005b8115611b635780611b4d81612907565b9150611b5c9050600a8361285b565b9150611b3d565b60008167ffffffffffffffff811115611b7e57611b7e61246e565b6040519080825280601f01601f191660200182016040528015611ba8576020820181803683370190505b5090505b841561172d57611bbd6001836128a5565b9150611bca600a866129ec565b611bd5906030612982565b60f81b818381518110611bea57611bea6128bc565b60200101906001600160f81b031916908160001a905350611c0c600a8661285b565b9450611bac565b60006001600160e01b0319821663780e9d6360e01b14806106df57506106df82611f4c565b6001600160a01b038316611c9357611c8e81600880546000838152600960205260408120829055600182018355919091527ff3f7a9fe364faab93b216da50a3214154f22a0a2b415b23a84c8169e8b636ee30155565b611cb6565b816001600160a01b0316836001600160a01b031614611cb657611cb68382611f9c565b6001600160a01b038216611ccd5761092281612039565b826001600160a01b0316826001600160a01b0316146109225761092282826120e8565b6000611d03826301ffc9a760e01b611d23565b80156106df5750611d1c826001600160e01b0319611d23565b1592915050565b604080516001600160e01b0319831660248083019190915282518083039091018152604490910182526020810180516001600160e01b03166301ffc9a760e01b179052905160009190829081906001600160a01b0387169061753090611d8a908690612a00565b6000604051808303818686fa925050503d8060008114611dc6576040519150601f19603f3d011682016040523d82523d6000602084013e611dcb565b606091505b5091509150602081511015611de657600093505050506106df565b818015611e02575080806020019051810190611e029190612a1c565b9695505050505050565b611e16838361212c565b611e236000848484611e3f565b6109225760405162461bcd60e51b81526004016107ec9061299a565b60006001600160a01b0384163b15611f4157604051630a85bd0160e11b81526001600160a01b0385169063150b7a0290611e83903390899088908890600401612a39565b602060405180830381600087803b158015611e9d57600080fd5b505af1925050508015611ecd575060408051601f3d908101601f19168201909252611eca91810190612a6c565b60015b611f27573d808015611efb576040519150601f19603f3d011682016040523d82523d6000602084013e611f00565b606091505b508051611f1f5760405162461bcd60e51b81526004016107ec9061299a565b805181602001fd5b6001600160e01b031916630a85bd0160e11b14905061172d565b506001949350505050565b60006001600160e01b031982166380ac58cd60e01b1480611f7d57506001600160e01b03198216635b5e139f60e01b145b806106df57506301ffc9a760e01b6001600160e01b03198316146106df565b60006001611fa984611067565b611fb391906128a5565b600083815260076020526040902054909150808214612006576001600160a01b03841660009081526006602090815260408083208584528252808320548484528184208190558352600790915290208190555b5060009182526007602090815260408084208490556001600160a01b039094168352600681528383209183525290812055565b60085460009061204b906001906128a5565b60008381526009602052604081205460088054939450909284908110612073576120736128bc565b906000526020600020015490508060088381548110612094576120946128bc565b60009182526020808320909101929092558281526009909152604080822084905585825281205560088054806120cc576120cc612a89565b6001900381819060005260206000200160009055905550505050565b60006120f383611067565b6001600160a01b039093166000908152600660209081526040808320868452825280832085905593825260079052919091209190915550565b6001600160a01b0382166121825760405162461bcd60e51b815260206004820181905260248201527f4552433732313a206d696e7420746f20746865207a65726f206164647265737360448201526064016107ec565b6000818152600260205260409020546001600160a01b0316156121e75760405162461bcd60e51b815260206004820152601c60248201527f4552433732313a20746f6b656e20616c7265616479206d696e7465640000000060448201526064016107ec565b6121f360008383611c38565b6001600160a01b038216600090815260036020526040812080546001929061221c908490612982565b909155505060008181526002602052604080822080546001600160a01b0319166001600160a01b03861690811790915590518392907fddf252ad1be2c89b69c2b068fc378daa952ba7f163c4a11628f55a4df523b3ef908290a45050565b82805461228690612784565b90600052602060002090601f0160209004810192826122a857600085556122ee565b82601f106122c157805160ff19168380011785556122ee565b828001600101855582156122ee579182015b828111156122ee5782518255916020019190600101906122d3565b506122fa9291506122fe565b5090565b5b808211156122fa57600081556001016122ff565b6001600160e01b03198116811461125e57600080fd5b60006020828403121561233b57600080fd5b81356113b581612313565b60005b83811015612361578181015183820152602001612349565b838111156112db5750506000910152565b6000815180845261238a816020860160208601612346565b601f01601f19169290920160200192915050565b6020815260006113b56020830184612372565b6000602082840312156123c357600080fd5b5035919050565b6001600160a01b038116811461125e57600080fd5b600080604083850312156123f257600080fd5b82356123fd816123ca565b946020939093013593505050565b60008060006060848603121561242057600080fd5b833561242b816123ca565b9250602084013561243b816123ca565b929592945050506040919091013590565b6000806040838503121561245f57600080fd5b50508035926020909101359150565b634e487b7160e01b600052604160045260246000fd5b6040805190810167ffffffffffffffff811182821017156124a7576124a761246e565b60405290565b604051601f8201601f1916810167ffffffffffffffff811182821017156124d6576124d661246e565b604052919050565b600067ffffffffffffffff8311156124f8576124f861246e565b61250b601f8401601f19166020016124ad565b905082815283838301111561251f57600080fd5b828260208301376000602084830101529392505050565b60006020828403121561254857600080fd5b813567ffffffffffffffff81111561255f57600080fd5b8201601f8101841361257057600080fd5b61172d848235602084016124de565b60006020828403121561259157600080fd5b81356113b5816123ca565b600060208083850312156125af57600080fd5b823567ffffffffffffffff808211156125c757600080fd5b818501915085601f8301126125db57600080fd5b8135818111156125ed576125ed61246e565b6125fb848260051b016124ad565b818152848101925060069190911b83018401908782111561261b57600080fd5b928401925b8184101561266757604084890312156126395760008081fd5b612641612484565b843561264c816123ca565b81528486013586820152835260409093019291840191612620565b979650505050505050565b801515811461125e57600080fd5b6000806040838503121561269357600080fd5b823561269e816123ca565b915060208301356126ae81612672565b809150509250929050565b6000602082840312156126cb57600080fd5b81356113b581612672565b600080600080608085870312156126ec57600080fd5b84356126f7816123ca565b93506020850135612707816123ca565b925060408501359150606085013567ffffffffffffffff81111561272a57600080fd5b8501601f8101871361273b57600080fd5b61274a878235602084016124de565b91505092959194509250565b6000806040838503121561276957600080fd5b8235612774816123ca565b915060208301356126ae816123ca565b600181811c9082168061279857607f821691505b602082108114156127b957634e487b7160e01b600052602260045260246000fd5b50919050565b60208082526031908201527f4552433732313a207472616e736665722063616c6c6572206973206e6f74206f6040820152701ddb995c881b9bdc88185c1c1c9bdd9959607a1b606082015260800190565b634e487b7160e01b600052601160045260246000fd5b600081600019048311821515161561284057612840612810565b500290565b634e487b7160e01b600052601260045260246000fd5b60008261286a5761286a612845565b500490565b60006020828403121561288157600080fd5b81516113b5816123ca565b60006020828403121561289e57600080fd5b5051919050565b6000828210156128b7576128b7612810565b500390565b634e487b7160e01b600052603260045260246000fd5b6020808252818101527f4f776e61626c653a2063616c6c6572206973206e6f7420746865206f776e6572604082015260600190565b600060001982141561291b5761291b612810565b5060010190565b60008351612934818460208801612346565b835190830190612948818360208801612346565b01949350505050565b60008251612963818460208701612346565b6c31b7b73a3930b1ba173539b7b760991b920191825250600d01919050565b6000821982111561299557612995612810565b500190565b60208082526032908201527f4552433732313a207472616e7366657220746f206e6f6e20455243373231526560408201527131b2b4bb32b91034b6b83632b6b2b73a32b960711b606082015260800190565b6000826129fb576129fb612845565b500690565b60008251612a12818460208701612346565b9190910192915050565b600060208284031215612a2e57600080fd5b81516113b581612672565b6001600160a01b0385811682528416602082015260408101839052608060608201819052600090611e0290830184612372565b600060208284031215612a7e57600080fd5b81516113b581612313565b634e487b7160e01b600052603160045260246000fdfea2646970667358221220889dacf1050aa56f2f49219caeeb4ba1ffc6981dfb61bd825934b0e74dc2802a64736f6c634300080900334f776e61626c653a2063616c6c6572206973206e6f7420746865206f776e6572",
  "linkReferences": {},
  "deployedLinkReferences": {}
}