{
  "_format": "hh-sol-artifact-1",
  "contractName": "Assemblage",
  "sourceName": "contracts/Assemblage.sol",
  "abi": [
    {
      "inputs": [
        {
          "internalType": "string",
          "name": "_initialBaseURI",
          "type": "string"
        },
        {
          "components": [
            {
              "internalType": "address",
              "name": "minter",
              "type": "address"
            },
            {
              "internalType": "uint256",
              "name": "amount",
              "type": "uint256"
            }
          ],
          "internalType": "struct Assemblage.FreemintItem[]",
          "name": "_initialFreemints",
          "type": "tuple[]"
        }
      ],
      "stateMutability": "nonpayable",
      "type": "constructor"
    },
    {
      "anonymous": false,
      "inputs": [
        {
          "indexed": true,
          "internalType": "address",
          "name": "owner",
          "type": "address"
        },
        {
          "indexed": true,
          "internalType": "address",
          "name": "approved",
          "type": "address"
        },
        {
          "indexed": true,
          "internalType": "uint256",
          "name": "tokenId",
          "type": "uint256"
        }
      ],
      "name": "Approval",
      "type": "event"
    },
    {
      "anonymous": false,
      "inputs": [
        {
          "indexed": true,
          "internalType": "address",
          "name": "owner",
          "type": "address"
        },
        {
          "indexed": true,
          "internalType": "address",
          "name": "operator",
          "type": "address"
        },
        {
          "indexed": false,
          "internalType": "bool",
          "name": "approved",
          "type": "bool"
        }
      ],
      "name": "ApprovalForAll",
      "type": "event"
    },
    {
      "anonymous": false,
      "inputs": [
        {
          "indexed": true,
          "internalType": "address",
          "name": "previousOwner",
          "type": "address"
        },
        {
          "indexed": true,
          "internalType": "address",
          "name": "newOwner",
          "type": "address"
        }
      ],
      "name": "OwnershipTransferred",
      "type": "event"
    },
    {
      "anonymous": false,
      "inputs": [
        {
          "indexed": false,
          "internalType": "address",
          "name": "from",
          "type": "address"
        },
        {
          "indexed": false,
          "internalType": "uint256",
          "name": "amount",
          "type": "uint256"
        }
      ],
      "name": "PrintOrdered",
      "type": "event"
    },
    {
      "anonymous": false,
      "inputs": [
        {
          "components": [
            {
              "internalType": "address",
              "name": "sourceContract",
              "type": "address"
            },
            {
              "internalType": "uint256",
              "name": "sourceTokenId",
              "type": "uint256"
            }
          ],
          "indexed": false,
          "internalType": "struct Assemblage.SourceToken",
          "name": "",
          "type": "tuple"
        },
        {
          "indexed": false,
          "internalType": "uint256",
          "name": "tokenId",
          "type": "uint256"
        },
        {
          "indexed": false,
          "internalType": "address",
          "name": "to",
          "type": "address"
        }
      ],
      "name": "SourceTokenMinted",
      "type": "event"
    },
    {
      "anonymous": false,
      "inputs": [
        {
          "indexed": true,
          "internalType": "address",
          "name": "from",
          "type": "address"
        },
        {
          "indexed": true,
          "internalType": "address",
          "name": "to",
          "type": "address"
        },
        {
          "indexed": true,
          "internalType": "uint256",
          "name": "tokenId",
          "type": "uint256"
        }
      ],
      "name": "Transfer",
      "type": "event"
    },
    {
      "inputs": [
        {
          "internalType": "address",
          "name": "to",
          "type": "address"
        },
        {
          "internalType": "uint256",
          "name": "tokenId",
          "type": "uint256"
        }
      ],
      "name": "approve",
      "outputs": [],
      "stateMutability": "nonpayable",
      "type": "function"
    },
    {
      "inputs": [
        {
          "internalType": "address",
          "name": "owner",
          "type": "address"
        }
      ],
      "name": "balanceOf",
      "outputs": [
        {
          "internalType": "uint256",
          "name": "",
          "type": "uint256"
        }
      ],
      "stateMutability": "view",
      "type": "function"
    },
    {
      "inputs": [],
      "name": "contractURI",
      "outputs": [
        {
          "internalType": "string",
          "name": "",
          "type": "string"
        }
      ],
      "stateMutability": "view",
      "type": "function"
    },
    {
      "inputs": [
        {
          "internalType": "address",
          "name": "",
          "type": "address"
        }
      ],
      "name": "freemints",
      "outputs": [
        {
          "internalType": "uint256",
          "name": "",
          "type": "uint256"
        }
      ],
      "stateMutability": "view",
      "type": "function"
    },
    {
      "inputs": [
        {
          "internalType": "uint256",
          "name": "tokenId",
          "type": "uint256"
        }
      ],
      "name": "getApproved",
      "outputs": [
        {
          "internalType": "address",
          "name": "",
          "type": "address"
        }
      ],
      "stateMutability": "view",
      "type": "function"
    },
    {
      "inputs": [
        {
          "internalType": "address",
          "name": "owner",
          "type": "address"
        },
        {
          "internalType": "address",
          "name": "operator",
          "type": "address"
        }
      ],
      "name": "isApprovedForAll",
      "outputs": [
        {
          "internalType": "bool",
          "name": "",
          "type": "bool"
        }
      ],
      "stateMutability": "view",
      "type": "function"
    },
    {
      "inputs": [],
      "name": "maxSupply",
      "outputs": [
        {
          "internalType": "uint256",
          "name": "",
          "type": "uint256"
        }
      ],
      "stateMutability": "view",
      "type": "function"
    },
    {
      "inputs": [
        {
          "internalType": "address",
          "name": "sourceContract",
          "type": "address"
        },
        {
          "internalType": "uint256",
          "name": "sourceTokenId",
          "type": "uint256"
        }
      ],
      "name": "mint",
      "outputs": [],
      "stateMutability": "payable",
      "type": "function"
    },
    {
      "inputs": [],
      "name": "mintEnabled",
      "outputs": [
        {
          "internalType": "bool",
          "name": "",
          "type": "bool"
        }
      ],
      "stateMutability": "view",
      "type": "function"
    },
    {
      "inputs": [],
      "name": "mintPrice",
      "outputs": [
        {
          "internalType": "uint256",
          "name": "",
          "type": "uint256"
        }
      ],
      "stateMutability": "view",
      "type": "function"
    },
    {
      "inputs": [],
      "name": "name",
      "outputs": [
        {
          "internalType": "string",
          "name": "",
          "type": "string"
        }
      ],
      "stateMutability": "view",
      "type": "function"
    },
    {
      "inputs": [],
      "name": "orderPrints",
      "outputs": [],
      "stateMutability": "payable",
      "type": "function"
    },
    {
      "inputs": [],
      "name": "owner",
      "outputs": [
        {
          "internalType": "address",
          "name": "",
          "type": "address"
        }
      ],
      "stateMutability": "view",
      "type": "function"
    },
    {
      "inputs": [
        {
          "internalType": "uint256",
          "name": "tokenId",
          "type": "uint256"
        }
      ],
      "name": "ownerOf",
      "outputs": [
        {
          "internalType": "address",
          "name": "",
          "type": "address"
        }
      ],
      "stateMutability": "view",
      "type": "function"
    },
    {
      "inputs": [],
      "name": "renounceOwnership",
      "outputs": [],
      "stateMutability": "nonpayable",
      "type": "function"
    },
    {
      "inputs": [
        {
          "internalType": "uint256",
          "name": "",
          "type": "uint256"
        },
        {
          "internalType": "uint256",
          "name": "_salePrice",
          "type": "uint256"
        }
      ],
      "name": "royaltyInfo",
      "outputs": [
        {
          "internalType": "address",
          "name": "receiver",
          "type": "address"
        },
        {
          "internalType": "uint256",
          "name": "royaltyAmount",
          "type": "uint256"
        }
      ],
      "stateMutability": "view",
      "type": "function"
    },
    {
      "inputs": [
        {
          "internalType": "address",
          "name": "from",
          "type": "address"
        },
        {
          "internalType": "address",
          "name": "to",
          "type": "address"
        },
        {
          "internalType": "uint256",
          "name": "tokenId",
          "type": "uint256"
        }
      ],
      "name": "safeTransferFrom",
      "outputs": [],
      "stateMutability": "nonpayable",
      "type": "function"
    },
    {
      "inputs": [
        {
          "internalType": "address",
          "name": "from",
          "type": "address"
        },
        {
          "internalType": "address",
          "name": "to",
          "type": "address"
        },
        {
          "internalType": "uint256",
          "name": "tokenId",
          "type": "uint256"
        },
        {
          "internalType": "bytes",
          "name": "_data",
          "type": "bytes"
        }
      ],
      "name": "safeTransferFrom",
      "outputs": [],
      "stateMutability": "nonpayable",
      "type": "function"
    },
    {
      "inputs": [
        {
          "internalType": "address",
          "name": "operator",
          "type": "address"
        },
        {
          "internalType": "bool",
          "name": "approved",
          "type": "bool"
        }
      ],
      "name": "setApprovalForAll",
      "outputs": [],
      "stateMutability": "nonpayable",
      "type": "function"
    },
    {
      "inputs": [
        {
          "internalType": "string",
          "name": "newBaseURI",
          "type": "string"
        }
      ],
      "name": "setBaseURI",
      "outputs": [],
      "stateMutability": "nonpayable",
      "type": "function"
    },
    {
      "inputs": [
        {
          "internalType": "address[]",
          "name": "_array",
          "type": "address[]"
        }
      ],
      "name": "setFreemintAddresses",
      "outputs": [],
      "stateMutability": "nonpayable",
      "type": "function"
    },
    {
      "inputs": [
        {
          "components": [
            {
              "internalType": "address",
              "name": "minter",
              "type": "address"
            },
            {
              "internalType": "uint256",
              "name": "amount",
              "type": "uint256"
            }
          ],
          "internalType": "struct Assemblage.FreemintItem[]",
          "name": "_array",
          "type": "tuple[]"
        }
      ],
      "name": "setFreemints",
      "outputs": [],
      "stateMutability": "nonpayable",
      "type": "function"
    },
    {
      "inputs": [
        {
          "internalType": "uint256",
          "name": "newMintPrice",
          "type": "uint256"
        }
      ],
      "name": "setMintPrice",
      "outputs": [],
      "stateMutability": "nonpayable",
      "type": "function"
    },
    {
      "inputs": [
        {
          "internalType": "bool",
          "name": "newMintingState",
          "type": "bool"
        }
      ],
      "name": "setMinting",
      "outputs": [],
      "stateMutability": "nonpayable",
      "type": "function"
    },
    {
      "inputs": [
        {
          "internalType": "uint256",
          "name": "amount",
          "type": "uint256"
        }
      ],
      "name": "setRoyaltyAmount",
      "outputs": [],
      "stateMutability": "nonpayable",
      "type": "function"
    },
    {
      "inputs": [
        {
          "internalType": "address",
          "name": "",
          "type": "address"
        },
        {
          "internalType": "uint256",
          "name": "",
          "type": "uint256"
        }
      ],
      "name": "sourceTokenMinted",
      "outputs": [
        {
          "internalType": "bool",
          "name": "",
          "type": "bool"
        }
      ],
      "stateMutability": "view",
      "type": "function"
    },
    {
      "inputs": [
        {
          "internalType": "uint256",
          "name": "",
          "type": "uint256"
        }
      ],
      "name": "sourceTokens",
      "outputs": [
        {
          "internalType": "address",
          "name": "sourceContract",
          "type": "address"
        },
        {
          "internalType": "uint256",
          "name": "sourceTokenId",
          "type": "uint256"
        }
      ],
      "stateMutability": "view",
      "type": "function"
    },
    {
      "inputs": [
        {
          "internalType": "bytes4",
          "name": "interfaceId",
          "type": "bytes4"
        }
      ],
      "name": "supportsInterface",
      "outputs": [
        {
          "internalType": "bool",
          "name": "",
          "type": "bool"
        }
      ],
      "stateMutability": "view",
      "type": "function"
    },
    {
      "inputs": [],
      "name": "symbol",
      "outputs": [
        {
          "internalType": "string",
          "name": "",
          "type": "string"
        }
      ],
      "stateMutability": "view",
      "type": "function"
    },
    {
      "inputs": [
        {
          "internalType": "uint256",
          "name": "index",
          "type": "uint256"
        }
      ],
      "name": "tokenByIndex",
      "outputs": [
        {
          "internalType": "uint256",
          "name": "",
          "type": "uint256"
        }
      ],
      "stateMutability": "view",
      "type": "function"
    },
    {
      "inputs": [
        {
          "internalType": "address",
          "name": "owner",
          "type": "address"
        },
        {
          "internalType": "uint256",
          "name": "index",
          "type": "uint256"
        }
      ],
      "name": "tokenOfOwnerByIndex",
      "outputs": [
        {
          "internalType": "uint256",
          "name": "",
          "type": "uint256"
        }
      ],
      "stateMutability": "view",
      "type": "function"
    },
    {
      "inputs": [
        {
          "internalType": "uint256",
          "name": "tokenId",
          "type": "uint256"
        }
      ],
      "name": "tokenURI",
      "outputs": [
        {
          "internalType": "string",
          "name": "",
          "type": "string"
        }
      ],
      "stateMutability": "view",
      "type": "function"
    },
    {
      "inputs": [],
      "name": "totalSupply",
      "outputs": [
        {
          "internalType": "uint256",
          "name": "",
          "type": "uint256"
        }
      ],
      "stateMutability": "view",
      "type": "function"
    },
    {
      "inputs": [
        {
          "internalType": "address",
          "name": "from",
          "type": "address"
        },
        {
          "internalType": "address",
          "name": "to",
          "type": "address"
        },
        {
          "internalType": "uint256",
          "name": "tokenId",
          "type": "uint256"
        }
      ],
      "name": "transferFrom",
      "outputs": [],
      "stateMutability": "nonpayable",
      "type": "function"
    },
    {
      "inputs": [
        {
          "internalType": "address",
          "name": "newOwner",
          "type": "address"
        }
      ],
      "name": "transferOwnership",
      "outputs": [],
      "stateMutability": "nonpayable",
      "type": "function"
    },
    {
      "inputs": [],
      "name": "withdrawEth",
      "outputs": [],
      "stateMutability": "nonpayable",
      "type": "function"
    }
  ],
  "bytecode": "0x60a06040523480156200001157600080fd5b50604051620030dd380380620030dd833981016040819052620000349162000419565b604080518082018252600a815269417373656d626c61676560b01b60208083019182528351808501909452600384526210509360ea1b908401528151919291620000819160009162000239565b5080516200009790600190602084019062000239565b505050620000b4620000ae620000ff60201b60201c565b62000103565b8151620000c990600d90602085019062000239565b5067011c37937e080000600b55600c805460ff19169055610302600e55611ef1608052620000f78162000155565b50506200057b565b3390565b600a80546001600160a01b038381166001600160a01b0319831681179093556040519116919082907f8be0079c531659141344cd1fd0a4f28419497f9722a3daafe3b4186f6b6457e090600090a35050565b600a546001600160a01b03163314620001b45760405162461bcd60e51b815260206004820181905260248201527f4f776e61626c653a2063616c6c6572206973206e6f7420746865206f776e6572604482015260640160405180910390fd5b60005b81518110156200023557818181518110620001d657620001d6620004fe565b602002602001015160200151600f6000848481518110620001fb57620001fb620004fe565b602090810291909101810151516001600160a01b0316825281019190915260400160002055806200022c8162000514565b915050620001b7565b5050565b82805462000247906200053e565b90600052602060002090601f0160209004810192826200026b5760008555620002b6565b82601f106200028657805160ff1916838001178555620002b6565b82800160010185558215620002b6579182015b82811115620002b657825182559160200191906001019062000299565b50620002c4929150620002c8565b5090565b5b80821115620002c45760008155600101620002c9565b634e487b7160e01b600052604160045260246000fd5b604080519081016001600160401b03811182821017156200031a576200031a620002df565b60405290565b604051601f8201601f191681016001600160401b03811182821017156200034b576200034b620002df565b604052919050565b600082601f8301126200036557600080fd5b815160206001600160401b03821115620003835762000383620002df565b62000393818360051b0162000320565b82815260069290921b84018101918181019086841115620003b357600080fd5b8286015b848110156200040e5760408189031215620003d25760008081fd5b620003dc620002f5565b81516001600160a01b0381168114620003f55760008081fd5b81528185015185820152835291830191604001620003b7565b509695505050505050565b600080604083850312156200042d57600080fd5b82516001600160401b03808211156200044557600080fd5b818501915085601f8301126200045a57600080fd5b8151818111156200046f576200046f620002df565b602062000485601f8301601f1916820162000320565b82815288828487010111156200049a57600080fd5b60005b83811015620004ba5785810183015182820184015282016200049d565b83811115620004cc5760008385840101525b509087015190955092505080821115620004e557600080fd5b50620004f48582860162000353565b9150509250929050565b634e487b7160e01b600052603260045260246000fd5b60006000198214156200053757634e487b7160e01b600052601160045260246000fd5b5060010190565b600181811c908216806200055357607f821691505b602082108114156200057557634e487b7160e01b600052602260045260246000fd5b50919050565b608051612b3f6200059e600039600081816105f70152610b4d0152612b3f6000f3fe60806040526004361061020f5760003560e01c8063839983e211610118578063c87b56dd116100a0578063e985e9c51161006f578063e985e9c51461062e578063eb53ef5214610677578063f2fde38b146106b7578063f4a0a528146106d7578063f70429de146106f757600080fd5b8063c87b56dd146105b0578063d1239730146105d0578063d5abeb01146105e5578063e8a3d4851461061957600080fd5b8063a22cb465116100e7578063a22cb465146104e8578063aff810e714610508578063b4c7f06614610543578063b88d4fde14610563578063bfacda061461058357600080fd5b8063839983e2146104805780638da5cb5b146104a057806395d89b41146104be578063a0ef91df146104d357600080fd5b806340c10f191161019b57806355f804b31161016a57806355f804b3146103f65780636352211e146104165780636817c76c1461043657806370a082311461044b578063715018a61461046b57600080fd5b806340c10f191461038357806342842e0e146103965780634f07de09146103b65780634f6ccce7146103d657600080fd5b8063095ea7b3116101e2578063095ea7b3146102c557806318160ddd146102e557806323b872dd146103045780632a55205a146103245780632f745c591461036357600080fd5b806301ffc9a714610214578063022296511461024957806306fdde031461026b578063081812fc1461028d575b600080fd5b34801561022057600080fd5b5061023461022f36600461231e565b6106ff565b60405190151581526020015b60405180910390f35b34801561025557600080fd5b5061026961026436600461233b565b61072a565b005b34801561027757600080fd5b506102806107c6565b6040516102409190612408565b34801561029957600080fd5b506102ad6102a836600461241b565b610858565b6040516001600160a01b039091168152602001610240565b3480156102d157600080fd5b506102696102e0366004612449565b6108ed565b3480156102f157600080fd5b506008545b604051908152602001610240565b34801561031057600080fd5b5061026961031f366004612475565b6109fe565b34801561033057600080fd5b5061034461033f3660046124b6565b610a2f565b604080516001600160a01b039093168352602083019190915201610240565b34801561036f57600080fd5b506102f661037e366004612449565b610a68565b610269610391366004612449565b610afe565b3480156103a257600080fd5b506102696103b1366004612475565b610f69565b3480156103c257600080fd5b506102696103d136600461241b565b610f84565b3480156103e257600080fd5b506102f66103f136600461241b565b610fb3565b34801561040257600080fd5b506102696104113660046125a0565b611046565b34801561042257600080fd5b506102ad61043136600461241b565b611087565b34801561044257600080fd5b506102f66110fe565b34801561045757600080fd5b506102f66104663660046125e9565b611151565b34801561047757600080fd5b506102696111d8565b34801561048c57600080fd5b5061026961049b366004612606565b61120e565b3480156104ac57600080fd5b50600a546001600160a01b03166102ad565b3480156104ca57600080fd5b506102806112af565b3480156104df57600080fd5b506102696112be565b3480156104f457600080fd5b506102696105033660046126ea565b611317565b34801561051457600080fd5b50610234610523366004612449565b601160209081526000928352604080842090915290825290205460ff1681565b34801561054f57600080fd5b5061026961055e366004612723565b611322565b34801561056f57600080fd5b5061026961057e366004612740565b61135f565b34801561058f57600080fd5b506102f661059e3660046125e9565b600f6020526000908152604090205481565b3480156105bc57600080fd5b506102806105cb36600461241b565b611397565b3480156105dc57600080fd5b50610234611472565b3480156105f157600080fd5b506102f67f000000000000000000000000000000000000000000000000000000000000000081565b34801561062557600080fd5b506102806114c8565b34801561063a57600080fd5b506102346106493660046127c0565b6001600160a01b03918216600090815260056020908152604080832093909416825291909152205460ff1690565b34801561068357600080fd5b5061034461069236600461241b565b601060205260009081526040902080546001909101546001600160a01b039091169082565b3480156106c357600080fd5b506102696106d23660046125e9565b61151b565b3480156106e357600080fd5b506102696106f236600461241b565b6115b3565b6102696115e2565b60006001600160e01b0319821663152a902d60e11b1480610724575061072482611661565b92915050565b600a546001600160a01b0316331461075d5760405162461bcd60e51b8152600401610754906127ee565b60405180910390fd5b60005b818110156107c1576001600f600085858581811061078057610780612823565b905060200201602081019061079591906125e9565b6001600160a01b03168152602081019190915260400160002055806107b98161284f565b915050610760565b505050565b6060600080546107d59061286a565b80601f01602080910402602001604051908101604052809291908181526020018280546108019061286a565b801561084e5780601f106108235761010080835404028352916020019161084e565b820191906000526020600020905b81548152906001019060200180831161083157829003601f168201915b5050505050905090565b6000818152600260205260408120546001600160a01b03166108d15760405162461bcd60e51b815260206004820152602c60248201527f4552433732313a20617070726f76656420717565727920666f72206e6f6e657860448201526b34b9ba32b73a103a37b5b2b760a11b6064820152608401610754565b506000908152600460205260409020546001600160a01b031690565b60006108f882611087565b9050806001600160a01b0316836001600160a01b031614156109665760405162461bcd60e51b815260206004820152602160248201527f4552433732313a20617070726f76616c20746f2063757272656e74206f776e656044820152603960f91b6064820152608401610754565b336001600160a01b038216148061098257506109828133610649565b6109f45760405162461bcd60e51b815260206004820152603860248201527f4552433732313a20617070726f76652063616c6c6572206973206e6f74206f7760448201527f6e6572206e6f7220617070726f76656420666f7220616c6c00000000000000006064820152608401610754565b6107c18383611686565b610a0833826116f4565b610a245760405162461bcd60e51b8152600401610754906128a5565b6107c18383836117eb565b600080610a44600a546001600160a01b031690565b600e54610a536127108661290c565b610a5d9190612920565b915091509250929050565b6000610a7383611151565b8210610ad55760405162461bcd60e51b815260206004820152602b60248201527f455243373231456e756d657261626c653a206f776e657220696e646578206f7560448201526a74206f6620626f756e647360a81b6064820152608401610754565b506001600160a01b03919091166000908152600660209081526040808320938352929052205490565b610b06611472565b610b4b5760405162461bcd60e51b8152602060048201526016602482015275135a5b9d1a5b99c81a5cc81b9bdd08195b98589b195960521b6044820152606401610754565b7f0000000000000000000000000000000000000000000000000000000000000000610b7560085490565b10610bb85760405162461bcd60e51b815260206004820152601360248201527214dd5c1c1b1e481a5cc8195e1a185d5cdd1959606a1b6044820152606401610754565b6001600160a01b038216600090815260116020908152604080832084845290915290205460ff1615610c2c5760405162461bcd60e51b815260206004820152601d60248201527f5468697320746f6b656e2077617320616c7265616479206d696e7465640000006044820152606401610754565b610c346110fe565b341015610c835760405162461bcd60e51b815260206004820152601b60248201527f496e73756666696369656e742076616c756520666f72206d696e7400000000006044820152606401610754565b610c9d6001600160a01b0383166380ac58cd60e01b611996565b15610d77576040516331a9108f60e11b81526004810182905233906001600160a01b03841690636352211e9060240160206040518083038186803b158015610ce457600080fd5b505afa158015610cf8573d6000803e3d6000fd5b505050506040513d601f19601f82011682018060405250810190610d1c919061293f565b6001600160a01b031614610d725760405162461bcd60e51b815260206004820181905260248201527f596f7520646f206e6f74206f776e207468697320736f7572636520746f6b656e6044820152606401610754565b610e62565b610d916001600160a01b038316636cdb3d1360e11b611996565b15610e6257604051627eeac760e11b8152336004820152602481018290526000906001600160a01b0384169062fdd58e9060440160206040518083038186803b158015610ddd57600080fd5b505afa158015610df1573d6000803e3d6000fd5b505050506040513d601f19601f82011682018060405250810190610e15919061295c565b11610e625760405162461bcd60e51b815260206004820181905260248201527f596f7520646f206e6f74206f776e207468697320736f7572636520746f6b656e6044820152606401610754565b6000610e6d60085490565b336000908152600f602052604090205490915015610eab57336000908152600f60205260408120805460019290610ea5908490612975565b90915550505b610eb533826119b2565b6040805180820182526001600160a01b038581168083526020808401878152600087815260108352868120865181546001600160a01b0319169087161781558251600191820155938152601183528681208982528352869020805460ff1916909317909255845184519093168352905190820152918201839052336060830152907f670e7290204c50f0ab4452d3e4a7534e1e511f6098ad647a5f9e2727356a01489060800160405180910390a150505050565b6107c18383836040518060200160405280600081525061135f565b600a546001600160a01b03163314610fae5760405162461bcd60e51b8152600401610754906127ee565b600e55565b6000610fbe60085490565b82106110215760405162461bcd60e51b815260206004820152602c60248201527f455243373231456e756d657261626c653a20676c6f62616c20696e646578206f60448201526b7574206f6620626f756e647360a01b6064820152608401610754565b6008828154811061103457611034612823565b90600052602060002001549050919050565b600a546001600160a01b031633146110705760405162461bcd60e51b8152600401610754906127ee565b805161108390600d90602084019061226f565b5050565b6000818152600260205260408120546001600160a01b0316806107245760405162461bcd60e51b815260206004820152602960248201527f4552433732313a206f776e657220717565727920666f72206e6f6e657869737460448201526832b73a103a37b5b2b760b91b6064820152608401610754565b6000611112600a546001600160a01b031690565b6001600160a01b0316336001600160a01b0316148061113f5750336000908152600f602052604090205415155b1561114a5750600090565b50600b5490565b60006001600160a01b0382166111bc5760405162461bcd60e51b815260206004820152602a60248201527f4552433732313a2062616c616e636520717565727920666f7220746865207a65604482015269726f206164647265737360b01b6064820152608401610754565b506001600160a01b031660009081526003602052604090205490565b600a546001600160a01b031633146112025760405162461bcd60e51b8152600401610754906127ee565b61120c60006119cc565b565b600a546001600160a01b031633146112385760405162461bcd60e51b8152600401610754906127ee565b60005b81518110156110835781818151811061125657611256612823565b602002602001015160200151600f600084848151811061127857611278612823565b602090810291909101810151516001600160a01b0316825281019190915260400160002055806112a78161284f565b91505061123b565b6060600180546107d59061286a565b600a546001600160a01b031633146112e85760405162461bcd60e51b8152600401610754906127ee565b60405133904780156108fc02916000818181858888f19350505050158015611314573d6000803e3d6000fd5b50565b611083338383611a1e565b600a546001600160a01b0316331461134c5760405162461bcd60e51b8152600401610754906127ee565b600c805460ff1916911515919091179055565b61136933836116f4565b6113855760405162461bcd60e51b8152600401610754906128a5565b61139184848484611aed565b50505050565b6000818152600260205260409020546060906001600160a01b03166114165760405162461bcd60e51b815260206004820152602f60248201527f4552433732314d657461646174613a2055524920717565727920666f72206e6f60448201526e3732bc34b9ba32b73a103a37b5b2b760891b6064820152608401610754565b6000611420611b20565b90506000815111611440576040518060200160405280600081525061146b565b8061144a84611b2f565b60405160200161145b92919061298c565b6040516020818303038152906040525b9392505050565b6000611486600a546001600160a01b031690565b6001600160a01b0316336001600160a01b031614806114b35750336000908152600f602052604090205415155b156114be5750600190565b50600c5460ff1690565b606060006114d4611b20565b905060008151116114f45760405180602001604052806000815250611515565b8060405160200161150591906129bb565b6040516020818303038152906040525b91505090565b600a546001600160a01b031633146115455760405162461bcd60e51b8152600401610754906127ee565b6001600160a01b0381166115aa5760405162461bcd60e51b815260206004820152602660248201527f4f776e61626c653a206e6577206f776e657220697320746865207a65726f206160448201526564647265737360d01b6064820152608401610754565b611314816119cc565b600a546001600160a01b031633146115dd5760405162461bcd60e51b8152600401610754906127ee565b600b55565b600034116116275760405162461bcd60e51b8152602060048201526012602482015271496e73756666696369656e742076616c756560701b6044820152606401610754565b604080513381523460208201527fa4cf3ada86a3fccf5f0429f5f8dcac085349231b6700d053945bd0292f222744910160405180910390a1565b60006001600160e01b0319821663780e9d6360e01b1480610724575061072482611c2d565b600081815260046020526040902080546001600160a01b0319166001600160a01b03841690811790915581906116bb82611087565b6001600160a01b03167f8c5be1e5ebec7d5bd14f71427d1e84f3dd0314c0f7b2291e5b200ac8c7c3b92560405160405180910390a45050565b6000818152600260205260408120546001600160a01b031661176d5760405162461bcd60e51b815260206004820152602c60248201527f4552433732313a206f70657261746f7220717565727920666f72206e6f6e657860448201526b34b9ba32b73a103a37b5b2b760a11b6064820152608401610754565b600061177883611087565b9050806001600160a01b0316846001600160a01b031614806117b35750836001600160a01b03166117a884610858565b6001600160a01b0316145b806117e357506001600160a01b0380821660009081526005602090815260408083209388168352929052205460ff165b949350505050565b826001600160a01b03166117fe82611087565b6001600160a01b0316146118665760405162461bcd60e51b815260206004820152602960248201527f4552433732313a207472616e73666572206f6620746f6b656e2074686174206960448201526839903737ba1037bbb760b91b6064820152608401610754565b6001600160a01b0382166118c85760405162461bcd60e51b8152602060048201526024808201527f4552433732313a207472616e7366657220746f20746865207a65726f206164646044820152637265737360e01b6064820152608401610754565b6118d3838383611c7d565b6118de600082611686565b6001600160a01b0383166000908152600360205260408120805460019290611907908490612975565b90915550506001600160a01b03821660009081526003602052604081208054600192906119359084906129ec565b909155505060008181526002602052604080822080546001600160a01b0319166001600160a01b0386811691821790925591518493918716917fddf252ad1be2c89b69c2b068fc378daa952ba7f163c4a11628f55a4df523b3ef91a4505050565b60006119a183611d35565b801561146b575061146b8383611d68565b611083828260405180602001604052806000815250611e51565b600a80546001600160a01b038381166001600160a01b0319831681179093556040519116919082907f8be0079c531659141344cd1fd0a4f28419497f9722a3daafe3b4186f6b6457e090600090a35050565b816001600160a01b0316836001600160a01b03161415611a805760405162461bcd60e51b815260206004820152601960248201527f4552433732313a20617070726f766520746f2063616c6c6572000000000000006044820152606401610754565b6001600160a01b03838116600081815260056020908152604080832094871680845294825291829020805460ff191686151590811790915591519182527f17307eab39ab6107e8899845ad3d59bd9653f200f220920489ca2b5937696c31910160405180910390a3505050565b611af88484846117eb565b611b0484848484611e84565b6113915760405162461bcd60e51b815260040161075490612a04565b6060600d80546107d59061286a565b606081611b535750506040805180820190915260018152600360fc1b602082015290565b8160005b8115611b7d5780611b678161284f565b9150611b769050600a8361290c565b9150611b57565b60008167ffffffffffffffff811115611b9857611b986124d8565b6040519080825280601f01601f191660200182016040528015611bc2576020820181803683370190505b5090505b84156117e357611bd7600183612975565b9150611be4600a86612a56565b611bef9060306129ec565b60f81b818381518110611c0457611c04612823565b60200101906001600160f81b031916908160001a905350611c26600a8661290c565b9450611bc6565b60006001600160e01b031982166380ac58cd60e01b1480611c5e57506001600160e01b03198216635b5e139f60e01b145b8061072457506301ffc9a760e01b6001600160e01b0319831614610724565b6001600160a01b038316611cd857611cd381600880546000838152600960205260408120829055600182018355919091527ff3f7a9fe364faab93b216da50a3214154f22a0a2b415b23a84c8169e8b636ee30155565b611cfb565b816001600160a01b0316836001600160a01b031614611cfb57611cfb8382611f91565b6001600160a01b038216611d12576107c18161202e565b826001600160a01b0316826001600160a01b0316146107c1576107c182826120dd565b6000611d48826301ffc9a760e01b611d68565b80156107245750611d61826001600160e01b0319611d68565b1592915050565b604080516001600160e01b0319831660248083019190915282518083039091018152604490910182526020810180516001600160e01b03166301ffc9a760e01b179052905160009190829081906001600160a01b0387169061753090611dcf908690612a6a565b6000604051808303818686fa925050503d8060008114611e0b576040519150601f19603f3d011682016040523d82523d6000602084013e611e10565b606091505b5091509150602081511015611e2b5760009350505050610724565b818015611e47575080806020019051810190611e479190612a86565b9695505050505050565b611e5b8383612121565b611e686000848484611e84565b6107c15760405162461bcd60e51b815260040161075490612a04565b60006001600160a01b0384163b15611f8657604051630a85bd0160e11b81526001600160a01b0385169063150b7a0290611ec8903390899088908890600401612aa3565b602060405180830381600087803b158015611ee257600080fd5b505af1925050508015611f12575060408051601f3d908101601f19168201909252611f0f91810190612ad6565b60015b611f6c573d808015611f40576040519150601f19603f3d011682016040523d82523d6000602084013e611f45565b606091505b508051611f645760405162461bcd60e51b815260040161075490612a04565b805181602001fd5b6001600160e01b031916630a85bd0160e11b1490506117e3565b506001949350505050565b60006001611f9e84611151565b611fa89190612975565b600083815260076020526040902054909150808214611ffb576001600160a01b03841660009081526006602090815260408083208584528252808320548484528184208190558352600790915290208190555b5060009182526007602090815260408084208490556001600160a01b039094168352600681528383209183525290812055565b60085460009061204090600190612975565b6000838152600960205260408120546008805493945090928490811061206857612068612823565b90600052602060002001549050806008838154811061208957612089612823565b60009182526020808320909101929092558281526009909152604080822084905585825281205560088054806120c1576120c1612af3565b6001900381819060005260206000200160009055905550505050565b60006120e883611151565b6001600160a01b039093166000908152600660209081526040808320868452825280832085905593825260079052919091209190915550565b6001600160a01b0382166121775760405162461bcd60e51b815260206004820181905260248201527f4552433732313a206d696e7420746f20746865207a65726f20616464726573736044820152606401610754565b6000818152600260205260409020546001600160a01b0316156121dc5760405162461bcd60e51b815260206004820152601c60248201527f4552433732313a20746f6b656e20616c7265616479206d696e746564000000006044820152606401610754565b6121e860008383611c7d565b6001600160a01b03821660009081526003602052604081208054600192906122119084906129ec565b909155505060008181526002602052604080822080546001600160a01b0319166001600160a01b03861690811790915590518392907fddf252ad1be2c89b69c2b068fc378daa952ba7f163c4a11628f55a4df523b3ef908290a45050565b82805461227b9061286a565b90600052602060002090601f01602090048101928261229d57600085556122e3565b82601f106122b657805160ff19168380011785556122e3565b828001600101855582156122e3579182015b828111156122e35782518255916020019190600101906122c8565b506122ef9291506122f3565b5090565b5b808211156122ef57600081556001016122f4565b6001600160e01b03198116811461131457600080fd5b60006020828403121561233057600080fd5b813561146b81612308565b6000806020838503121561234e57600080fd5b823567ffffffffffffffff8082111561236657600080fd5b818501915085601f83011261237a57600080fd5b81358181111561238957600080fd5b8660208260051b850101111561239e57600080fd5b60209290920196919550909350505050565b60005b838110156123cb5781810151838201526020016123b3565b838111156113915750506000910152565b600081518084526123f48160208601602086016123b0565b601f01601f19169290920160200192915050565b60208152600061146b60208301846123dc565b60006020828403121561242d57600080fd5b5035919050565b6001600160a01b038116811461131457600080fd5b6000806040838503121561245c57600080fd5b823561246781612434565b946020939093013593505050565b60008060006060848603121561248a57600080fd5b833561249581612434565b925060208401356124a581612434565b929592945050506040919091013590565b600080604083850312156124c957600080fd5b50508035926020909101359150565b634e487b7160e01b600052604160045260246000fd5b6040805190810167ffffffffffffffff81118282101715612511576125116124d8565b60405290565b604051601f8201601f1916810167ffffffffffffffff81118282101715612540576125406124d8565b604052919050565b600067ffffffffffffffff831115612562576125626124d8565b612575601f8401601f1916602001612517565b905082815283838301111561258957600080fd5b828260208301376000602084830101529392505050565b6000602082840312156125b257600080fd5b813567ffffffffffffffff8111156125c957600080fd5b8201601f810184136125da57600080fd5b6117e384823560208401612548565b6000602082840312156125fb57600080fd5b813561146b81612434565b6000602080838503121561261957600080fd5b823567ffffffffffffffff8082111561263157600080fd5b818501915085601f83011261264557600080fd5b813581811115612657576126576124d8565b612665848260051b01612517565b818152848101925060069190911b83018401908782111561268557600080fd5b928401925b818410156126d157604084890312156126a35760008081fd5b6126ab6124ee565b84356126b681612434565b8152848601358682015283526040909301929184019161268a565b979650505050505050565b801515811461131457600080fd5b600080604083850312156126fd57600080fd5b823561270881612434565b91506020830135612718816126dc565b809150509250929050565b60006020828403121561273557600080fd5b813561146b816126dc565b6000806000806080858703121561275657600080fd5b843561276181612434565b9350602085013561277181612434565b925060408501359150606085013567ffffffffffffffff81111561279457600080fd5b8501601f810187136127a557600080fd5b6127b487823560208401612548565b91505092959194509250565b600080604083850312156127d357600080fd5b82356127de81612434565b9150602083013561271881612434565b6020808252818101527f4f776e61626c653a2063616c6c6572206973206e6f7420746865206f776e6572604082015260600190565b634e487b7160e01b600052603260045260246000fd5b634e487b7160e01b600052601160045260246000fd5b600060001982141561286357612863612839565b5060010190565b600181811c9082168061287e57607f821691505b6020821081141561289f57634e487b7160e01b600052602260045260246000fd5b50919050565b60208082526031908201527f4552433732313a207472616e736665722063616c6c6572206973206e6f74206f6040820152701ddb995c881b9bdc88185c1c1c9bdd9959607a1b606082015260800190565b634e487b7160e01b600052601260045260246000fd5b60008261291b5761291b6128f6565b500490565b600081600019048311821515161561293a5761293a612839565b500290565b60006020828403121561295157600080fd5b815161146b81612434565b60006020828403121561296e57600080fd5b5051919050565b60008282101561298757612987612839565b500390565b6000835161299e8184602088016123b0565b8351908301906129b28183602088016123b0565b01949350505050565b600082516129cd8184602087016123b0565b6c31b7b73a3930b1ba173539b7b760991b920191825250600d01919050565b600082198211156129ff576129ff612839565b500190565b60208082526032908201527f4552433732313a207472616e7366657220746f206e6f6e20455243373231526560408201527131b2b4bb32b91034b6b83632b6b2b73a32b960711b606082015260800190565b600082612a6557612a656128f6565b500690565b60008251612a7c8184602087016123b0565b9190910192915050565b600060208284031215612a9857600080fd5b815161146b816126dc565b6001600160a01b0385811682528416602082015260408101839052608060608201819052600090611e47908301846123dc565b600060208284031215612ae857600080fd5b815161146b81612308565b634e487b7160e01b600052603160045260246000fdfea26469706673582212206dd489cf52733f98dac4bbc72a6fc1b817319bafbd1004323131236a49488ea164736f6c63430008090033",
  "linkReferences": {},
  "deployedLinkReferences": {}
}