{
  "_format": "hh-sol-artifact-1",
  "contractName": "Assemblage",
  "sourceName": "contracts/Assemblage.sol",
  "abi": [
    {
      "inputs": [
        {
          "internalType": "string",
          "name": "_initialBaseURI",
          "type": "string"
        }
      ],
      "stateMutability": "nonpayable",
      "type": "constructor"
    },
    {
      "anonymous": false,
      "inputs": [
        {
          "indexed": true,
          "internalType": "address",
          "name": "owner",
          "type": "address"
        },
        {
          "indexed": true,
          "internalType": "address",
          "name": "approved",
          "type": "address"
        },
        {
          "indexed": true,
          "internalType": "uint256",
          "name": "tokenId",
          "type": "uint256"
        }
      ],
      "name": "Approval",
      "type": "event"
    },
    {
      "anonymous": false,
      "inputs": [
        {
          "indexed": true,
          "internalType": "address",
          "name": "owner",
          "type": "address"
        },
        {
          "indexed": true,
          "internalType": "address",
          "name": "operator",
          "type": "address"
        },
        {
          "indexed": false,
          "internalType": "bool",
          "name": "approved",
          "type": "bool"
        }
      ],
      "name": "ApprovalForAll",
      "type": "event"
    },
    {
      "anonymous": false,
      "inputs": [
        {
          "indexed": true,
          "internalType": "address",
          "name": "previousOwner",
          "type": "address"
        },
        {
          "indexed": true,
          "internalType": "address",
          "name": "newOwner",
          "type": "address"
        }
      ],
      "name": "OwnershipTransferred",
      "type": "event"
    },
    {
      "anonymous": false,
      "inputs": [
        {
          "components": [
            {
              "internalType": "address",
              "name": "sourceContract",
              "type": "address"
            },
            {
              "internalType": "uint256",
              "name": "sourceTokenId",
              "type": "uint256"
            }
          ],
          "indexed": false,
          "internalType": "struct Assemblage.SourceToken",
          "name": "",
          "type": "tuple"
        },
        {
          "indexed": false,
          "internalType": "uint256",
          "name": "tokenId",
          "type": "uint256"
        },
        {
          "indexed": false,
          "internalType": "address",
          "name": "to",
          "type": "address"
        }
      ],
      "name": "SourceTokenMinted",
      "type": "event"
    },
    {
      "anonymous": false,
      "inputs": [
        {
          "indexed": true,
          "internalType": "address",
          "name": "from",
          "type": "address"
        },
        {
          "indexed": true,
          "internalType": "address",
          "name": "to",
          "type": "address"
        },
        {
          "indexed": true,
          "internalType": "uint256",
          "name": "tokenId",
          "type": "uint256"
        }
      ],
      "name": "Transfer",
      "type": "event"
    },
    {
      "inputs": [
        {
          "internalType": "address",
          "name": "to",
          "type": "address"
        },
        {
          "internalType": "uint256",
          "name": "tokenId",
          "type": "uint256"
        }
      ],
      "name": "approve",
      "outputs": [],
      "stateMutability": "nonpayable",
      "type": "function"
    },
    {
      "inputs": [
        {
          "internalType": "address",
          "name": "owner",
          "type": "address"
        }
      ],
      "name": "balanceOf",
      "outputs": [
        {
          "internalType": "uint256",
          "name": "",
          "type": "uint256"
        }
      ],
      "stateMutability": "view",
      "type": "function"
    },
    {
      "inputs": [
        {
          "internalType": "address",
          "name": "",
          "type": "address"
        }
      ],
      "name": "freeloaders",
      "outputs": [
        {
          "internalType": "uint256",
          "name": "",
          "type": "uint256"
        }
      ],
      "stateMutability": "view",
      "type": "function"
    },
    {
      "inputs": [
        {
          "internalType": "uint256",
          "name": "tokenId",
          "type": "uint256"
        }
      ],
      "name": "getApproved",
      "outputs": [
        {
          "internalType": "address",
          "name": "",
          "type": "address"
        }
      ],
      "stateMutability": "view",
      "type": "function"
    },
    {
      "inputs": [
        {
          "internalType": "address",
          "name": "_address",
          "type": "address"
        }
      ],
      "name": "getFreeloaderCount",
      "outputs": [
        {
          "internalType": "uint256",
          "name": "",
          "type": "uint256"
        }
      ],
      "stateMutability": "view",
      "type": "function"
    },
    {
      "inputs": [
        {
          "internalType": "address",
          "name": "owner",
          "type": "address"
        },
        {
          "internalType": "address",
          "name": "operator",
          "type": "address"
        }
      ],
      "name": "isApprovedForAll",
      "outputs": [
        {
          "internalType": "bool",
          "name": "",
          "type": "bool"
        }
      ],
      "stateMutability": "view",
      "type": "function"
    },
    {
      "inputs": [],
      "name": "maxSupply",
      "outputs": [
        {
          "internalType": "uint256",
          "name": "",
          "type": "uint256"
        }
      ],
      "stateMutability": "view",
      "type": "function"
    },
    {
      "inputs": [
        {
          "internalType": "address",
          "name": "sourceContract",
          "type": "address"
        },
        {
          "internalType": "uint256",
          "name": "sourceTokenId",
          "type": "uint256"
        }
      ],
      "name": "mint",
      "outputs": [],
      "stateMutability": "payable",
      "type": "function"
    },
    {
      "inputs": [],
      "name": "mintEnabled",
      "outputs": [
        {
          "internalType": "bool",
          "name": "",
          "type": "bool"
        }
      ],
      "stateMutability": "view",
      "type": "function"
    },
    {
      "inputs": [],
      "name": "mintPrice",
      "outputs": [
        {
          "internalType": "uint256",
          "name": "",
          "type": "uint256"
        }
      ],
      "stateMutability": "view",
      "type": "function"
    },
    {
      "inputs": [],
      "name": "name",
      "outputs": [
        {
          "internalType": "string",
          "name": "",
          "type": "string"
        }
      ],
      "stateMutability": "view",
      "type": "function"
    },
    {
      "inputs": [],
      "name": "owner",
      "outputs": [
        {
          "internalType": "address",
          "name": "",
          "type": "address"
        }
      ],
      "stateMutability": "view",
      "type": "function"
    },
    {
      "inputs": [
        {
          "internalType": "uint256",
          "name": "tokenId",
          "type": "uint256"
        }
      ],
      "name": "ownerOf",
      "outputs": [
        {
          "internalType": "address",
          "name": "",
          "type": "address"
        }
      ],
      "stateMutability": "view",
      "type": "function"
    },
    {
      "inputs": [],
      "name": "renounceOwnership",
      "outputs": [],
      "stateMutability": "nonpayable",
      "type": "function"
    },
    {
      "inputs": [
        {
          "internalType": "uint256",
          "name": "",
          "type": "uint256"
        },
        {
          "internalType": "uint256",
          "name": "value",
          "type": "uint256"
        }
      ],
      "name": "royaltyInfo",
      "outputs": [
        {
          "internalType": "address",
          "name": "receiver",
          "type": "address"
        },
        {
          "internalType": "uint256",
          "name": "royaltyAmount",
          "type": "uint256"
        }
      ],
      "stateMutability": "view",
      "type": "function"
    },
    {
      "inputs": [
        {
          "internalType": "address",
          "name": "from",
          "type": "address"
        },
        {
          "internalType": "address",
          "name": "to",
          "type": "address"
        },
        {
          "internalType": "uint256",
          "name": "tokenId",
          "type": "uint256"
        }
      ],
      "name": "safeTransferFrom",
      "outputs": [],
      "stateMutability": "nonpayable",
      "type": "function"
    },
    {
      "inputs": [
        {
          "internalType": "address",
          "name": "from",
          "type": "address"
        },
        {
          "internalType": "address",
          "name": "to",
          "type": "address"
        },
        {
          "internalType": "uint256",
          "name": "tokenId",
          "type": "uint256"
        },
        {
          "internalType": "bytes",
          "name": "_data",
          "type": "bytes"
        }
      ],
      "name": "safeTransferFrom",
      "outputs": [],
      "stateMutability": "nonpayable",
      "type": "function"
    },
    {
      "inputs": [
        {
          "internalType": "address",
          "name": "operator",
          "type": "address"
        },
        {
          "internalType": "bool",
          "name": "approved",
          "type": "bool"
        }
      ],
      "name": "setApprovalForAll",
      "outputs": [],
      "stateMutability": "nonpayable",
      "type": "function"
    },
    {
      "inputs": [
        {
          "internalType": "string",
          "name": "newBaseURI",
          "type": "string"
        }
      ],
      "name": "setBaseURI",
      "outputs": [],
      "stateMutability": "nonpayable",
      "type": "function"
    },
    {
      "inputs": [
        {
          "internalType": "address",
          "name": "_address",
          "type": "address"
        },
        {
          "internalType": "uint256",
          "name": "amount",
          "type": "uint256"
        }
      ],
      "name": "setFreeloader",
      "outputs": [],
      "stateMutability": "nonpayable",
      "type": "function"
    },
    {
      "inputs": [
        {
          "internalType": "uint256",
          "name": "newMintPrice",
          "type": "uint256"
        }
      ],
      "name": "setMintPrice",
      "outputs": [],
      "stateMutability": "nonpayable",
      "type": "function"
    },
    {
      "inputs": [
        {
          "internalType": "bool",
          "name": "newMintingState",
          "type": "bool"
        }
      ],
      "name": "setMinting",
      "outputs": [],
      "stateMutability": "nonpayable",
      "type": "function"
    },
    {
      "inputs": [
        {
          "internalType": "address",
          "name": "recipient",
          "type": "address"
        },
        {
          "internalType": "uint256",
          "name": "value",
          "type": "uint256"
        }
      ],
      "name": "setRoyalties",
      "outputs": [],
      "stateMutability": "nonpayable",
      "type": "function"
    },
    {
      "inputs": [
        {
          "internalType": "address",
          "name": "sourceContract",
          "type": "address"
        },
        {
          "internalType": "uint256",
          "name": "sourceTokenId",
          "type": "uint256"
        }
      ],
      "name": "sourceTokenURI",
      "outputs": [
        {
          "internalType": "string",
          "name": "",
          "type": "string"
        }
      ],
      "stateMutability": "view",
      "type": "function"
    },
    {
      "inputs": [
        {
          "internalType": "uint256",
          "name": "",
          "type": "uint256"
        }
      ],
      "name": "sourceTokens",
      "outputs": [
        {
          "internalType": "address",
          "name": "sourceContract",
          "type": "address"
        },
        {
          "internalType": "uint256",
          "name": "sourceTokenId",
          "type": "uint256"
        }
      ],
      "stateMutability": "view",
      "type": "function"
    },
    {
      "inputs": [
        {
          "internalType": "bytes4",
          "name": "interfaceId",
          "type": "bytes4"
        }
      ],
      "name": "supportsInterface",
      "outputs": [
        {
          "internalType": "bool",
          "name": "",
          "type": "bool"
        }
      ],
      "stateMutability": "view",
      "type": "function"
    },
    {
      "inputs": [],
      "name": "symbol",
      "outputs": [
        {
          "internalType": "string",
          "name": "",
          "type": "string"
        }
      ],
      "stateMutability": "view",
      "type": "function"
    },
    {
      "inputs": [
        {
          "internalType": "uint256",
          "name": "index",
          "type": "uint256"
        }
      ],
      "name": "tokenByIndex",
      "outputs": [
        {
          "internalType": "uint256",
          "name": "",
          "type": "uint256"
        }
      ],
      "stateMutability": "view",
      "type": "function"
    },
    {
      "inputs": [
        {
          "internalType": "address",
          "name": "owner",
          "type": "address"
        },
        {
          "internalType": "uint256",
          "name": "index",
          "type": "uint256"
        }
      ],
      "name": "tokenOfOwnerByIndex",
      "outputs": [
        {
          "internalType": "uint256",
          "name": "",
          "type": "uint256"
        }
      ],
      "stateMutability": "view",
      "type": "function"
    },
    {
      "inputs": [
        {
          "internalType": "uint256",
          "name": "tokenId",
          "type": "uint256"
        }
      ],
      "name": "tokenURI",
      "outputs": [
        {
          "internalType": "string",
          "name": "",
          "type": "string"
        }
      ],
      "stateMutability": "view",
      "type": "function"
    },
    {
      "inputs": [],
      "name": "totalSupply",
      "outputs": [
        {
          "internalType": "uint256",
          "name": "",
          "type": "uint256"
        }
      ],
      "stateMutability": "view",
      "type": "function"
    },
    {
      "inputs": [
        {
          "internalType": "address",
          "name": "from",
          "type": "address"
        },
        {
          "internalType": "address",
          "name": "to",
          "type": "address"
        },
        {
          "internalType": "uint256",
          "name": "tokenId",
          "type": "uint256"
        }
      ],
      "name": "transferFrom",
      "outputs": [],
      "stateMutability": "nonpayable",
      "type": "function"
    },
    {
      "inputs": [
        {
          "internalType": "address",
          "name": "newOwner",
          "type": "address"
        }
      ],
      "name": "transferOwnership",
      "outputs": [],
      "stateMutability": "nonpayable",
      "type": "function"
    },
    {
      "inputs": [],
      "name": "withdrawEth",
      "outputs": [],
      "stateMutability": "nonpayable",
      "type": "function"
    }
  ],
  "bytecode": "0x60a06040523480156200001157600080fd5b5060405162002fe138038062002fe183398101604081905262000034916200038d565b604080518082018252600a815269417373656d626c61676560b01b60208083019182528351808501909452600384526210509360ea1b9084015281519192916200008191600091620002e7565b50805162000097906001906020840190620002e7565b505050620000b4620000ae6200012d60201b60201c565b62000131565b8051620000c990600c906020840190620002e7565b5066f8b0a10e470000600d55600e805460ff19169055611e616080526200010673c722f9adc49fce183c78b46b2d58c8c30b9a6e84600362000183565b620001266200011d600a546001600160a01b031690565b6101f4620001ee565b50620004bc565b3390565b600a80546001600160a01b038381166001600160a01b0319831681179093556040519116919082907f8be0079c531659141344cd1fd0a4f28419497f9722a3daafe3b4186f6b6457e090600090a35050565b600a546001600160a01b03163314620001d25760405162461bcd60e51b8152602060048201819052602482015260008051602062002fc183398151915260448201526064015b60405180910390fd5b6001600160a01b039091166000908152600f6020526040902055565b600a546001600160a01b03163314620002395760405162461bcd60e51b8152602060048201819052602482015260008051602062002fc18339815191526044820152606401620001c9565b62000245828262000249565b5050565b6127108111156200029d5760405162461bcd60e51b815260206004820152601a60248201527f45524332393831526f79616c746965733a20546f6f20686967680000000000006044820152606401620001c9565b604080518082019091526001600160a01b0390921680835262ffffff9091166020909201829052600b8054600160a01b9093026001600160b81b0319909316909117919091179055565b828054620002f59062000469565b90600052602060002090601f01602090048101928262000319576000855562000364565b82601f106200033457805160ff191683800117855562000364565b8280016001018555821562000364579182015b828111156200036457825182559160200191906001019062000347565b506200037292915062000376565b5090565b5b8082111562000372576000815560010162000377565b60006020808385031215620003a157600080fd5b82516001600160401b0380821115620003b957600080fd5b818501915085601f830112620003ce57600080fd5b815181811115620003e357620003e3620004a6565b604051601f8201601f19908116603f011681019083821181831017156200040e576200040e620004a6565b8160405282815288868487010111156200042757600080fd5b600093505b828410156200044b57848401860151818501870152928501926200042c565b828411156200045d5760008684830101525b98975050505050505050565b600181811c908216806200047e57607f821691505b60208210811415620004a057634e487b7160e01b600052602260045260246000fd5b50919050565b634e487b7160e01b600052604160045260246000fd5b608051612ae2620004df600039600081816105bc0152610a850152612ae26000f3fe6080604052600436106101f95760003560e01c8063715018a61161010d578063c265e6ae116100a0578063e985e9c51161006f578063e985e9c5146105de578063eb53ef5214610627578063f2fde38b14610667578063f4a0a52814610687578063f956c103146106a757600080fd5b8063c265e6ae1461053f578063c87b56dd14610575578063d123973014610595578063d5abeb01146105aa57600080fd5b8063a0ef91df116100dc578063a0ef91df146104ca578063a22cb465146104df578063b4c7f066146104ff578063b88d4fde1461051f57600080fd5b8063715018a6146104625780638c7ea24b146104775780638da5cb5b1461049757806395d89b41146104b557600080fd5b806340c10f191161019057806355f804b31161015f57806355f804b3146103cd57806358430171146103ed5780636352211e1461040d5780636817c76c1461042d57806370a082311461044257600080fd5b806340c10f191461034d5780634137171c1461036057806342842e0e1461038d5780634f6ccce7146103ad57600080fd5b806318160ddd116101cc57806318160ddd146102af57806323b872dd146102ce5780632a55205a146102ee5780632f745c591461032d57600080fd5b806301ffc9a7146101fe57806306fdde0314610233578063081812fc14610255578063095ea7b31461028d575b600080fd5b34801561020a57600080fd5b5061021e6102193660046125d1565b6106c7565b60405190151581526020015b60405180910390f35b34801561023f57600080fd5b506102486106d8565b60405161022a91906127c9565b34801561026157600080fd5b506102756102703660046126cb565b61076a565b6040516001600160a01b03909116815260200161022a565b34801561029957600080fd5b506102ad6102a836600461256b565b610804565b005b3480156102bb57600080fd5b506008545b60405190815260200161022a565b3480156102da57600080fd5b506102ad6102e936600461247c565b61091a565b3480156102fa57600080fd5b5061030e6103093660046126fd565b61094b565b604080516001600160a01b03909316835260208301919091520161022a565b34801561033957600080fd5b506102c061034836600461256b565b6109a0565b6102ad61035b36600461256b565b610a36565b34801561036c57600080fd5b506102c061037b366004612409565b600f6020526000908152604090205481565b34801561039957600080fd5b506102ad6103a836600461247c565b610ed4565b3480156103b957600080fd5b506102c06103c83660046126cb565b610eef565b3480156103d957600080fd5b506102ad6103e836600461260b565b610f82565b3480156103f957600080fd5b506102ad61040836600461256b565b610fc3565b34801561041957600080fd5b506102756104283660046126cb565b611009565b34801561043957600080fd5b506102c0611080565b34801561044e57600080fd5b506102c061045d366004612409565b6110d3565b34801561046e57600080fd5b506102ad61115a565b34801561048357600080fd5b506102ad61049236600461256b565b611190565b3480156104a357600080fd5b50600a546001600160a01b0316610275565b3480156104c157600080fd5b506102486111c4565b3480156104d657600080fd5b506102ad6111d3565b3480156104eb57600080fd5b506102ad6104fa36600461253d565b611289565b34801561050b57600080fd5b506102ad61051a366004612597565b611294565b34801561052b57600080fd5b506102ad61053a3660046124bd565b6112d1565b34801561054b57600080fd5b506102c061055a366004612409565b6001600160a01b03166000908152600f602052604090205490565b34801561058157600080fd5b506102486105903660046126cb565b611309565b3480156105a157600080fd5b5061021e6113e4565b3480156105b657600080fd5b506102c07f000000000000000000000000000000000000000000000000000000000000000081565b3480156105ea57600080fd5b5061021e6105f9366004612443565b6001600160a01b03918216600090815260056020908152604080832093909416825291909152205460ff1690565b34801561063357600080fd5b5061030e6106423660046126cb565b601060205260009081526040902080546001909101546001600160a01b039091169082565b34801561067357600080fd5b506102ad610682366004612409565b61143a565b34801561069357600080fd5b506102ad6106a23660046126cb565b6114d5565b3480156106b357600080fd5b506102486106c236600461256b565b611504565b60006106d282611664565b92915050565b6060600080546106e79061299b565b80601f01602080910402602001604051908101604052809291908181526020018280546107139061299b565b80156107605780601f1061073557610100808354040283529160200191610760565b820191906000526020600020905b81548152906001019060200180831161074357829003601f168201915b5050505050905090565b6000818152600260205260408120546001600160a01b03166107e85760405162461bcd60e51b815260206004820152602c60248201527f4552433732313a20617070726f76656420717565727920666f72206e6f6e657860448201526b34b9ba32b73a103a37b5b2b760a11b60648201526084015b60405180910390fd5b506000908152600460205260409020546001600160a01b031690565b600061080f82611009565b9050806001600160a01b0316836001600160a01b0316141561087d5760405162461bcd60e51b815260206004820152602160248201527f4552433732313a20617070726f76616c20746f2063757272656e74206f776e656044820152603960f91b60648201526084016107df565b336001600160a01b0382161480610899575061089981336105f9565b61090b5760405162461bcd60e51b815260206004820152603860248201527f4552433732313a20617070726f76652063616c6c6572206973206e6f74206f7760448201527f6e6572206e6f7220617070726f76656420666f7220616c6c000000000000000060648201526084016107df565b6109158383611689565b505050565b61092433826116f7565b6109405760405162461bcd60e51b81526004016107df90612863565b6109158383836117ed565b60408051808201909152600b546001600160a01b038116808352600160a01b90910462ffffff166020830181905290916000916127109061098c9086612939565b6109969190612925565b9150509250929050565b60006109ab836110d3565b8210610a0d5760405162461bcd60e51b815260206004820152602b60248201527f455243373231456e756d657261626c653a206f776e657220696e646578206f7560448201526a74206f6620626f756e647360a81b60648201526084016107df565b506001600160a01b03919091166000908152600660209081526040808320938352929052205490565b610a3e6113e4565b610a835760405162461bcd60e51b8152602060048201526016602482015275135a5b9d1a5b99c81a5cc81b9bdd08195b98589b195960521b60448201526064016107df565b7f0000000000000000000000000000000000000000000000000000000000000000610aad60085490565b10610af05760405162461bcd60e51b815260206004820152601360248201527214dd5c1c1b1e481a5cc8195e1a185d5cdd1959606a1b60448201526064016107df565b6001600160a01b038216600090815260116020908152604080832084845290915290205460ff1615610b645760405162461bcd60e51b815260206004820152601d60248201527f5468697320746f6b656e2077617320616c7265616479206d696e74656400000060448201526064016107df565b610b6c611080565b341015610bbb5760405162461bcd60e51b815260206004820152601b60248201527f496e73756666696369656e742076616c756520666f72206d696e74000000000060448201526064016107df565b610bd56001600160a01b0383166380ac58cd60e01b611998565b15610cc8576040516331a9108f60e11b81526004810182905233906001600160a01b03841690636352211e9060240160206040518083038186803b158015610c1c57600080fd5b505afa158015610c30573d6000803e3d6000fd5b505050506040513d601f19601f82011682018060405250810190610c549190612426565b6001600160a01b031614610cc35760405162461bcd60e51b815260206004820152603060248201527f596f7520646f206e6f74206f776e207468697320746f6b656e20696e2074686560448201526f081cdbdd5c98d94818dbdb9d1c9858dd60821b60648201526084016107df565b610dcd565b610ce26001600160a01b038316636cdb3d1360e11b611998565b15610dcd57604051627eeac760e11b8152336004820152602481018290526000906001600160a01b0384169062fdd58e9060440160206040518083038186803b158015610d2e57600080fd5b505afa158015610d42573d6000803e3d6000fd5b505050506040513d601f19601f82011682018060405250810190610d6691906126e4565b11610dcd5760405162461bcd60e51b815260206004820152603160248201527f596f7520646f206e6f74206f776e207468697320746f6b656e20696e2074686560448201527020736f7572636520636f6e74726163742160781b60648201526084016107df565b6000610dd860085490565b336000908152600f602052604090205490915015610e1657336000908152600f60205260408120805460019290610e10908490612958565b90915550505b610e2033826119b4565b6040805180820182526001600160a01b038581168083526020808401878152600087815260108352868120865181546001600160a01b0319169087161781558251600191820155938152601183528681208982528352869020805460ff1916909317909255845184519093168352905190820152918201839052336060830152907f670e7290204c50f0ab4452d3e4a7534e1e511f6098ad647a5f9e2727356a01489060800160405180910390a150505050565b610915838383604051806020016040528060008152506112d1565b6000610efa60085490565b8210610f5d5760405162461bcd60e51b815260206004820152602c60248201527f455243373231456e756d657261626c653a20676c6f62616c20696e646578206f60448201526b7574206f6620626f756e647360a01b60648201526084016107df565b60088281548110610f7057610f70612a47565b90600052602060002001549050919050565b600a546001600160a01b03163314610fac5760405162461bcd60e51b81526004016107df9061282e565b8051610fbf90600c906020840190612332565b5050565b600a546001600160a01b03163314610fed5760405162461bcd60e51b81526004016107df9061282e565b6001600160a01b039091166000908152600f6020526040902055565b6000818152600260205260408120546001600160a01b0316806106d25760405162461bcd60e51b815260206004820152602960248201527f4552433732313a206f776e657220717565727920666f72206e6f6e657869737460448201526832b73a103a37b5b2b760b91b60648201526084016107df565b6000611094600a546001600160a01b031690565b6001600160a01b0316336001600160a01b031614806110c15750336000908152600f602052604090205415155b156110cc5750600090565b50600d5490565b60006001600160a01b03821661113e5760405162461bcd60e51b815260206004820152602a60248201527f4552433732313a2062616c616e636520717565727920666f7220746865207a65604482015269726f206164647265737360b01b60648201526084016107df565b506001600160a01b031660009081526003602052604090205490565b600a546001600160a01b031633146111845760405162461bcd60e51b81526004016107df9061282e565b61118e60006119ce565b565b600a546001600160a01b031633146111ba5760405162461bcd60e51b81526004016107df9061282e565b610fbf8282611a20565b6060600180546106e79061299b565b600a546001600160a01b031633146111fd5760405162461bcd60e51b81526004016107df9061282e565b6040514790600090339083908381818185875af1925050503d8060008114611241576040519150601f19603f3d011682016040523d82523d6000602084013e611246565b606091505b5050905080610fbf5760405162461bcd60e51b815260206004820152600f60248201526e15da5d1a191c985dc819985a5b1959608a1b60448201526064016107df565b610fbf338383611abc565b600a546001600160a01b031633146112be5760405162461bcd60e51b81526004016107df9061282e565b600e805460ff1916911515919091179055565b6112db33836116f7565b6112f75760405162461bcd60e51b81526004016107df90612863565b61130384848484611b8b565b50505050565b6000818152600260205260409020546060906001600160a01b03166113885760405162461bcd60e51b815260206004820152602f60248201527f4552433732314d657461646174613a2055524920717565727920666f72206e6f60448201526e3732bc34b9ba32b73a103a37b5b2b760891b60648201526084016107df565b6000611392611bbe565b905060008151116113b257604051806020016040528060008152506113dd565b806113bc84611bcd565b6040516020016113cd929190612767565b6040516020818303038152906040525b9392505050565b60006113f8600a546001600160a01b031690565b6001600160a01b0316336001600160a01b031614806114255750336000908152600f602052604090205415155b156114305750600190565b50600e5460ff1690565b600a546001600160a01b031633146114645760405162461bcd60e51b81526004016107df9061282e565b6001600160a01b0381166114c95760405162461bcd60e51b815260206004820152602660248201527f4f776e61626c653a206e6577206f776e657220697320746865207a65726f206160448201526564647265737360d01b60648201526084016107df565b6114d2816119ce565b50565b600a546001600160a01b031633146114ff5760405162461bcd60e51b81526004016107df9061282e565b600d55565b6040805180820190915260018152603f60f81b60208201526060906115396001600160a01b0385166380ac58cd60e01b611998565b156115c15760405163c87b56dd60e01b8152600481018490526001600160a01b0385169063c87b56dd9060240160006040518083038186803b15801561157e57600080fd5b505afa158015611592573d6000803e3d6000fd5b505050506040513d6000823e601f3d908101601f191682016040526115ba9190810190612654565b90506113dd565b6115db6001600160a01b038516636cdb3d1360e11b611998565b156113dd576040516303a24d0760e21b8152600481018490526001600160a01b03851690630e89341c9060240160006040518083038186803b15801561162057600080fd5b505afa158015611634573d6000803e3d6000fd5b505050506040513d6000823e601f3d908101601f1916820160405261165c9190810190612654565b949350505050565b60006001600160e01b0319821663152a902d60e11b14806106d257506106d282611ccb565b600081815260046020526040902080546001600160a01b0319166001600160a01b03841690811790915581906116be82611009565b6001600160a01b03167f8c5be1e5ebec7d5bd14f71427d1e84f3dd0314c0f7b2291e5b200ac8c7c3b92560405160405180910390a45050565b6000818152600260205260408120546001600160a01b03166117705760405162461bcd60e51b815260206004820152602c60248201527f4552433732313a206f70657261746f7220717565727920666f72206e6f6e657860448201526b34b9ba32b73a103a37b5b2b760a11b60648201526084016107df565b600061177b83611009565b9050806001600160a01b0316846001600160a01b031614806117b65750836001600160a01b03166117ab8461076a565b6001600160a01b0316145b8061165c57506001600160a01b0380821660009081526005602090815260408083209388168352929052205460ff16949350505050565b826001600160a01b031661180082611009565b6001600160a01b0316146118685760405162461bcd60e51b815260206004820152602960248201527f4552433732313a207472616e73666572206f6620746f6b656e2074686174206960448201526839903737ba1037bbb760b91b60648201526084016107df565b6001600160a01b0382166118ca5760405162461bcd60e51b8152602060048201526024808201527f4552433732313a207472616e7366657220746f20746865207a65726f206164646044820152637265737360e01b60648201526084016107df565b6118d5838383611cf0565b6118e0600082611689565b6001600160a01b0383166000908152600360205260408120805460019290611909908490612958565b90915550506001600160a01b038216600090815260036020526040812080546001929061193790849061290d565b909155505060008181526002602052604080822080546001600160a01b0319166001600160a01b0386811691821790925591518493918716917fddf252ad1be2c89b69c2b068fc378daa952ba7f163c4a11628f55a4df523b3ef91a4505050565b60006119a383611da8565b80156113dd57506113dd8383611ddb565b610fbf828260405180602001604052806000815250611ec4565b600a80546001600160a01b038381166001600160a01b0319831681179093556040519116919082907f8be0079c531659141344cd1fd0a4f28419497f9722a3daafe3b4186f6b6457e090600090a35050565b612710811115611a725760405162461bcd60e51b815260206004820152601a60248201527f45524332393831526f79616c746965733a20546f6f206869676800000000000060448201526064016107df565b604080518082019091526001600160a01b0390921680835262ffffff9091166020909201829052600b8054600160a01b9093026001600160b81b0319909316909117919091179055565b816001600160a01b0316836001600160a01b03161415611b1e5760405162461bcd60e51b815260206004820152601960248201527f4552433732313a20617070726f766520746f2063616c6c65720000000000000060448201526064016107df565b6001600160a01b03838116600081815260056020908152604080832094871680845294825291829020805460ff191686151590811790915591519182527f17307eab39ab6107e8899845ad3d59bd9653f200f220920489ca2b5937696c31910160405180910390a3505050565b611b968484846117ed565b611ba284848484611ef7565b6113035760405162461bcd60e51b81526004016107df906127dc565b6060600c80546106e79061299b565b606081611bf15750506040805180820190915260018152600360fc1b602082015290565b8160005b8115611c1b5780611c05816129d6565b9150611c149050600a83612925565b9150611bf5565b60008167ffffffffffffffff811115611c3657611c36612a5d565b6040519080825280601f01601f191660200182016040528015611c60576020820181803683370190505b5090505b841561165c57611c75600183612958565b9150611c82600a866129f1565b611c8d90603061290d565b60f81b818381518110611ca257611ca2612a47565b60200101906001600160f81b031916908160001a905350611cc4600a86612925565b9450611c64565b60006001600160e01b0319821663780e9d6360e01b14806106d257506106d282612004565b6001600160a01b038316611d4b57611d4681600880546000838152600960205260408120829055600182018355919091527ff3f7a9fe364faab93b216da50a3214154f22a0a2b415b23a84c8169e8b636ee30155565b611d6e565b816001600160a01b0316836001600160a01b031614611d6e57611d6e8382612054565b6001600160a01b038216611d8557610915816120f1565b826001600160a01b0316826001600160a01b0316146109155761091582826121a0565b6000611dbb826301ffc9a760e01b611ddb565b80156106d25750611dd4826001600160e01b0319611ddb565b1592915050565b604080516001600160e01b0319831660248083019190915282518083039091018152604490910182526020810180516001600160e01b03166301ffc9a760e01b179052905160009190829081906001600160a01b0387169061753090611e4290869061274b565b6000604051808303818686fa925050503d8060008114611e7e576040519150601f19603f3d011682016040523d82523d6000602084013e611e83565b606091505b5091509150602081511015611e9e57600093505050506106d2565b818015611eba575080806020019051810190611eba91906125b4565b9695505050505050565b611ece83836121e4565b611edb6000848484611ef7565b6109155760405162461bcd60e51b81526004016107df906127dc565b60006001600160a01b0384163b15611ff957604051630a85bd0160e11b81526001600160a01b0385169063150b7a0290611f3b903390899088908890600401612796565b602060405180830381600087803b158015611f5557600080fd5b505af1925050508015611f85575060408051601f3d908101601f19168201909252611f82918101906125ee565b60015b611fdf573d808015611fb3576040519150601f19603f3d011682016040523d82523d6000602084013e611fb8565b606091505b508051611fd75760405162461bcd60e51b81526004016107df906127dc565b805181602001fd5b6001600160e01b031916630a85bd0160e11b14905061165c565b506001949350505050565b60006001600160e01b031982166380ac58cd60e01b148061203557506001600160e01b03198216635b5e139f60e01b145b806106d257506301ffc9a760e01b6001600160e01b03198316146106d2565b60006001612061846110d3565b61206b9190612958565b6000838152600760205260409020549091508082146120be576001600160a01b03841660009081526006602090815260408083208584528252808320548484528184208190558352600790915290208190555b5060009182526007602090815260408084208490556001600160a01b039094168352600681528383209183525290812055565b60085460009061210390600190612958565b6000838152600960205260408120546008805493945090928490811061212b5761212b612a47565b90600052602060002001549050806008838154811061214c5761214c612a47565b600091825260208083209091019290925582815260099091526040808220849055858252812055600880548061218457612184612a31565b6001900381819060005260206000200160009055905550505050565b60006121ab836110d3565b6001600160a01b039093166000908152600660209081526040808320868452825280832085905593825260079052919091209190915550565b6001600160a01b03821661223a5760405162461bcd60e51b815260206004820181905260248201527f4552433732313a206d696e7420746f20746865207a65726f206164647265737360448201526064016107df565b6000818152600260205260409020546001600160a01b03161561229f5760405162461bcd60e51b815260206004820152601c60248201527f4552433732313a20746f6b656e20616c7265616479206d696e7465640000000060448201526064016107df565b6122ab60008383611cf0565b6001600160a01b03821660009081526003602052604081208054600192906122d490849061290d565b909155505060008181526002602052604080822080546001600160a01b0319166001600160a01b03861690811790915590518392907fddf252ad1be2c89b69c2b068fc378daa952ba7f163c4a11628f55a4df523b3ef908290a45050565b82805461233e9061299b565b90600052602060002090601f01602090048101928261236057600085556123a6565b82601f1061237957805160ff19168380011785556123a6565b828001600101855582156123a6579182015b828111156123a657825182559160200191906001019061238b565b506123b29291506123b6565b5090565b5b808211156123b257600081556001016123b7565b60006123de6123d9846128e5565b6128b4565b90508281528383830111156123f257600080fd5b828260208301376000602084830101529392505050565b60006020828403121561241b57600080fd5b81356113dd81612a73565b60006020828403121561243857600080fd5b81516113dd81612a73565b6000806040838503121561245657600080fd5b823561246181612a73565b9150602083013561247181612a73565b809150509250929050565b60008060006060848603121561249157600080fd5b833561249c81612a73565b925060208401356124ac81612a73565b929592945050506040919091013590565b600080600080608085870312156124d357600080fd5b84356124de81612a73565b935060208501356124ee81612a73565b925060408501359150606085013567ffffffffffffffff81111561251157600080fd5b8501601f8101871361252257600080fd5b612531878235602084016123cb565b91505092959194509250565b6000806040838503121561255057600080fd5b823561255b81612a73565b9150602083013561247181612a88565b6000806040838503121561257e57600080fd5b823561258981612a73565b946020939093013593505050565b6000602082840312156125a957600080fd5b81356113dd81612a88565b6000602082840312156125c657600080fd5b81516113dd81612a88565b6000602082840312156125e357600080fd5b81356113dd81612a96565b60006020828403121561260057600080fd5b81516113dd81612a96565b60006020828403121561261d57600080fd5b813567ffffffffffffffff81111561263457600080fd5b8201601f8101841361264557600080fd5b61165c848235602084016123cb565b60006020828403121561266657600080fd5b815167ffffffffffffffff81111561267d57600080fd5b8201601f8101841361268e57600080fd5b805161269c6123d9826128e5565b8181528560208385010111156126b157600080fd5b6126c282602083016020860161296f565b95945050505050565b6000602082840312156126dd57600080fd5b5035919050565b6000602082840312156126f657600080fd5b5051919050565b6000806040838503121561271057600080fd5b50508035926020909101359150565b6000815180845261273781602086016020860161296f565b601f01601f19169290920160200192915050565b6000825161275d81846020870161296f565b9190910192915050565b6000835161277981846020880161296f565b83519083019061278d81836020880161296f565b01949350505050565b6001600160a01b0385811682528416602082015260408101839052608060608201819052600090611eba9083018461271f565b6020815260006113dd602083018461271f565b60208082526032908201527f4552433732313a207472616e7366657220746f206e6f6e20455243373231526560408201527131b2b4bb32b91034b6b83632b6b2b73a32b960711b606082015260800190565b6020808252818101527f4f776e61626c653a2063616c6c6572206973206e6f7420746865206f776e6572604082015260600190565b60208082526031908201527f4552433732313a207472616e736665722063616c6c6572206973206e6f74206f6040820152701ddb995c881b9bdc88185c1c1c9bdd9959607a1b606082015260800190565b604051601f8201601f1916810167ffffffffffffffff811182821017156128dd576128dd612a5d565b604052919050565b600067ffffffffffffffff8211156128ff576128ff612a5d565b50601f01601f191660200190565b6000821982111561292057612920612a05565b500190565b60008261293457612934612a1b565b500490565b600081600019048311821515161561295357612953612a05565b500290565b60008282101561296a5761296a612a05565b500390565b60005b8381101561298a578181015183820152602001612972565b838111156113035750506000910152565b600181811c908216806129af57607f821691505b602082108114156129d057634e487b7160e01b600052602260045260246000fd5b50919050565b60006000198214156129ea576129ea612a05565b5060010190565b600082612a0057612a00612a1b565b500690565b634e487b7160e01b600052601160045260246000fd5b634e487b7160e01b600052601260045260246000fd5b634e487b7160e01b600052603160045260246000fd5b634e487b7160e01b600052603260045260246000fd5b634e487b7160e01b600052604160045260246000fd5b6001600160a01b03811681146114d257600080fd5b80151581146114d257600080fd5b6001600160e01b0319811681146114d257600080fdfea264697066735822122065eeb70781bbb911e0640e013f9f0cb44bbcb08d2d2f0440c43d4177e49b59c664736f6c634300080700334f776e61626c653a2063616c6c6572206973206e6f7420746865206f776e6572",
  "linkReferences": {},
  "deployedLinkReferences": {}
}