{
  "_format": "hh-sol-artifact-1",
  "contractName": "Assemblage",
  "sourceName": "contracts/Assemblage.sol",
  "abi": [
    {
      "inputs": [],
      "stateMutability": "nonpayable",
      "type": "constructor"
    },
    {
      "anonymous": false,
      "inputs": [
        {
          "indexed": true,
          "internalType": "address",
          "name": "owner",
          "type": "address"
        },
        {
          "indexed": true,
          "internalType": "address",
          "name": "approved",
          "type": "address"
        },
        {
          "indexed": true,
          "internalType": "uint256",
          "name": "tokenId",
          "type": "uint256"
        }
      ],
      "name": "Approval",
      "type": "event"
    },
    {
      "anonymous": false,
      "inputs": [
        {
          "indexed": true,
          "internalType": "address",
          "name": "owner",
          "type": "address"
        },
        {
          "indexed": true,
          "internalType": "address",
          "name": "operator",
          "type": "address"
        },
        {
          "indexed": false,
          "internalType": "bool",
          "name": "approved",
          "type": "bool"
        }
      ],
      "name": "ApprovalForAll",
      "type": "event"
    },
    {
      "anonymous": false,
      "inputs": [
        {
          "indexed": true,
          "internalType": "address",
          "name": "previousOwner",
          "type": "address"
        },
        {
          "indexed": true,
          "internalType": "address",
          "name": "newOwner",
          "type": "address"
        }
      ],
      "name": "OwnershipTransferred",
      "type": "event"
    },
    {
      "anonymous": false,
      "inputs": [
        {
          "components": [
            {
              "internalType": "address",
              "name": "sourceContract",
              "type": "address"
            },
            {
              "internalType": "uint256",
              "name": "sourceTokenId",
              "type": "uint256"
            }
          ],
          "indexed": false,
          "internalType": "struct Assemblage.SourceToken",
          "name": "",
          "type": "tuple"
        },
        {
          "indexed": false,
          "internalType": "uint256",
          "name": "tokenId",
          "type": "uint256"
        },
        {
          "indexed": false,
          "internalType": "address",
          "name": "to",
          "type": "address"
        }
      ],
      "name": "SourceTokenMinted",
      "type": "event"
    },
    {
      "anonymous": false,
      "inputs": [
        {
          "indexed": true,
          "internalType": "address",
          "name": "from",
          "type": "address"
        },
        {
          "indexed": true,
          "internalType": "address",
          "name": "to",
          "type": "address"
        },
        {
          "indexed": true,
          "internalType": "uint256",
          "name": "tokenId",
          "type": "uint256"
        }
      ],
      "name": "Transfer",
      "type": "event"
    },
    {
      "inputs": [
        {
          "internalType": "address",
          "name": "to",
          "type": "address"
        },
        {
          "internalType": "uint256",
          "name": "tokenId",
          "type": "uint256"
        }
      ],
      "name": "approve",
      "outputs": [],
      "stateMutability": "nonpayable",
      "type": "function"
    },
    {
      "inputs": [
        {
          "internalType": "address",
          "name": "owner",
          "type": "address"
        }
      ],
      "name": "balanceOf",
      "outputs": [
        {
          "internalType": "uint256",
          "name": "",
          "type": "uint256"
        }
      ],
      "stateMutability": "view",
      "type": "function"
    },
    {
      "inputs": [
        {
          "internalType": "address",
          "name": "",
          "type": "address"
        }
      ],
      "name": "freeloaders",
      "outputs": [
        {
          "internalType": "uint256",
          "name": "",
          "type": "uint256"
        }
      ],
      "stateMutability": "view",
      "type": "function"
    },
    {
      "inputs": [
        {
          "internalType": "uint256",
          "name": "tokenId",
          "type": "uint256"
        }
      ],
      "name": "getApproved",
      "outputs": [
        {
          "internalType": "address",
          "name": "",
          "type": "address"
        }
      ],
      "stateMutability": "view",
      "type": "function"
    },
    {
      "inputs": [
        {
          "internalType": "address",
          "name": "_address",
          "type": "address"
        }
      ],
      "name": "getFreeloaderCount",
      "outputs": [
        {
          "internalType": "uint256",
          "name": "",
          "type": "uint256"
        }
      ],
      "stateMutability": "view",
      "type": "function"
    },
    {
      "inputs": [
        {
          "internalType": "address",
          "name": "owner",
          "type": "address"
        },
        {
          "internalType": "address",
          "name": "operator",
          "type": "address"
        }
      ],
      "name": "isApprovedForAll",
      "outputs": [
        {
          "internalType": "bool",
          "name": "",
          "type": "bool"
        }
      ],
      "stateMutability": "view",
      "type": "function"
    },
    {
      "inputs": [],
      "name": "maxSupply",
      "outputs": [
        {
          "internalType": "uint256",
          "name": "",
          "type": "uint256"
        }
      ],
      "stateMutability": "view",
      "type": "function"
    },
    {
      "inputs": [
        {
          "internalType": "address",
          "name": "sourceContract",
          "type": "address"
        },
        {
          "internalType": "uint256",
          "name": "sourceTokenId",
          "type": "uint256"
        }
      ],
      "name": "mint",
      "outputs": [],
      "stateMutability": "payable",
      "type": "function"
    },
    {
      "inputs": [],
      "name": "mintPrice",
      "outputs": [
        {
          "internalType": "uint256",
          "name": "",
          "type": "uint256"
        }
      ],
      "stateMutability": "view",
      "type": "function"
    },
    {
      "inputs": [],
      "name": "name",
      "outputs": [
        {
          "internalType": "string",
          "name": "",
          "type": "string"
        }
      ],
      "stateMutability": "view",
      "type": "function"
    },
    {
      "inputs": [],
      "name": "owner",
      "outputs": [
        {
          "internalType": "address",
          "name": "",
          "type": "address"
        }
      ],
      "stateMutability": "view",
      "type": "function"
    },
    {
      "inputs": [
        {
          "internalType": "uint256",
          "name": "tokenId",
          "type": "uint256"
        }
      ],
      "name": "ownerOf",
      "outputs": [
        {
          "internalType": "address",
          "name": "",
          "type": "address"
        }
      ],
      "stateMutability": "view",
      "type": "function"
    },
    {
      "inputs": [],
      "name": "renounceOwnership",
      "outputs": [],
      "stateMutability": "nonpayable",
      "type": "function"
    },
    {
      "inputs": [
        {
          "internalType": "uint256",
          "name": "",
          "type": "uint256"
        },
        {
          "internalType": "uint256",
          "name": "value",
          "type": "uint256"
        }
      ],
      "name": "royaltyInfo",
      "outputs": [
        {
          "internalType": "address",
          "name": "receiver",
          "type": "address"
        },
        {
          "internalType": "uint256",
          "name": "royaltyAmount",
          "type": "uint256"
        }
      ],
      "stateMutability": "view",
      "type": "function"
    },
    {
      "inputs": [
        {
          "internalType": "address",
          "name": "from",
          "type": "address"
        },
        {
          "internalType": "address",
          "name": "to",
          "type": "address"
        },
        {
          "internalType": "uint256",
          "name": "tokenId",
          "type": "uint256"
        }
      ],
      "name": "safeTransferFrom",
      "outputs": [],
      "stateMutability": "nonpayable",
      "type": "function"
    },
    {
      "inputs": [
        {
          "internalType": "address",
          "name": "from",
          "type": "address"
        },
        {
          "internalType": "address",
          "name": "to",
          "type": "address"
        },
        {
          "internalType": "uint256",
          "name": "tokenId",
          "type": "uint256"
        },
        {
          "internalType": "bytes",
          "name": "_data",
          "type": "bytes"
        }
      ],
      "name": "safeTransferFrom",
      "outputs": [],
      "stateMutability": "nonpayable",
      "type": "function"
    },
    {
      "inputs": [
        {
          "internalType": "address",
          "name": "operator",
          "type": "address"
        },
        {
          "internalType": "bool",
          "name": "approved",
          "type": "bool"
        }
      ],
      "name": "setApprovalForAll",
      "outputs": [],
      "stateMutability": "nonpayable",
      "type": "function"
    },
    {
      "inputs": [
        {
          "internalType": "string",
          "name": "newBaseURI",
          "type": "string"
        },
        {
          "internalType": "string",
          "name": "newExtensionURI",
          "type": "string"
        }
      ],
      "name": "setBaseURI",
      "outputs": [],
      "stateMutability": "nonpayable",
      "type": "function"
    },
    {
      "inputs": [
        {
          "internalType": "uint256",
          "name": "_newCost",
          "type": "uint256"
        }
      ],
      "name": "setCost",
      "outputs": [],
      "stateMutability": "nonpayable",
      "type": "function"
    },
    {
      "inputs": [
        {
          "internalType": "address",
          "name": "_address",
          "type": "address"
        },
        {
          "internalType": "uint256",
          "name": "amount",
          "type": "uint256"
        }
      ],
      "name": "setFreeloader",
      "outputs": [],
      "stateMutability": "nonpayable",
      "type": "function"
    },
    {
      "inputs": [
        {
          "internalType": "address",
          "name": "recipient",
          "type": "address"
        },
        {
          "internalType": "uint256",
          "name": "value",
          "type": "uint256"
        }
      ],
      "name": "setRoyalties",
      "outputs": [],
      "stateMutability": "nonpayable",
      "type": "function"
    },
    {
      "inputs": [
        {
          "internalType": "address",
          "name": "sourceContract",
          "type": "address"
        },
        {
          "internalType": "uint256",
          "name": "sourceTokenId",
          "type": "uint256"
        }
      ],
      "name": "sourceTokenURI",
      "outputs": [
        {
          "internalType": "string",
          "name": "",
          "type": "string"
        }
      ],
      "stateMutability": "view",
      "type": "function"
    },
    {
      "inputs": [
        {
          "internalType": "uint256",
          "name": "",
          "type": "uint256"
        }
      ],
      "name": "sourceTokens",
      "outputs": [
        {
          "internalType": "address",
          "name": "sourceContract",
          "type": "address"
        },
        {
          "internalType": "uint256",
          "name": "sourceTokenId",
          "type": "uint256"
        }
      ],
      "stateMutability": "view",
      "type": "function"
    },
    {
      "inputs": [
        {
          "internalType": "bytes4",
          "name": "interfaceId",
          "type": "bytes4"
        }
      ],
      "name": "supportsInterface",
      "outputs": [
        {
          "internalType": "bool",
          "name": "",
          "type": "bool"
        }
      ],
      "stateMutability": "view",
      "type": "function"
    },
    {
      "inputs": [],
      "name": "symbol",
      "outputs": [
        {
          "internalType": "string",
          "name": "",
          "type": "string"
        }
      ],
      "stateMutability": "view",
      "type": "function"
    },
    {
      "inputs": [
        {
          "internalType": "uint256",
          "name": "index",
          "type": "uint256"
        }
      ],
      "name": "tokenByIndex",
      "outputs": [
        {
          "internalType": "uint256",
          "name": "",
          "type": "uint256"
        }
      ],
      "stateMutability": "view",
      "type": "function"
    },
    {
      "inputs": [
        {
          "internalType": "address",
          "name": "owner",
          "type": "address"
        },
        {
          "internalType": "uint256",
          "name": "index",
          "type": "uint256"
        }
      ],
      "name": "tokenOfOwnerByIndex",
      "outputs": [
        {
          "internalType": "uint256",
          "name": "",
          "type": "uint256"
        }
      ],
      "stateMutability": "view",
      "type": "function"
    },
    {
      "inputs": [
        {
          "internalType": "uint256",
          "name": "tokenId",
          "type": "uint256"
        }
      ],
      "name": "tokenURI",
      "outputs": [
        {
          "internalType": "string",
          "name": "",
          "type": "string"
        }
      ],
      "stateMutability": "view",
      "type": "function"
    },
    {
      "inputs": [],
      "name": "totalSupply",
      "outputs": [
        {
          "internalType": "uint256",
          "name": "",
          "type": "uint256"
        }
      ],
      "stateMutability": "view",
      "type": "function"
    },
    {
      "inputs": [
        {
          "internalType": "address",
          "name": "from",
          "type": "address"
        },
        {
          "internalType": "address",
          "name": "to",
          "type": "address"
        },
        {
          "internalType": "uint256",
          "name": "tokenId",
          "type": "uint256"
        }
      ],
      "name": "transferFrom",
      "outputs": [],
      "stateMutability": "nonpayable",
      "type": "function"
    },
    {
      "inputs": [
        {
          "internalType": "address",
          "name": "newOwner",
          "type": "address"
        }
      ],
      "name": "transferOwnership",
      "outputs": [],
      "stateMutability": "nonpayable",
      "type": "function"
    },
    {
      "inputs": [],
      "name": "withdrawEth",
      "outputs": [],
      "stateMutability": "nonpayable",
      "type": "function"
    }
  ],
  "bytecode": "0x60c0604052602060808190527f68747470733a2f2f6170692e617373656d626c6167652e65652f746f6b656e2f60a09081526200004091600c91906200030a565b5060408051808201909152600580825264173539b7b760d91b60209092019182526200006f91600d916200030a565b5066f8b0a10e470000600e553480156200008857600080fd5b50604080518082018252600a815269417373656d626c61676560b01b60208083019182528351808501909452600384526210509360ea1b908401528151919291620000d6916000916200030a565b508051620000ec9060019060208401906200030a565b50505062000109620001036200015060201b60201c565b62000154565b6200012a73c722f9adc49fce183c78b46b2d58c8c30b9a6e846003620001a6565b6200014a62000141600a546001600160a01b031690565b61030262000211565b620003ed565b3390565b600a80546001600160a01b038381166001600160a01b0319831681179093556040519116919082907f8be0079c531659141344cd1fd0a4f28419497f9722a3daafe3b4186f6b6457e090600090a35050565b600a546001600160a01b03163314620001f55760405162461bcd60e51b8152602060048201819052602482015260008051602062002f1f83398151915260448201526064015b60405180910390fd5b6001600160a01b039091166000908152600f6020526040902055565b600a546001600160a01b031633146200025c5760405162461bcd60e51b8152602060048201819052602482015260008051602062002f1f8339815191526044820152606401620001ec565b6200026882826200026c565b5050565b612710811115620002c05760405162461bcd60e51b815260206004820152601a60248201527f45524332393831526f79616c746965733a20546f6f20686967680000000000006044820152606401620001ec565b604080518082019091526001600160a01b0390921680835262ffffff9091166020909201829052600b8054600160a01b9093026001600160b81b0319909316909117919091179055565b8280546200031890620003b0565b90600052602060002090601f0160209004810192826200033c576000855562000387565b82601f106200035757805160ff191683800117855562000387565b8280016001018555821562000387579182015b82811115620003875782518255916020019190600101906200036a565b506200039592915062000399565b5090565b5b808211156200039557600081556001016200039a565b600181811c90821680620003c557607f821691505b60208210811415620003e757634e487b7160e01b600052602260045260246000fd5b50919050565b612b2280620003fd6000396000f3fe6080604052600436106101e35760003560e01c80636817c76c11610102578063b88d4fde11610095578063e985e9c511610064578063e985e9c514610595578063eb53ef52146105de578063f2fde38b1461061e578063f956c1031461063e57600080fd5b8063b88d4fde14610509578063c265e6ae14610529578063c87b56dd1461055f578063d5abeb011461057f57600080fd5b80638da5cb5b116100d15780638da5cb5b146104a157806395d89b41146104bf578063a0ef91df146104d4578063a22cb465146104e957600080fd5b80636817c76c1461043757806370a082311461044c578063715018a61461046c5780638c7ea24b1461048157600080fd5b806340c10f191161017a5780634f6ccce7116101495780634f6ccce7146103b757806358430171146103d75780636352211e146103f75780636790a9de1461041757600080fd5b806340c10f19146103375780634137171c1461034a57806342842e0e1461037757806344a0d68a1461039757600080fd5b806318160ddd116101b657806318160ddd1461029957806323b872dd146102b85780632a55205a146102d85780632f745c591461031757600080fd5b806301ffc9a7146101e857806306fdde031461021d578063081812fc1461023f578063095ea7b314610277575b600080fd5b3480156101f457600080fd5b5061020861020336600461254b565b61065e565b60405190151581526020015b60405180910390f35b34801561022957600080fd5b5061023261066f565b60405161021491906127e4565b34801561024b57600080fd5b5061025f61025a36600461264d565b610701565b6040516001600160a01b039091168152602001610214565b34801561028357600080fd5b50610297610292366004612504565b61079b565b005b3480156102a557600080fd5b506008545b604051908152602001610214565b3480156102c457600080fd5b506102976102d336600461241a565b6108b1565b3480156102e457600080fd5b506102f86102f336600461267d565b6108e2565b604080516001600160a01b039093168352602083019190915201610214565b34801561032357600080fd5b506102aa610332366004612504565b610937565b610297610345366004612504565b6109cd565b34801561035657600080fd5b506102aa6103653660046123aa565b600f6020526000908152604090205481565b34801561038357600080fd5b5061029761039236600461241a565b610e8a565b3480156103a357600080fd5b506102976103b236600461264d565b610ea5565b3480156103c357600080fd5b506102aa6103d236600461264d565b610ed4565b3480156103e357600080fd5b506102976103f2366004612504565b610f75565b34801561040357600080fd5b5061025f61041236600461264d565b610fbb565b34801561042357600080fd5b506102976104323660046125f6565b611032565b34801561044357600080fd5b506102aa611083565b34801561045857600080fd5b506102aa6104673660046123aa565b6110d6565b34801561047857600080fd5b5061029761115d565b34801561048d57600080fd5b5061029761049c366004612504565b611193565b3480156104ad57600080fd5b50600a546001600160a01b031661025f565b3480156104cb57600080fd5b506102326111cb565b3480156104e057600080fd5b506102976111da565b3480156104f557600080fd5b506102976105043660046124d7565b611290565b34801561051557600080fd5b5061029761052436600461245a565b61129b565b34801561053557600080fd5b506102aa6105443660046123aa565b6001600160a01b03166000908152600f602052604090205490565b34801561056b57600080fd5b5061023261057a36600461264d565b6112d3565b34801561058b57600080fd5b506102aa611e6181565b3480156105a157600080fd5b506102086105b03660046123e2565b6001600160a01b03918216600090815260056020908152604080832093909416825291909152205460ff1690565b3480156105ea57600080fd5b506102f86105f936600461264d565b601060205260009081526040902080546001909101546001600160a01b039091169082565b34801561062a57600080fd5b506102976106393660046123aa565b6113b1565b34801561064a57600080fd5b50610232610659366004612504565b61144c565b6000610669826115ae565b92915050565b60606000805461067e90612a07565b80601f01602080910402602001604051908101604052809291908181526020018280546106aa90612a07565b80156106f75780601f106106cc576101008083540402835291602001916106f7565b820191906000526020600020905b8154815290600101906020018083116106da57829003601f168201915b5050505050905090565b6000818152600260205260408120546001600160a01b031661077f5760405162461bcd60e51b815260206004820152602c60248201527f4552433732313a20617070726f76656420717565727920666f72206e6f6e657860448201526b34b9ba32b73a103a37b5b2b760a11b60648201526084015b60405180910390fd5b506000908152600460205260409020546001600160a01b031690565b60006107a682610fbb565b9050806001600160a01b0316836001600160a01b031614156108145760405162461bcd60e51b815260206004820152602160248201527f4552433732313a20617070726f76616c20746f2063757272656e74206f776e656044820152603960f91b6064820152608401610776565b336001600160a01b0382161480610830575061083081336105b0565b6108a25760405162461bcd60e51b815260206004820152603860248201527f4552433732313a20617070726f76652063616c6c6572206973206e6f74206f7760448201527f6e6572206e6f7220617070726f76656420666f7220616c6c00000000000000006064820152608401610776565b6108ac83836115d3565b505050565b6108bb3382611641565b6108d75760405162461bcd60e51b8152600401610776906128cf565b6108ac838383611738565b60408051808201909152600b546001600160a01b038116808352600160a01b90910462ffffff166020830181905290916000916127109061092390866129a5565b61092d9190612991565b9150509250929050565b6000610942836110d6565b82106109a45760405162461bcd60e51b815260206004820152602b60248201527f455243373231456e756d657261626c653a206f776e657220696e646578206f7560448201526a74206f6620626f756e647360a81b6064820152608401610776565b506001600160a01b03919091166000908152600660209081526040808320938352929052205490565b611e616109d960085490565b10610a1c5760405162461bcd60e51b815260206004820152601360248201527214dd5c1c1b1e481a5cc8195e1a185d5cdd1959606a1b6044820152606401610776565b600a546001600160a01b03163314610a9957336000908152600f6020526040902054610a9957610a4a611083565b341015610a995760405162461bcd60e51b815260206004820152601b60248201527f496e73756666696369656e742076616c756520666f72206d696e7400000000006044820152606401610776565b6001600160a01b038216600090815260116020908152604080832084845290915290205460ff1615610b0d5760405162461bcd60e51b815260206004820152601e60248201527f5468697320746f6b656e2077617320616c7265616479206d696e7465642100006044820152606401610776565b610b276001600160a01b0383166380ac58cd60e01b6118e3565b15610c1a576040516331a9108f60e11b81526004810182905233906001600160a01b03841690636352211e9060240160206040518083038186803b158015610b6e57600080fd5b505afa158015610b82573d6000803e3d6000fd5b505050506040513d601f19601f82011682018060405250810190610ba691906123c6565b6001600160a01b031614610c155760405162461bcd60e51b815260206004820152603060248201527f596f7520646f206e6f74206f776e207468697320746f6b656e20696e2074686560448201526f081cdbdd5c98d94818dbdb9d1c9858dd60821b6064820152608401610776565b610d6c565b610c346001600160a01b038316636cdb3d1360e11b6118e3565b15610cd557604051627eeac760e11b8152336004820152602481018290526000906001600160a01b0384169062fdd58e9060440160206040518083038186803b158015610c8057600080fd5b505afa158015610c94573d6000803e3d6000fd5b505050506040513d601f19601f82011682018060405250810190610cb89190612665565b11610c155760405162461bcd60e51b81526004016107769061287e565b6040516370a0823160e01b81523360048201526000906001600160a01b038416906370a082319060240160206040518083038186803b158015610d1757600080fd5b505afa158015610d2b573d6000803e3d6000fd5b505050506040513d601f19601f82011682018060405250810190610d4f9190612665565b11610d6c5760405162461bcd60e51b81526004016107769061287e565b6000610d7760085490565b336000908152600f602052604090205490915015610db557336000908152600f60205260408120805460019290610daf9084906129c4565b90915550505b6040805180820182526001600160a01b038581168252602080830186815260008681526010909252939020825181546001600160a01b03191692169190911781559151600190920191909155610e0b33836118ff565b6001600160a01b038481166000908152601160209081526040808320878452825291829020805460ff19166001179055815184519093168352838101519083015281018390523360608201527f670e7290204c50f0ab4452d3e4a7534e1e511f6098ad647a5f9e2727356a01489060800160405180910390a150505050565b6108ac8383836040518060200160405280600081525061129b565b600a546001600160a01b03163314610ecf5760405162461bcd60e51b815260040161077690612849565b600e55565b6000610edf60085490565b8210610f425760405162461bcd60e51b815260206004820152602c60248201527f455243373231456e756d657261626c653a20676c6f62616c20696e646578206f60448201526b7574206f6620626f756e647360a01b6064820152608401610776565b60088281548110610f6357634e487b7160e01b600052603260045260246000fd5b90600052602060002001549050919050565b600a546001600160a01b03163314610f9f5760405162461bcd60e51b815260040161077690612849565b6001600160a01b039091166000908152600f6020526040902055565b6000818152600260205260408120546001600160a01b0316806106695760405162461bcd60e51b815260206004820152602960248201527f4552433732313a206f776e657220717565727920666f72206e6f6e657869737460448201526832b73a103a37b5b2b760b91b6064820152608401610776565b600a546001600160a01b0316331461105c5760405162461bcd60e51b815260040161077690612849565b815161106f90600c9060208501906122b4565b5080516108ac90600d9060208401906122b4565b6000611097600a546001600160a01b031690565b6001600160a01b0316336001600160a01b031614806110c45750336000908152600f602052604090205415155b156110cf5750600090565b50600e5490565b60006001600160a01b0382166111415760405162461bcd60e51b815260206004820152602a60248201527f4552433732313a2062616c616e636520717565727920666f7220746865207a65604482015269726f206164647265737360b01b6064820152608401610776565b506001600160a01b031660009081526003602052604090205490565b600a546001600160a01b031633146111875760405162461bcd60e51b815260040161077690612849565b6111916000611919565b565b600a546001600160a01b031633146111bd5760405162461bcd60e51b815260040161077690612849565b6111c7828261196b565b5050565b60606001805461067e90612a07565b600a546001600160a01b031633146112045760405162461bcd60e51b815260040161077690612849565b6040514790600090339083908381818185875af1925050503d8060008114611248576040519150601f19603f3d011682016040523d82523d6000602084013e61124d565b606091505b50509050806111c75760405162461bcd60e51b815260206004820152600f60248201526e15da5d1a191c985dc819985a5b1959608a1b6044820152606401610776565b6111c7338383611a07565b6112a53383611641565b6112c15760405162461bcd60e51b8152600401610776906128cf565b6112cd84848484611ad6565b50505050565b6000818152600260205260409020546060906001600160a01b03166113525760405162461bcd60e51b815260206004820152602f60248201527f4552433732314d657461646174613a2055524920717565727920666f72206e6f60448201526e3732bc34b9ba32b73a103a37b5b2b760891b6064820152608401610776565b6000600c805461136190612a07565b90501161137d5760405180602001604052806000815250610669565b600c61138883611b09565b600d60405160200161139c9392919061277e565b60405160208183030381529060405292915050565b600a546001600160a01b031633146113db5760405162461bcd60e51b815260040161077690612849565b6001600160a01b0381166114405760405162461bcd60e51b815260206004820152602660248201527f4f776e61626c653a206e6577206f776e657220697320746865207a65726f206160448201526564647265737360d01b6064820152608401610776565b61144981611919565b50565b6040805180820190915260018152603f60f81b60208201526060906114816001600160a01b0385166380ac58cd60e01b6118e3565b156115095760405163c87b56dd60e01b8152600481018490526001600160a01b0385169063c87b56dd9060240160006040518083038186803b1580156114c657600080fd5b505afa1580156114da573d6000803e3d6000fd5b505050506040513d6000823e601f3d908101601f191682016040526115029190810190612583565b90506115a7565b6115236001600160a01b038516636cdb3d1360e11b6118e3565b156115a7576040516303a24d0760e21b8152600481018490526001600160a01b03851690630e89341c9060240160006040518083038186803b15801561156857600080fd5b505afa15801561157c573d6000803e3d6000fd5b505050506040513d6000823e601f3d908101601f191682016040526115a49190810190612583565b90505b9392505050565b60006001600160e01b0319821663152a902d60e11b1480610669575061066982611c23565b600081815260046020526040902080546001600160a01b0319166001600160a01b038416908117909155819061160882610fbb565b6001600160a01b03167f8c5be1e5ebec7d5bd14f71427d1e84f3dd0314c0f7b2291e5b200ac8c7c3b92560405160405180910390a45050565b6000818152600260205260408120546001600160a01b03166116ba5760405162461bcd60e51b815260206004820152602c60248201527f4552433732313a206f70657261746f7220717565727920666f72206e6f6e657860448201526b34b9ba32b73a103a37b5b2b760a11b6064820152608401610776565b60006116c583610fbb565b9050806001600160a01b0316846001600160a01b031614806117005750836001600160a01b03166116f584610701565b6001600160a01b0316145b8061173057506001600160a01b0380821660009081526005602090815260408083209388168352929052205460ff165b949350505050565b826001600160a01b031661174b82610fbb565b6001600160a01b0316146117b35760405162461bcd60e51b815260206004820152602960248201527f4552433732313a207472616e73666572206f6620746f6b656e2074686174206960448201526839903737ba1037bbb760b91b6064820152608401610776565b6001600160a01b0382166118155760405162461bcd60e51b8152602060048201526024808201527f4552433732313a207472616e7366657220746f20746865207a65726f206164646044820152637265737360e01b6064820152608401610776565b611820838383611c48565b61182b6000826115d3565b6001600160a01b03831660009081526003602052604081208054600192906118549084906129c4565b90915550506001600160a01b0382166000908152600360205260408120805460019290611882908490612979565b909155505060008181526002602052604080822080546001600160a01b0319166001600160a01b0386811691821790925591518493918716917fddf252ad1be2c89b69c2b068fc378daa952ba7f163c4a11628f55a4df523b3ef91a4505050565b60006118ee83611d00565b80156115a757506115a78383611d33565b6111c7828260405180602001604052806000815250611e1c565b600a80546001600160a01b038381166001600160a01b0319831681179093556040519116919082907f8be0079c531659141344cd1fd0a4f28419497f9722a3daafe3b4186f6b6457e090600090a35050565b6127108111156119bd5760405162461bcd60e51b815260206004820152601a60248201527f45524332393831526f79616c746965733a20546f6f20686967680000000000006044820152606401610776565b604080518082019091526001600160a01b0390921680835262ffffff9091166020909201829052600b8054600160a01b9093026001600160b81b0319909316909117919091179055565b816001600160a01b0316836001600160a01b03161415611a695760405162461bcd60e51b815260206004820152601960248201527f4552433732313a20617070726f766520746f2063616c6c6572000000000000006044820152606401610776565b6001600160a01b03838116600081815260056020908152604080832094871680845294825291829020805460ff191686151590811790915591519182527f17307eab39ab6107e8899845ad3d59bd9653f200f220920489ca2b5937696c31910160405180910390a3505050565b611ae1848484611738565b611aed84848484611e4f565b6112cd5760405162461bcd60e51b8152600401610776906127f7565b606081611b2d5750506040805180820190915260018152600360fc1b602082015290565b8160005b8115611b575780611b4181612a42565b9150611b509050600a83612991565b9150611b31565b60008167ffffffffffffffff811115611b8057634e487b7160e01b600052604160045260246000fd5b6040519080825280601f01601f191660200182016040528015611baa576020820181803683370190505b5090505b841561173057611bbf6001836129c4565b9150611bcc600a86612a5d565b611bd7906030612979565b60f81b818381518110611bfa57634e487b7160e01b600052603260045260246000fd5b60200101906001600160f81b031916908160001a905350611c1c600a86612991565b9450611bae565b60006001600160e01b0319821663780e9d6360e01b1480610669575061066982611f5c565b6001600160a01b038316611ca357611c9e81600880546000838152600960205260408120829055600182018355919091527ff3f7a9fe364faab93b216da50a3214154f22a0a2b415b23a84c8169e8b636ee30155565b611cc6565b816001600160a01b0316836001600160a01b031614611cc657611cc68382611fac565b6001600160a01b038216611cdd576108ac81612049565b826001600160a01b0316826001600160a01b0316146108ac576108ac8282612122565b6000611d13826301ffc9a760e01b611d33565b80156106695750611d2c826001600160e01b0319611d33565b1592915050565b604080516001600160e01b0319831660248083019190915282518083039091018152604490910182526020810180516001600160e01b03166301ffc9a760e01b179052905160009190829081906001600160a01b0387169061753090611d9a908690612762565b6000604051808303818686fa925050503d8060008114611dd6576040519150601f19603f3d011682016040523d82523d6000602084013e611ddb565b606091505b5091509150602081511015611df65760009350505050610669565b818015611e12575080806020019051810190611e12919061252f565b9695505050505050565b611e268383612166565b611e336000848484611e4f565b6108ac5760405162461bcd60e51b8152600401610776906127f7565b60006001600160a01b0384163b15611f5157604051630a85bd0160e11b81526001600160a01b0385169063150b7a0290611e939033908990889088906004016127b1565b602060405180830381600087803b158015611ead57600080fd5b505af1925050508015611edd575060408051601f3d908101601f19168201909252611eda91810190612567565b60015b611f37573d808015611f0b576040519150601f19603f3d011682016040523d82523d6000602084013e611f10565b606091505b508051611f2f5760405162461bcd60e51b8152600401610776906127f7565b805181602001fd5b6001600160e01b031916630a85bd0160e11b149050611730565b506001949350505050565b60006001600160e01b031982166380ac58cd60e01b1480611f8d57506001600160e01b03198216635b5e139f60e01b145b8061066957506301ffc9a760e01b6001600160e01b0319831614610669565b60006001611fb9846110d6565b611fc391906129c4565b600083815260076020526040902054909150808214612016576001600160a01b03841660009081526006602090815260408083208584528252808320548484528184208190558352600790915290208190555b5060009182526007602090815260408084208490556001600160a01b039094168352600681528383209183525290812055565b60085460009061205b906001906129c4565b6000838152600960205260408120546008805493945090928490811061209157634e487b7160e01b600052603260045260246000fd5b9060005260206000200154905080600883815481106120c057634e487b7160e01b600052603260045260246000fd5b600091825260208083209091019290925582815260099091526040808220849055858252812055600880548061210657634e487b7160e01b600052603160045260246000fd5b6001900381819060005260206000200160009055905550505050565b600061212d836110d6565b6001600160a01b039093166000908152600660209081526040808320868452825280832085905593825260079052919091209190915550565b6001600160a01b0382166121bc5760405162461bcd60e51b815260206004820181905260248201527f4552433732313a206d696e7420746f20746865207a65726f20616464726573736044820152606401610776565b6000818152600260205260409020546001600160a01b0316156122215760405162461bcd60e51b815260206004820152601c60248201527f4552433732313a20746f6b656e20616c7265616479206d696e746564000000006044820152606401610776565b61222d60008383611c48565b6001600160a01b0382166000908152600360205260408120805460019290612256908490612979565b909155505060008181526002602052604080822080546001600160a01b0319166001600160a01b03861690811790915590518392907fddf252ad1be2c89b69c2b068fc378daa952ba7f163c4a11628f55a4df523b3ef908290a45050565b8280546122c090612a07565b90600052602060002090601f0160209004810192826122e25760008555612328565b82601f106122fb57805160ff1916838001178555612328565b82800160010185558215612328579182015b8281111561232857825182559160200191906001019061230d565b50612334929150612338565b5090565b5b808211156123345760008155600101612339565b600061236061235b84612951565b612920565b905082815283838301111561237457600080fd5b828260208301376000602084830101529392505050565b600082601f83011261239b578081fd5b6115a78383356020850161234d565b6000602082840312156123bb578081fd5b81356115a781612ab3565b6000602082840312156123d7578081fd5b81516115a781612ab3565b600080604083850312156123f4578081fd5b82356123ff81612ab3565b9150602083013561240f81612ab3565b809150509250929050565b60008060006060848603121561242e578081fd5b833561243981612ab3565b9250602084013561244981612ab3565b929592945050506040919091013590565b6000806000806080858703121561246f578081fd5b843561247a81612ab3565b9350602085013561248a81612ab3565b925060408501359150606085013567ffffffffffffffff8111156124ac578182fd5b8501601f810187136124bc578182fd5b6124cb8782356020840161234d565b91505092959194509250565b600080604083850312156124e9578182fd5b82356124f481612ab3565b9150602083013561240f81612ac8565b60008060408385031215612516578182fd5b823561252181612ab3565b946020939093013593505050565b600060208284031215612540578081fd5b81516115a781612ac8565b60006020828403121561255c578081fd5b81356115a781612ad6565b600060208284031215612578578081fd5b81516115a781612ad6565b600060208284031215612594578081fd5b815167ffffffffffffffff8111156125aa578182fd5b8201601f810184136125ba578182fd5b80516125c861235b82612951565b8181528560208385010111156125dc578384fd5b6125ed8260208301602086016129db565b95945050505050565b60008060408385031215612608578182fd5b823567ffffffffffffffff8082111561261f578384fd5b61262b8683870161238b565b93506020850135915080821115612640578283fd5b5061092d8582860161238b565b60006020828403121561265e578081fd5b5035919050565b600060208284031215612676578081fd5b5051919050565b6000806040838503121561268f578182fd5b50508035926020909101359150565b600081518084526126b68160208601602086016129db565b601f01601f19169290920160200192915050565b8054600090600181811c90808316806126e457607f831692505b602080841082141561270457634e487b7160e01b86526022600452602486fd5b818015612718576001811461272957612756565b60ff19861689528489019650612756565b60008881526020902060005b8681101561274e5781548b820152908501908301612735565b505084890196505b50505050505092915050565b600082516127748184602087016129db565b9190910192915050565b600061278a82866126ca565b845161279a8183602089016129db565b6127a6818301866126ca565b979650505050505050565b6001600160a01b0385811682528416602082015260408101839052608060608201819052600090611e129083018461269e565b6020815260006115a7602083018461269e565b60208082526032908201527f4552433732313a207472616e7366657220746f206e6f6e20455243373231526560408201527131b2b4bb32b91034b6b83632b6b2b73a32b960711b606082015260800190565b6020808252818101527f4f776e61626c653a2063616c6c6572206973206e6f7420746865206f776e6572604082015260600190565b60208082526031908201527f596f7520646f206e6f74206f776e207468697320746f6b656e20696e2074686560408201527020736f7572636520636f6e74726163742160781b606082015260800190565b60208082526031908201527f4552433732313a207472616e736665722063616c6c6572206973206e6f74206f6040820152701ddb995c881b9bdc88185c1c1c9bdd9959607a1b606082015260800190565b604051601f8201601f1916810167ffffffffffffffff8111828210171561294957612949612a9d565b604052919050565b600067ffffffffffffffff82111561296b5761296b612a9d565b50601f01601f191660200190565b6000821982111561298c5761298c612a71565b500190565b6000826129a0576129a0612a87565b500490565b60008160001904831182151516156129bf576129bf612a71565b500290565b6000828210156129d6576129d6612a71565b500390565b60005b838110156129f65781810151838201526020016129de565b838111156112cd5750506000910152565b600181811c90821680612a1b57607f821691505b60208210811415612a3c57634e487b7160e01b600052602260045260246000fd5b50919050565b6000600019821415612a5657612a56612a71565b5060010190565b600082612a6c57612a6c612a87565b500690565b634e487b7160e01b600052601160045260246000fd5b634e487b7160e01b600052601260045260246000fd5b634e487b7160e01b600052604160045260246000fd5b6001600160a01b038116811461144957600080fd5b801515811461144957600080fd5b6001600160e01b03198116811461144957600080fdfea264697066735822122095db825770dd4eec5c5c23b0a92d5591534d73225e5567d617f197c67ddaf0d964736f6c634300080400334f776e61626c653a2063616c6c6572206973206e6f7420746865206f776e6572",
  "linkReferences": {},
  "deployedLinkReferences": {}
}