{
  "_format": "hh-sol-artifact-1",
  "contractName": "Assemblage",
  "sourceName": "contracts/Assemblage.sol",
  "abi": [
    {
      "inputs": [],
      "stateMutability": "nonpayable",
      "type": "constructor"
    },
    {
      "anonymous": false,
      "inputs": [
        {
          "indexed": true,
          "internalType": "address",
          "name": "owner",
          "type": "address"
        },
        {
          "indexed": true,
          "internalType": "address",
          "name": "approved",
          "type": "address"
        },
        {
          "indexed": true,
          "internalType": "uint256",
          "name": "tokenId",
          "type": "uint256"
        }
      ],
      "name": "Approval",
      "type": "event"
    },
    {
      "anonymous": false,
      "inputs": [
        {
          "indexed": true,
          "internalType": "address",
          "name": "owner",
          "type": "address"
        },
        {
          "indexed": true,
          "internalType": "address",
          "name": "operator",
          "type": "address"
        },
        {
          "indexed": false,
          "internalType": "bool",
          "name": "approved",
          "type": "bool"
        }
      ],
      "name": "ApprovalForAll",
      "type": "event"
    },
    {
      "anonymous": false,
      "inputs": [
        {
          "indexed": true,
          "internalType": "address",
          "name": "previousOwner",
          "type": "address"
        },
        {
          "indexed": true,
          "internalType": "address",
          "name": "newOwner",
          "type": "address"
        }
      ],
      "name": "OwnershipTransferred",
      "type": "event"
    },
    {
      "anonymous": false,
      "inputs": [
        {
          "components": [
            {
              "internalType": "address",
              "name": "sourceContract",
              "type": "address"
            },
            {
              "internalType": "uint256",
              "name": "sourceTokenId",
              "type": "uint256"
            },
            {
              "internalType": "string",
              "name": "sourceTokenURI",
              "type": "string"
            }
          ],
          "indexed": false,
          "internalType": "struct Assemblage.SourceToken",
          "name": "source",
          "type": "tuple"
        },
        {
          "indexed": false,
          "internalType": "uint256",
          "name": "id",
          "type": "uint256"
        },
        {
          "indexed": false,
          "internalType": "address",
          "name": "to",
          "type": "address"
        }
      ],
      "name": "SourceTokenMinted",
      "type": "event"
    },
    {
      "anonymous": false,
      "inputs": [
        {
          "indexed": true,
          "internalType": "address",
          "name": "from",
          "type": "address"
        },
        {
          "indexed": true,
          "internalType": "address",
          "name": "to",
          "type": "address"
        },
        {
          "indexed": true,
          "internalType": "uint256",
          "name": "tokenId",
          "type": "uint256"
        }
      ],
      "name": "Transfer",
      "type": "event"
    },
    {
      "inputs": [],
      "name": "IID_IERC1155",
      "outputs": [
        {
          "internalType": "bytes4",
          "name": "",
          "type": "bytes4"
        }
      ],
      "stateMutability": "view",
      "type": "function"
    },
    {
      "inputs": [],
      "name": "IID_IERC721",
      "outputs": [
        {
          "internalType": "bytes4",
          "name": "",
          "type": "bytes4"
        }
      ],
      "stateMutability": "view",
      "type": "function"
    },
    {
      "inputs": [
        {
          "internalType": "address",
          "name": "to",
          "type": "address"
        },
        {
          "internalType": "uint256",
          "name": "tokenId",
          "type": "uint256"
        }
      ],
      "name": "approve",
      "outputs": [],
      "stateMutability": "nonpayable",
      "type": "function"
    },
    {
      "inputs": [
        {
          "internalType": "address",
          "name": "owner",
          "type": "address"
        }
      ],
      "name": "balanceOf",
      "outputs": [
        {
          "internalType": "uint256",
          "name": "",
          "type": "uint256"
        }
      ],
      "stateMutability": "view",
      "type": "function"
    },
    {
      "inputs": [
        {
          "internalType": "address",
          "name": "",
          "type": "address"
        }
      ],
      "name": "freeloaders",
      "outputs": [
        {
          "internalType": "uint256",
          "name": "",
          "type": "uint256"
        }
      ],
      "stateMutability": "view",
      "type": "function"
    },
    {
      "inputs": [
        {
          "internalType": "uint256",
          "name": "tokenId",
          "type": "uint256"
        }
      ],
      "name": "getApproved",
      "outputs": [
        {
          "internalType": "address",
          "name": "",
          "type": "address"
        }
      ],
      "stateMutability": "view",
      "type": "function"
    },
    {
      "inputs": [
        {
          "internalType": "address",
          "name": "_address",
          "type": "address"
        }
      ],
      "name": "getFreeloaderCount",
      "outputs": [
        {
          "internalType": "uint256",
          "name": "",
          "type": "uint256"
        }
      ],
      "stateMutability": "view",
      "type": "function"
    },
    {
      "inputs": [
        {
          "internalType": "address",
          "name": "owner",
          "type": "address"
        },
        {
          "internalType": "address",
          "name": "operator",
          "type": "address"
        }
      ],
      "name": "isApprovedForAll",
      "outputs": [
        {
          "internalType": "bool",
          "name": "",
          "type": "bool"
        }
      ],
      "stateMutability": "view",
      "type": "function"
    },
    {
      "inputs": [],
      "name": "maxSupply",
      "outputs": [
        {
          "internalType": "uint256",
          "name": "",
          "type": "uint256"
        }
      ],
      "stateMutability": "view",
      "type": "function"
    },
    {
      "inputs": [
        {
          "internalType": "address",
          "name": "sourceContract",
          "type": "address"
        },
        {
          "internalType": "uint256",
          "name": "sourceTokenId",
          "type": "uint256"
        }
      ],
      "name": "mint",
      "outputs": [],
      "stateMutability": "payable",
      "type": "function"
    },
    {
      "inputs": [],
      "name": "mintPrice",
      "outputs": [
        {
          "internalType": "uint256",
          "name": "",
          "type": "uint256"
        }
      ],
      "stateMutability": "view",
      "type": "function"
    },
    {
      "inputs": [],
      "name": "name",
      "outputs": [
        {
          "internalType": "string",
          "name": "",
          "type": "string"
        }
      ],
      "stateMutability": "view",
      "type": "function"
    },
    {
      "inputs": [],
      "name": "owner",
      "outputs": [
        {
          "internalType": "address",
          "name": "",
          "type": "address"
        }
      ],
      "stateMutability": "view",
      "type": "function"
    },
    {
      "inputs": [
        {
          "internalType": "uint256",
          "name": "tokenId",
          "type": "uint256"
        }
      ],
      "name": "ownerOf",
      "outputs": [
        {
          "internalType": "address",
          "name": "",
          "type": "address"
        }
      ],
      "stateMutability": "view",
      "type": "function"
    },
    {
      "inputs": [],
      "name": "renounceOwnership",
      "outputs": [],
      "stateMutability": "nonpayable",
      "type": "function"
    },
    {
      "inputs": [
        {
          "internalType": "uint256",
          "name": "",
          "type": "uint256"
        },
        {
          "internalType": "uint256",
          "name": "value",
          "type": "uint256"
        }
      ],
      "name": "royaltyInfo",
      "outputs": [
        {
          "internalType": "address",
          "name": "receiver",
          "type": "address"
        },
        {
          "internalType": "uint256",
          "name": "royaltyAmount",
          "type": "uint256"
        }
      ],
      "stateMutability": "view",
      "type": "function"
    },
    {
      "inputs": [
        {
          "internalType": "address",
          "name": "from",
          "type": "address"
        },
        {
          "internalType": "address",
          "name": "to",
          "type": "address"
        },
        {
          "internalType": "uint256",
          "name": "tokenId",
          "type": "uint256"
        }
      ],
      "name": "safeTransferFrom",
      "outputs": [],
      "stateMutability": "nonpayable",
      "type": "function"
    },
    {
      "inputs": [
        {
          "internalType": "address",
          "name": "from",
          "type": "address"
        },
        {
          "internalType": "address",
          "name": "to",
          "type": "address"
        },
        {
          "internalType": "uint256",
          "name": "tokenId",
          "type": "uint256"
        },
        {
          "internalType": "bytes",
          "name": "_data",
          "type": "bytes"
        }
      ],
      "name": "safeTransferFrom",
      "outputs": [],
      "stateMutability": "nonpayable",
      "type": "function"
    },
    {
      "inputs": [
        {
          "internalType": "address",
          "name": "operator",
          "type": "address"
        },
        {
          "internalType": "bool",
          "name": "approved",
          "type": "bool"
        }
      ],
      "name": "setApprovalForAll",
      "outputs": [],
      "stateMutability": "nonpayable",
      "type": "function"
    },
    {
      "inputs": [
        {
          "internalType": "string",
          "name": "newBaseURI",
          "type": "string"
        },
        {
          "internalType": "string",
          "name": "newExtensionURI",
          "type": "string"
        }
      ],
      "name": "setBaseURI",
      "outputs": [],
      "stateMutability": "nonpayable",
      "type": "function"
    },
    {
      "inputs": [
        {
          "internalType": "uint256",
          "name": "_newCost",
          "type": "uint256"
        }
      ],
      "name": "setCost",
      "outputs": [],
      "stateMutability": "nonpayable",
      "type": "function"
    },
    {
      "inputs": [
        {
          "internalType": "address",
          "name": "_address",
          "type": "address"
        },
        {
          "internalType": "uint256",
          "name": "amount",
          "type": "uint256"
        }
      ],
      "name": "setFreeloader",
      "outputs": [],
      "stateMutability": "nonpayable",
      "type": "function"
    },
    {
      "inputs": [
        {
          "internalType": "address",
          "name": "recipient",
          "type": "address"
        },
        {
          "internalType": "uint256",
          "name": "value",
          "type": "uint256"
        }
      ],
      "name": "setRoyalties",
      "outputs": [],
      "stateMutability": "nonpayable",
      "type": "function"
    },
    {
      "inputs": [
        {
          "internalType": "uint256",
          "name": "",
          "type": "uint256"
        }
      ],
      "name": "sourceTokens",
      "outputs": [
        {
          "internalType": "address",
          "name": "sourceContract",
          "type": "address"
        },
        {
          "internalType": "uint256",
          "name": "sourceTokenId",
          "type": "uint256"
        },
        {
          "internalType": "string",
          "name": "sourceTokenURI",
          "type": "string"
        }
      ],
      "stateMutability": "view",
      "type": "function"
    },
    {
      "inputs": [
        {
          "internalType": "bytes4",
          "name": "interfaceId",
          "type": "bytes4"
        }
      ],
      "name": "supportsInterface",
      "outputs": [
        {
          "internalType": "bool",
          "name": "",
          "type": "bool"
        }
      ],
      "stateMutability": "view",
      "type": "function"
    },
    {
      "inputs": [],
      "name": "symbol",
      "outputs": [
        {
          "internalType": "string",
          "name": "",
          "type": "string"
        }
      ],
      "stateMutability": "view",
      "type": "function"
    },
    {
      "inputs": [
        {
          "internalType": "uint256",
          "name": "index",
          "type": "uint256"
        }
      ],
      "name": "tokenByIndex",
      "outputs": [
        {
          "internalType": "uint256",
          "name": "",
          "type": "uint256"
        }
      ],
      "stateMutability": "view",
      "type": "function"
    },
    {
      "inputs": [
        {
          "internalType": "address",
          "name": "owner",
          "type": "address"
        },
        {
          "internalType": "uint256",
          "name": "index",
          "type": "uint256"
        }
      ],
      "name": "tokenOfOwnerByIndex",
      "outputs": [
        {
          "internalType": "uint256",
          "name": "",
          "type": "uint256"
        }
      ],
      "stateMutability": "view",
      "type": "function"
    },
    {
      "inputs": [
        {
          "internalType": "uint256",
          "name": "tokenId",
          "type": "uint256"
        }
      ],
      "name": "tokenURI",
      "outputs": [
        {
          "internalType": "string",
          "name": "",
          "type": "string"
        }
      ],
      "stateMutability": "view",
      "type": "function"
    },
    {
      "inputs": [],
      "name": "totalSupply",
      "outputs": [
        {
          "internalType": "uint256",
          "name": "",
          "type": "uint256"
        }
      ],
      "stateMutability": "view",
      "type": "function"
    },
    {
      "inputs": [
        {
          "internalType": "address",
          "name": "from",
          "type": "address"
        },
        {
          "internalType": "address",
          "name": "to",
          "type": "address"
        },
        {
          "internalType": "uint256",
          "name": "tokenId",
          "type": "uint256"
        }
      ],
      "name": "transferFrom",
      "outputs": [],
      "stateMutability": "nonpayable",
      "type": "function"
    },
    {
      "inputs": [
        {
          "internalType": "address",
          "name": "newOwner",
          "type": "address"
        }
      ],
      "name": "transferOwnership",
      "outputs": [],
      "stateMutability": "nonpayable",
      "type": "function"
    },
    {
      "inputs": [],
      "name": "withdrawEth",
      "outputs": [],
      "stateMutability": "nonpayable",
      "type": "function"
    }
  ],
  "bytecode": "0x60c0604052602060808190527f68747470733a2f2f6170692e617373656d626c6167652e65652f746f6b656e2f60a09081526200004091600c91906200030a565b5060408051808201909152600580825264173539b7b760d91b60209092019182526200006f91600d916200030a565b5066f8b0a10e470000600e553480156200008857600080fd5b50604080518082018252600a815269417373656d626c61676560b01b60208083019182528351808501909452600384526210509360ea1b908401528151919291620000d6916000916200030a565b508051620000ec9060019060208401906200030a565b50505062000109620001036200015060201b60201c565b62000154565b6200012a73c722f9adc49fce183c78b46b2d58c8c30b9a6e846003620001a6565b6200014a62000141600a546001600160a01b031690565b61030262000211565b620003ed565b3390565b600a80546001600160a01b038381166001600160a01b0319831681179093556040519116919082907f8be0079c531659141344cd1fd0a4f28419497f9722a3daafe3b4186f6b6457e090600090a35050565b600a546001600160a01b03163314620001f55760405162461bcd60e51b8152602060048201819052602482015260008051602062002ecb83398151915260448201526064015b60405180910390fd5b6001600160a01b039091166000908152600f6020526040902055565b600a546001600160a01b031633146200025c5760405162461bcd60e51b8152602060048201819052602482015260008051602062002ecb8339815191526044820152606401620001ec565b6200026882826200026c565b5050565b612710811115620002c05760405162461bcd60e51b815260206004820152601a60248201527f45524332393831526f79616c746965733a20546f6f20686967680000000000006044820152606401620001ec565b604080518082019091526001600160a01b0390921680835262ffffff9091166020909201829052600b8054600160a01b9093026001600160b81b0319909316909117919091179055565b8280546200031890620003b0565b90600052602060002090601f0160209004810192826200033c576000855562000387565b82601f106200035757805160ff191683800117855562000387565b8280016001018555821562000387579182015b82811115620003875782518255916020019190600101906200036a565b506200039592915062000399565b5090565b5b808211156200039557600081556001016200039a565b600181811c90821680620003c557607f821691505b60208210811415620003e757634e487b7160e01b600052602260045260246000fd5b50919050565b612ace80620003fd6000396000f3fe6080604052600436106101ee5760003560e01c80636817c76c1161010d578063a22cb465116100a0578063d5abeb011161006f578063d5abeb01146105be578063e0966dad146105d4578063e985e9c5146105ef578063eb53ef5214610638578063f2fde38b1461066757600080fd5b8063a22cb46514610528578063b88d4fde14610548578063c265e6ae14610568578063c87b56dd1461059e57600080fd5b80638da5cb5b116100dc5780638da5cb5b146104ac57806395d89b41146104ca5780639b8cfe52146104df578063a0ef91df1461051357600080fd5b80636817c76c1461044257806370a0823114610457578063715018a6146104775780638c7ea24b1461048c57600080fd5b806340c10f19116101855780634f6ccce7116101545780634f6ccce7146103c257806358430171146103e25780636352211e146104025780636790a9de1461042257600080fd5b806340c10f19146103425780634137171c1461035557806342842e0e1461038257806344a0d68a146103a257600080fd5b806318160ddd116101c157806318160ddd146102a457806323b872dd146102c35780632a55205a146102e35780632f745c591461032257600080fd5b806301ffc9a7146101f357806306fdde0314610228578063081812fc1461024a578063095ea7b314610282575b600080fd5b3480156101ff57600080fd5b5061021361020e36600461247f565b610687565b60405190151581526020015b60405180910390f35b34801561023457600080fd5b5061023d610698565b60405161021f919061273f565b34801561025657600080fd5b5061026a610265366004612581565b61072a565b6040516001600160a01b03909116815260200161021f565b34801561028e57600080fd5b506102a261029d366004612438565b6107c4565b005b3480156102b057600080fd5b506008545b60405190815260200161021f565b3480156102cf57600080fd5b506102a26102de36600461234e565b6108da565b3480156102ef57600080fd5b506103036102fe3660046125b1565b61090b565b604080516001600160a01b03909316835260208301919091520161021f565b34801561032e57600080fd5b506102b561033d366004612438565b610960565b6102a2610350366004612438565b6109f6565b34801561036157600080fd5b506102b56103703660046122de565b600f6020526000908152604090205481565b34801561038e57600080fd5b506102a261039d36600461234e565b610e64565b3480156103ae57600080fd5b506102a26103bd366004612581565b610e7f565b3480156103ce57600080fd5b506102b56103dd366004612581565b610eae565b3480156103ee57600080fd5b506102a26103fd366004612438565b610f4f565b34801561040e57600080fd5b5061026a61041d366004612581565b610f95565b34801561042e57600080fd5b506102a261043d36600461252a565b61100c565b34801561044e57600080fd5b506102b561105d565b34801561046357600080fd5b506102b56104723660046122de565b6110b0565b34801561048357600080fd5b506102a2611137565b34801561049857600080fd5b506102a26104a7366004612438565b61116d565b3480156104b857600080fd5b50600a546001600160a01b031661026a565b3480156104d657600080fd5b5061023d6111a5565b3480156104eb57600080fd5b506104fa636cdb3d1360e11b81565b6040516001600160e01b0319909116815260200161021f565b34801561051f57600080fd5b506102a26111b4565b34801561053457600080fd5b506102a261054336600461240b565b61126a565b34801561055457600080fd5b506102a261056336600461238e565b611275565b34801561057457600080fd5b506102b56105833660046122de565b6001600160a01b03166000908152600f602052604090205490565b3480156105aa57600080fd5b5061023d6105b9366004612581565b6112ad565b3480156105ca57600080fd5b506102b5611e6181565b3480156105e057600080fd5b506104fa6380ac58cd60e01b81565b3480156105fb57600080fd5b5061021361060a366004612316565b6001600160a01b03918216600090815260056020908152604080832093909416825291909152205460ff1690565b34801561064457600080fd5b50610658610653366004612581565b61138b565b60405161021f93929190612718565b34801561067357600080fd5b506102a26106823660046122de565b611440565b6000610692826114db565b92915050565b6060600080546106a7906129b3565b80601f01602080910402602001604051908101604052809291908181526020018280546106d3906129b3565b80156107205780601f106106f557610100808354040283529160200191610720565b820191906000526020600020905b81548152906001019060200180831161070357829003601f168201915b5050505050905090565b6000818152600260205260408120546001600160a01b03166107a85760405162461bcd60e51b815260206004820152602c60248201527f4552433732313a20617070726f76656420717565727920666f72206e6f6e657860448201526b34b9ba32b73a103a37b5b2b760a11b60648201526084015b60405180910390fd5b506000908152600460205260409020546001600160a01b031690565b60006107cf82610f95565b9050806001600160a01b0316836001600160a01b0316141561083d5760405162461bcd60e51b815260206004820152602160248201527f4552433732313a20617070726f76616c20746f2063757272656e74206f776e656044820152603960f91b606482015260840161079f565b336001600160a01b03821614806108595750610859813361060a565b6108cb5760405162461bcd60e51b815260206004820152603860248201527f4552433732313a20617070726f76652063616c6c6572206973206e6f74206f7760448201527f6e6572206e6f7220617070726f76656420666f7220616c6c0000000000000000606482015260840161079f565b6108d58383611500565b505050565b6108e4338261156e565b6109005760405162461bcd60e51b815260040161079f90612829565b6108d5838383611665565b60408051808201909152600b546001600160a01b038116808352600160a01b90910462ffffff166020830181905290916000916127109061094c9086612951565b610956919061293d565b9150509250929050565b600061096b836110b0565b82106109cd5760405162461bcd60e51b815260206004820152602b60248201527f455243373231456e756d657261626c653a206f776e657220696e646578206f7560448201526a74206f6620626f756e647360a81b606482015260840161079f565b506001600160a01b03919091166000908152600660209081526040808320938352929052205490565b611e61610a0260085490565b10610a455760405162461bcd60e51b815260206004820152601360248201527214dd5c1c1b1e481a5cc8195e1a185d5cdd1959606a1b604482015260640161079f565b600a546001600160a01b03163314610ac257336000908152600f6020526040902054610ac257610a7361105d565b341015610ac25760405162461bcd60e51b815260206004820152601b60248201527f496e73756666696369656e742076616c756520666f72206d696e740000000000604482015260640161079f565b604080516020810190915260008152610aeb6001600160a01b0384166380ac58cd60e01b611810565b15610c14576040516331a9108f60e11b81526004810183905233906001600160a01b03851690636352211e9060240160206040518083038186803b158015610b3257600080fd5b505afa158015610b46573d6000803e3d6000fd5b505050506040513d601f19601f82011682018060405250810190610b6a91906122fa565b6001600160a01b031614610b905760405162461bcd60e51b815260040161079f906127d9565b60405163c87b56dd60e01b8152600481018390526001600160a01b0384169063c87b56dd906024015b60006040518083038186803b158015610bd157600080fd5b505afa158015610be5573d6000803e3d6000fd5b505050506040513d6000823e601f3d908101601f19168201604052610c0d91908101906124b7565b9050610d44565b610c2e6001600160a01b038416636cdb3d1360e11b611810565b15610cfc57604051627eeac760e11b8152336004820152602481018390526000906001600160a01b0385169062fdd58e9060440160206040518083038186803b158015610c7a57600080fd5b505afa158015610c8e573d6000803e3d6000fd5b505050506040513d601f19601f82011682018060405250810190610cb29190612599565b11610ccf5760405162461bcd60e51b815260040161079f906127d9565b6040516303a24d0760e21b8152600481018390526001600160a01b03841690630e89341c90602401610bb9565b60405162461bcd60e51b815260206004820152601f60248201527f4e6f74206120455243373231206f722061204552433131353520546f6b656e00604482015260640161079f565b336000908152600f602052604090205415610d7f57336000908152600f60205260408120805460019290610d79908490612970565b90915550505b6000610d8a60085490565b9050610d963382611833565b604080516060810182526001600160a01b038681168252602080830187815283850187815260008781526010845295909520845181546001600160a01b03191694169390931783555160018301559251805192939192610dfc92600285019201906121e8565b509050507f19ef22077535cdee0ae92cd92944654a7d70d76f7d84efeb5d3d0ac256442cf56040518060600160405280866001600160a01b03168152602001858152602001848152508233604051610e569392919061287a565b60405180910390a150505050565b6108d583838360405180602001604052806000815250611275565b600a546001600160a01b03163314610ea95760405162461bcd60e51b815260040161079f906127a4565b600e55565b6000610eb960085490565b8210610f1c5760405162461bcd60e51b815260206004820152602c60248201527f455243373231456e756d657261626c653a20676c6f62616c20696e646578206f60448201526b7574206f6620626f756e647360a01b606482015260840161079f565b60088281548110610f3d57634e487b7160e01b600052603260045260246000fd5b90600052602060002001549050919050565b600a546001600160a01b03163314610f795760405162461bcd60e51b815260040161079f906127a4565b6001600160a01b039091166000908152600f6020526040902055565b6000818152600260205260408120546001600160a01b0316806106925760405162461bcd60e51b815260206004820152602960248201527f4552433732313a206f776e657220717565727920666f72206e6f6e657869737460448201526832b73a103a37b5b2b760b91b606482015260840161079f565b600a546001600160a01b031633146110365760405162461bcd60e51b815260040161079f906127a4565b815161104990600c9060208501906121e8565b5080516108d590600d9060208401906121e8565b6000611071600a546001600160a01b031690565b6001600160a01b0316336001600160a01b0316148061109e5750336000908152600f602052604090205415155b156110a95750600090565b50600e5490565b60006001600160a01b03821661111b5760405162461bcd60e51b815260206004820152602a60248201527f4552433732313a2062616c616e636520717565727920666f7220746865207a65604482015269726f206164647265737360b01b606482015260840161079f565b506001600160a01b031660009081526003602052604090205490565b600a546001600160a01b031633146111615760405162461bcd60e51b815260040161079f906127a4565b61116b600061184d565b565b600a546001600160a01b031633146111975760405162461bcd60e51b815260040161079f906127a4565b6111a1828261189f565b5050565b6060600180546106a7906129b3565b600a546001600160a01b031633146111de5760405162461bcd60e51b815260040161079f906127a4565b6040514790600090339083908381818185875af1925050503d8060008114611222576040519150601f19603f3d011682016040523d82523d6000602084013e611227565b606091505b50509050806111a15760405162461bcd60e51b815260206004820152600f60248201526e15da5d1a191c985dc819985a5b1959608a1b604482015260640161079f565b6111a133838361193b565b61127f338361156e565b61129b5760405162461bcd60e51b815260040161079f90612829565b6112a784848484611a0a565b50505050565b6000818152600260205260409020546060906001600160a01b031661132c5760405162461bcd60e51b815260206004820152602f60248201527f4552433732314d657461646174613a2055524920717565727920666f72206e6f60448201526e3732bc34b9ba32b73a103a37b5b2b760891b606482015260840161079f565b6000600c805461133b906129b3565b9050116113575760405180602001604052806000815250610692565b600c61136283611a3d565b600d604051602001611376939291906126b2565b60405160208183030381529060405292915050565b6010602052600090815260409020805460018201546002830180546001600160a01b039093169391926113bd906129b3565b80601f01602080910402602001604051908101604052809291908181526020018280546113e9906129b3565b80156114365780601f1061140b57610100808354040283529160200191611436565b820191906000526020600020905b81548152906001019060200180831161141957829003601f168201915b5050505050905083565b600a546001600160a01b0316331461146a5760405162461bcd60e51b815260040161079f906127a4565b6001600160a01b0381166114cf5760405162461bcd60e51b815260206004820152602660248201527f4f776e61626c653a206e6577206f776e657220697320746865207a65726f206160448201526564647265737360d01b606482015260840161079f565b6114d88161184d565b50565b60006001600160e01b0319821663152a902d60e11b1480610692575061069282611b57565b600081815260046020526040902080546001600160a01b0319166001600160a01b038416908117909155819061153582610f95565b6001600160a01b03167f8c5be1e5ebec7d5bd14f71427d1e84f3dd0314c0f7b2291e5b200ac8c7c3b92560405160405180910390a45050565b6000818152600260205260408120546001600160a01b03166115e75760405162461bcd60e51b815260206004820152602c60248201527f4552433732313a206f70657261746f7220717565727920666f72206e6f6e657860448201526b34b9ba32b73a103a37b5b2b760a11b606482015260840161079f565b60006115f283610f95565b9050806001600160a01b0316846001600160a01b0316148061162d5750836001600160a01b03166116228461072a565b6001600160a01b0316145b8061165d57506001600160a01b0380821660009081526005602090815260408083209388168352929052205460ff165b949350505050565b826001600160a01b031661167882610f95565b6001600160a01b0316146116e05760405162461bcd60e51b815260206004820152602960248201527f4552433732313a207472616e73666572206f6620746f6b656e2074686174206960448201526839903737ba1037bbb760b91b606482015260840161079f565b6001600160a01b0382166117425760405162461bcd60e51b8152602060048201526024808201527f4552433732313a207472616e7366657220746f20746865207a65726f206164646044820152637265737360e01b606482015260840161079f565b61174d838383611b7c565b611758600082611500565b6001600160a01b0383166000908152600360205260408120805460019290611781908490612970565b90915550506001600160a01b03821660009081526003602052604081208054600192906117af908490612925565b909155505060008181526002602052604080822080546001600160a01b0319166001600160a01b0386811691821790925591518493918716917fddf252ad1be2c89b69c2b068fc378daa952ba7f163c4a11628f55a4df523b3ef91a4505050565b600061181b83611c34565b801561182c575061182c8383611c67565b9392505050565b6111a1828260405180602001604052806000815250611d50565b600a80546001600160a01b038381166001600160a01b0319831681179093556040519116919082907f8be0079c531659141344cd1fd0a4f28419497f9722a3daafe3b4186f6b6457e090600090a35050565b6127108111156118f15760405162461bcd60e51b815260206004820152601a60248201527f45524332393831526f79616c746965733a20546f6f2068696768000000000000604482015260640161079f565b604080518082019091526001600160a01b0390921680835262ffffff9091166020909201829052600b8054600160a01b9093026001600160b81b0319909316909117919091179055565b816001600160a01b0316836001600160a01b0316141561199d5760405162461bcd60e51b815260206004820152601960248201527f4552433732313a20617070726f766520746f2063616c6c657200000000000000604482015260640161079f565b6001600160a01b03838116600081815260056020908152604080832094871680845294825291829020805460ff191686151590811790915591519182527f17307eab39ab6107e8899845ad3d59bd9653f200f220920489ca2b5937696c31910160405180910390a3505050565b611a15848484611665565b611a2184848484611d83565b6112a75760405162461bcd60e51b815260040161079f90612752565b606081611a615750506040805180820190915260018152600360fc1b602082015290565b8160005b8115611a8b5780611a75816129ee565b9150611a849050600a8361293d565b9150611a65565b60008167ffffffffffffffff811115611ab457634e487b7160e01b600052604160045260246000fd5b6040519080825280601f01601f191660200182016040528015611ade576020820181803683370190505b5090505b841561165d57611af3600183612970565b9150611b00600a86612a09565b611b0b906030612925565b60f81b818381518110611b2e57634e487b7160e01b600052603260045260246000fd5b60200101906001600160f81b031916908160001a905350611b50600a8661293d565b9450611ae2565b60006001600160e01b0319821663780e9d6360e01b1480610692575061069282611e90565b6001600160a01b038316611bd757611bd281600880546000838152600960205260408120829055600182018355919091527ff3f7a9fe364faab93b216da50a3214154f22a0a2b415b23a84c8169e8b636ee30155565b611bfa565b816001600160a01b0316836001600160a01b031614611bfa57611bfa8382611ee0565b6001600160a01b038216611c11576108d581611f7d565b826001600160a01b0316826001600160a01b0316146108d5576108d58282612056565b6000611c47826301ffc9a760e01b611c67565b80156106925750611c60826001600160e01b0319611c67565b1592915050565b604080516001600160e01b0319831660248083019190915282518083039091018152604490910182526020810180516001600160e01b03166301ffc9a760e01b179052905160009190829081906001600160a01b0387169061753090611cce908690612696565b6000604051808303818686fa925050503d8060008114611d0a576040519150601f19603f3d011682016040523d82523d6000602084013e611d0f565b606091505b5091509150602081511015611d2a5760009350505050610692565b818015611d46575080806020019051810190611d469190612463565b9695505050505050565b611d5a838361209a565b611d676000848484611d83565b6108d55760405162461bcd60e51b815260040161079f90612752565b60006001600160a01b0384163b15611e8557604051630a85bd0160e11b81526001600160a01b0385169063150b7a0290611dc79033908990889088906004016126e5565b602060405180830381600087803b158015611de157600080fd5b505af1925050508015611e11575060408051601f3d908101601f19168201909252611e0e9181019061249b565b60015b611e6b573d808015611e3f576040519150601f19603f3d011682016040523d82523d6000602084013e611e44565b606091505b508051611e635760405162461bcd60e51b815260040161079f90612752565b805181602001fd5b6001600160e01b031916630a85bd0160e11b14905061165d565b506001949350505050565b60006001600160e01b031982166380ac58cd60e01b1480611ec157506001600160e01b03198216635b5e139f60e01b145b8061069257506301ffc9a760e01b6001600160e01b0319831614610692565b60006001611eed846110b0565b611ef79190612970565b600083815260076020526040902054909150808214611f4a576001600160a01b03841660009081526006602090815260408083208584528252808320548484528184208190558352600790915290208190555b5060009182526007602090815260408084208490556001600160a01b039094168352600681528383209183525290812055565b600854600090611f8f90600190612970565b60008381526009602052604081205460088054939450909284908110611fc557634e487b7160e01b600052603260045260246000fd5b906000526020600020015490508060088381548110611ff457634e487b7160e01b600052603260045260246000fd5b600091825260208083209091019290925582815260099091526040808220849055858252812055600880548061203a57634e487b7160e01b600052603160045260246000fd5b6001900381819060005260206000200160009055905550505050565b6000612061836110b0565b6001600160a01b039093166000908152600660209081526040808320868452825280832085905593825260079052919091209190915550565b6001600160a01b0382166120f05760405162461bcd60e51b815260206004820181905260248201527f4552433732313a206d696e7420746f20746865207a65726f2061646472657373604482015260640161079f565b6000818152600260205260409020546001600160a01b0316156121555760405162461bcd60e51b815260206004820152601c60248201527f4552433732313a20746f6b656e20616c7265616479206d696e74656400000000604482015260640161079f565b61216160008383611b7c565b6001600160a01b038216600090815260036020526040812080546001929061218a908490612925565b909155505060008181526002602052604080822080546001600160a01b0319166001600160a01b03861690811790915590518392907fddf252ad1be2c89b69c2b068fc378daa952ba7f163c4a11628f55a4df523b3ef908290a45050565b8280546121f4906129b3565b90600052602060002090601f016020900481019282612216576000855561225c565b82601f1061222f57805160ff191683800117855561225c565b8280016001018555821561225c579182015b8281111561225c578251825591602001919060010190612241565b5061226892915061226c565b5090565b5b80821115612268576000815560010161226d565b600061229461228f846128fd565b6128cc565b90508281528383830111156122a857600080fd5b828260208301376000602084830101529392505050565b600082601f8301126122cf578081fd5b61182c83833560208501612281565b6000602082840312156122ef578081fd5b813561182c81612a5f565b60006020828403121561230b578081fd5b815161182c81612a5f565b60008060408385031215612328578081fd5b823561233381612a5f565b9150602083013561234381612a5f565b809150509250929050565b600080600060608486031215612362578081fd5b833561236d81612a5f565b9250602084013561237d81612a5f565b929592945050506040919091013590565b600080600080608085870312156123a3578081fd5b84356123ae81612a5f565b935060208501356123be81612a5f565b925060408501359150606085013567ffffffffffffffff8111156123e0578182fd5b8501601f810187136123f0578182fd5b6123ff87823560208401612281565b91505092959194509250565b6000806040838503121561241d578182fd5b823561242881612a5f565b9150602083013561234381612a74565b6000806040838503121561244a578182fd5b823561245581612a5f565b946020939093013593505050565b600060208284031215612474578081fd5b815161182c81612a74565b600060208284031215612490578081fd5b813561182c81612a82565b6000602082840312156124ac578081fd5b815161182c81612a82565b6000602082840312156124c8578081fd5b815167ffffffffffffffff8111156124de578182fd5b8201601f810184136124ee578182fd5b80516124fc61228f826128fd565b818152856020838501011115612510578384fd5b612521826020830160208601612987565b95945050505050565b6000806040838503121561253c578182fd5b823567ffffffffffffffff80821115612553578384fd5b61255f868387016122bf565b93506020850135915080821115612574578283fd5b50610956858286016122bf565b600060208284031215612592578081fd5b5035919050565b6000602082840312156125aa578081fd5b5051919050565b600080604083850312156125c3578182fd5b50508035926020909101359150565b600081518084526125ea816020860160208601612987565b601f01601f19169290920160200192915050565b8054600090600181811c908083168061261857607f831692505b602080841082141561263857634e487b7160e01b86526022600452602486fd5b81801561264c576001811461265d5761268a565b60ff1986168952848901965061268a565b60008881526020902060005b868110156126825781548b820152908501908301612669565b505084890196505b50505050505092915050565b600082516126a8818460208701612987565b9190910192915050565b60006126be82866125fe565b84516126ce818360208901612987565b6126da818301866125fe565b979650505050505050565b6001600160a01b0385811682528416602082015260408101839052608060608201819052600090611d46908301846125d2565b60018060a01b038416815282602082015260606040820152600061252160608301846125d2565b60208152600061182c60208301846125d2565b60208082526032908201527f4552433732313a207472616e7366657220746f206e6f6e20455243373231526560408201527131b2b4bb32b91034b6b83632b6b2b73a32b960711b606082015260800190565b6020808252818101527f4f776e61626c653a2063616c6c6572206973206e6f7420746865206f776e6572604082015260600190565b60208082526030908201527f596f7520646f206e6f74206f776e207468697320746f6b656e20696e2074686560408201526f081cdbdd5c98d94818dbdb9d1c9858dd60821b606082015260800190565b60208082526031908201527f4552433732313a207472616e736665722063616c6c6572206973206e6f74206f6040820152701ddb995c881b9bdc88185c1c1c9bdd9959607a1b606082015260800190565b60608152600060018060a01b03808651166060840152602086015160808401526040860151606060a08501526128b360c08501826125d2565b6020850196909652509290921660409091015250919050565b604051601f8201601f1916810167ffffffffffffffff811182821017156128f5576128f5612a49565b604052919050565b600067ffffffffffffffff82111561291757612917612a49565b50601f01601f191660200190565b6000821982111561293857612938612a1d565b500190565b60008261294c5761294c612a33565b500490565b600081600019048311821515161561296b5761296b612a1d565b500290565b60008282101561298257612982612a1d565b500390565b60005b838110156129a257818101518382015260200161298a565b838111156112a75750506000910152565b600181811c908216806129c757607f821691505b602082108114156129e857634e487b7160e01b600052602260045260246000fd5b50919050565b6000600019821415612a0257612a02612a1d565b5060010190565b600082612a1857612a18612a33565b500690565b634e487b7160e01b600052601160045260246000fd5b634e487b7160e01b600052601260045260246000fd5b634e487b7160e01b600052604160045260246000fd5b6001600160a01b03811681146114d857600080fd5b80151581146114d857600080fd5b6001600160e01b0319811681146114d857600080fdfea264697066735822122003f4a7b9969ca90244ac226dea2df4232be4e07df18d1d34ec3149362a25ba8f64736f6c634300080400334f776e61626c653a2063616c6c6572206973206e6f7420746865206f776e6572",
  "linkReferences": {},
  "deployedLinkReferences": {}
}