{
  "_format": "hh-sol-artifact-1",
  "contractName": "Assemblage",
  "sourceName": "contracts/Assemblage.sol",
  "abi": [
    {
      "inputs": [
        {
          "internalType": "string",
          "name": "_initialBaseURI",
          "type": "string"
        },
        {
          "components": [
            {
              "internalType": "address",
              "name": "whitelistAddress",
              "type": "address"
            },
            {
              "internalType": "uint256",
              "name": "amount",
              "type": "uint256"
            }
          ],
          "internalType": "struct Assemblage.WhitelistItem[]",
          "name": "_initialWhitelist",
          "type": "tuple[]"
        }
      ],
      "stateMutability": "nonpayable",
      "type": "constructor"
    },
    {
      "anonymous": false,
      "inputs": [
        {
          "indexed": true,
          "internalType": "address",
          "name": "owner",
          "type": "address"
        },
        {
          "indexed": true,
          "internalType": "address",
          "name": "approved",
          "type": "address"
        },
        {
          "indexed": true,
          "internalType": "uint256",
          "name": "tokenId",
          "type": "uint256"
        }
      ],
      "name": "Approval",
      "type": "event"
    },
    {
      "anonymous": false,
      "inputs": [
        {
          "indexed": true,
          "internalType": "address",
          "name": "owner",
          "type": "address"
        },
        {
          "indexed": true,
          "internalType": "address",
          "name": "operator",
          "type": "address"
        },
        {
          "indexed": false,
          "internalType": "bool",
          "name": "approved",
          "type": "bool"
        }
      ],
      "name": "ApprovalForAll",
      "type": "event"
    },
    {
      "anonymous": false,
      "inputs": [
        {
          "indexed": true,
          "internalType": "address",
          "name": "previousOwner",
          "type": "address"
        },
        {
          "indexed": true,
          "internalType": "address",
          "name": "newOwner",
          "type": "address"
        }
      ],
      "name": "OwnershipTransferred",
      "type": "event"
    },
    {
      "anonymous": false,
      "inputs": [
        {
          "indexed": false,
          "internalType": "address",
          "name": "from",
          "type": "address"
        },
        {
          "indexed": false,
          "internalType": "uint256",
          "name": "amount",
          "type": "uint256"
        }
      ],
      "name": "PrintOrdered",
      "type": "event"
    },
    {
      "anonymous": false,
      "inputs": [
        {
          "components": [
            {
              "internalType": "address",
              "name": "sourceContract",
              "type": "address"
            },
            {
              "internalType": "uint256",
              "name": "sourceTokenId",
              "type": "uint256"
            }
          ],
          "indexed": false,
          "internalType": "struct Assemblage.SourceToken",
          "name": "",
          "type": "tuple"
        },
        {
          "indexed": false,
          "internalType": "uint256",
          "name": "tokenId",
          "type": "uint256"
        },
        {
          "indexed": false,
          "internalType": "address",
          "name": "to",
          "type": "address"
        }
      ],
      "name": "SourceTokenMinted",
      "type": "event"
    },
    {
      "anonymous": false,
      "inputs": [
        {
          "indexed": true,
          "internalType": "address",
          "name": "from",
          "type": "address"
        },
        {
          "indexed": true,
          "internalType": "address",
          "name": "to",
          "type": "address"
        },
        {
          "indexed": true,
          "internalType": "uint256",
          "name": "tokenId",
          "type": "uint256"
        }
      ],
      "name": "Transfer",
      "type": "event"
    },
    {
      "inputs": [
        {
          "internalType": "address",
          "name": "to",
          "type": "address"
        },
        {
          "internalType": "uint256",
          "name": "tokenId",
          "type": "uint256"
        }
      ],
      "name": "approve",
      "outputs": [],
      "stateMutability": "nonpayable",
      "type": "function"
    },
    {
      "inputs": [
        {
          "internalType": "address",
          "name": "owner",
          "type": "address"
        }
      ],
      "name": "balanceOf",
      "outputs": [
        {
          "internalType": "uint256",
          "name": "",
          "type": "uint256"
        }
      ],
      "stateMutability": "view",
      "type": "function"
    },
    {
      "inputs": [],
      "name": "contractURI",
      "outputs": [
        {
          "internalType": "string",
          "name": "",
          "type": "string"
        }
      ],
      "stateMutability": "view",
      "type": "function"
    },
    {
      "inputs": [
        {
          "internalType": "uint256",
          "name": "tokenId",
          "type": "uint256"
        }
      ],
      "name": "getApproved",
      "outputs": [
        {
          "internalType": "address",
          "name": "",
          "type": "address"
        }
      ],
      "stateMutability": "view",
      "type": "function"
    },
    {
      "inputs": [
        {
          "internalType": "address",
          "name": "owner",
          "type": "address"
        },
        {
          "internalType": "address",
          "name": "operator",
          "type": "address"
        }
      ],
      "name": "isApprovedForAll",
      "outputs": [
        {
          "internalType": "bool",
          "name": "",
          "type": "bool"
        }
      ],
      "stateMutability": "view",
      "type": "function"
    },
    {
      "inputs": [],
      "name": "maxSupply",
      "outputs": [
        {
          "internalType": "uint256",
          "name": "",
          "type": "uint256"
        }
      ],
      "stateMutability": "view",
      "type": "function"
    },
    {
      "inputs": [
        {
          "internalType": "address",
          "name": "sourceContract",
          "type": "address"
        },
        {
          "internalType": "uint256",
          "name": "sourceTokenId",
          "type": "uint256"
        }
      ],
      "name": "mint",
      "outputs": [],
      "stateMutability": "payable",
      "type": "function"
    },
    {
      "inputs": [],
      "name": "mintEnabled",
      "outputs": [
        {
          "internalType": "bool",
          "name": "",
          "type": "bool"
        }
      ],
      "stateMutability": "view",
      "type": "function"
    },
    {
      "inputs": [],
      "name": "mintPrice",
      "outputs": [
        {
          "internalType": "uint256",
          "name": "",
          "type": "uint256"
        }
      ],
      "stateMutability": "view",
      "type": "function"
    },
    {
      "inputs": [],
      "name": "name",
      "outputs": [
        {
          "internalType": "string",
          "name": "",
          "type": "string"
        }
      ],
      "stateMutability": "view",
      "type": "function"
    },
    {
      "inputs": [],
      "name": "orderPrints",
      "outputs": [],
      "stateMutability": "payable",
      "type": "function"
    },
    {
      "inputs": [],
      "name": "owner",
      "outputs": [
        {
          "internalType": "address",
          "name": "",
          "type": "address"
        }
      ],
      "stateMutability": "view",
      "type": "function"
    },
    {
      "inputs": [
        {
          "internalType": "uint256",
          "name": "tokenId",
          "type": "uint256"
        }
      ],
      "name": "ownerOf",
      "outputs": [
        {
          "internalType": "address",
          "name": "",
          "type": "address"
        }
      ],
      "stateMutability": "view",
      "type": "function"
    },
    {
      "inputs": [],
      "name": "renounceOwnership",
      "outputs": [],
      "stateMutability": "nonpayable",
      "type": "function"
    },
    {
      "inputs": [
        {
          "internalType": "uint256",
          "name": "",
          "type": "uint256"
        },
        {
          "internalType": "uint256",
          "name": "value",
          "type": "uint256"
        }
      ],
      "name": "royaltyInfo",
      "outputs": [
        {
          "internalType": "address",
          "name": "receiver",
          "type": "address"
        },
        {
          "internalType": "uint256",
          "name": "royaltyAmount",
          "type": "uint256"
        }
      ],
      "stateMutability": "view",
      "type": "function"
    },
    {
      "inputs": [
        {
          "internalType": "address",
          "name": "from",
          "type": "address"
        },
        {
          "internalType": "address",
          "name": "to",
          "type": "address"
        },
        {
          "internalType": "uint256",
          "name": "tokenId",
          "type": "uint256"
        }
      ],
      "name": "safeTransferFrom",
      "outputs": [],
      "stateMutability": "nonpayable",
      "type": "function"
    },
    {
      "inputs": [
        {
          "internalType": "address",
          "name": "from",
          "type": "address"
        },
        {
          "internalType": "address",
          "name": "to",
          "type": "address"
        },
        {
          "internalType": "uint256",
          "name": "tokenId",
          "type": "uint256"
        },
        {
          "internalType": "bytes",
          "name": "_data",
          "type": "bytes"
        }
      ],
      "name": "safeTransferFrom",
      "outputs": [],
      "stateMutability": "nonpayable",
      "type": "function"
    },
    {
      "inputs": [
        {
          "internalType": "address",
          "name": "operator",
          "type": "address"
        },
        {
          "internalType": "bool",
          "name": "approved",
          "type": "bool"
        }
      ],
      "name": "setApprovalForAll",
      "outputs": [],
      "stateMutability": "nonpayable",
      "type": "function"
    },
    {
      "inputs": [
        {
          "internalType": "string",
          "name": "newBaseURI",
          "type": "string"
        }
      ],
      "name": "setBaseURI",
      "outputs": [],
      "stateMutability": "nonpayable",
      "type": "function"
    },
    {
      "inputs": [
        {
          "internalType": "uint256",
          "name": "newMintPrice",
          "type": "uint256"
        }
      ],
      "name": "setMintPrice",
      "outputs": [],
      "stateMutability": "nonpayable",
      "type": "function"
    },
    {
      "inputs": [
        {
          "internalType": "bool",
          "name": "newMintingState",
          "type": "bool"
        }
      ],
      "name": "setMinting",
      "outputs": [],
      "stateMutability": "nonpayable",
      "type": "function"
    },
    {
      "inputs": [
        {
          "internalType": "address",
          "name": "recipient",
          "type": "address"
        },
        {
          "internalType": "uint256",
          "name": "value",
          "type": "uint256"
        }
      ],
      "name": "setRoyalties",
      "outputs": [],
      "stateMutability": "nonpayable",
      "type": "function"
    },
    {
      "inputs": [
        {
          "components": [
            {
              "internalType": "address",
              "name": "whitelistAddress",
              "type": "address"
            },
            {
              "internalType": "uint256",
              "name": "amount",
              "type": "uint256"
            }
          ],
          "internalType": "struct Assemblage.WhitelistItem[]",
          "name": "_array",
          "type": "tuple[]"
        }
      ],
      "name": "setWhitelist",
      "outputs": [],
      "stateMutability": "nonpayable",
      "type": "function"
    },
    {
      "inputs": [
        {
          "internalType": "address",
          "name": "",
          "type": "address"
        },
        {
          "internalType": "uint256",
          "name": "",
          "type": "uint256"
        }
      ],
      "name": "sourceTokenMinted",
      "outputs": [
        {
          "internalType": "bool",
          "name": "",
          "type": "bool"
        }
      ],
      "stateMutability": "view",
      "type": "function"
    },
    {
      "inputs": [
        {
          "internalType": "uint256",
          "name": "",
          "type": "uint256"
        }
      ],
      "name": "sourceTokens",
      "outputs": [
        {
          "internalType": "address",
          "name": "sourceContract",
          "type": "address"
        },
        {
          "internalType": "uint256",
          "name": "sourceTokenId",
          "type": "uint256"
        }
      ],
      "stateMutability": "view",
      "type": "function"
    },
    {
      "inputs": [
        {
          "internalType": "bytes4",
          "name": "interfaceId",
          "type": "bytes4"
        }
      ],
      "name": "supportsInterface",
      "outputs": [
        {
          "internalType": "bool",
          "name": "",
          "type": "bool"
        }
      ],
      "stateMutability": "view",
      "type": "function"
    },
    {
      "inputs": [],
      "name": "symbol",
      "outputs": [
        {
          "internalType": "string",
          "name": "",
          "type": "string"
        }
      ],
      "stateMutability": "view",
      "type": "function"
    },
    {
      "inputs": [
        {
          "internalType": "uint256",
          "name": "index",
          "type": "uint256"
        }
      ],
      "name": "tokenByIndex",
      "outputs": [
        {
          "internalType": "uint256",
          "name": "",
          "type": "uint256"
        }
      ],
      "stateMutability": "view",
      "type": "function"
    },
    {
      "inputs": [
        {
          "internalType": "address",
          "name": "owner",
          "type": "address"
        },
        {
          "internalType": "uint256",
          "name": "index",
          "type": "uint256"
        }
      ],
      "name": "tokenOfOwnerByIndex",
      "outputs": [
        {
          "internalType": "uint256",
          "name": "",
          "type": "uint256"
        }
      ],
      "stateMutability": "view",
      "type": "function"
    },
    {
      "inputs": [
        {
          "internalType": "uint256",
          "name": "tokenId",
          "type": "uint256"
        }
      ],
      "name": "tokenURI",
      "outputs": [
        {
          "internalType": "string",
          "name": "",
          "type": "string"
        }
      ],
      "stateMutability": "view",
      "type": "function"
    },
    {
      "inputs": [],
      "name": "totalSupply",
      "outputs": [
        {
          "internalType": "uint256",
          "name": "",
          "type": "uint256"
        }
      ],
      "stateMutability": "view",
      "type": "function"
    },
    {
      "inputs": [
        {
          "internalType": "address",
          "name": "from",
          "type": "address"
        },
        {
          "internalType": "address",
          "name": "to",
          "type": "address"
        },
        {
          "internalType": "uint256",
          "name": "tokenId",
          "type": "uint256"
        }
      ],
      "name": "transferFrom",
      "outputs": [],
      "stateMutability": "nonpayable",
      "type": "function"
    },
    {
      "inputs": [
        {
          "internalType": "address",
          "name": "newOwner",
          "type": "address"
        }
      ],
      "name": "transferOwnership",
      "outputs": [],
      "stateMutability": "nonpayable",
      "type": "function"
    },
    {
      "inputs": [
        {
          "internalType": "address",
          "name": "",
          "type": "address"
        }
      ],
      "name": "whitelist",
      "outputs": [
        {
          "internalType": "uint256",
          "name": "",
          "type": "uint256"
        }
      ],
      "stateMutability": "view",
      "type": "function"
    },
    {
      "inputs": [],
      "name": "withdrawEth",
      "outputs": [],
      "stateMutability": "nonpayable",
      "type": "function"
    }
  ],
  "bytecode": "0x60a06040523480156200001157600080fd5b5060405162003242380380620032428339810160408190526200003491620004a3565b604080518082018252600a815269417373656d626c61676560b01b60208083019182528351808501909452600384526210509360ea1b908401528151919291620000819160009162000332565b5080516200009790600190602084019062000332565b505050620000b4620000ae6200011960201b60201c565b6200011d565b8151620000c990600e90602085019062000332565b5067011c37937e080000600c55600d805460ff19169055611ef1608052620000f1816200016f565b6200011162000108600a546001600160a01b031690565b6101f462000243565b505062000679565b3390565b600a80546001600160a01b038381166001600160a01b0319831681179093556040519116919082907f8be0079c531659141344cd1fd0a4f28419497f9722a3daafe3b4186f6b6457e090600090a35050565b600a546001600160a01b03163314620001be5760405162461bcd60e51b815260206004820181905260248201526000805160206200322283398151915260448201526064015b60405180910390fd5b60005b81518110156200023f57818181518110620001e057620001e06200064d565b602002602001015160200151600f60008484815181106200020557620002056200064d565b602090810291909101810151516001600160a01b031682528101919091526040016000205580620002368162000623565b915050620001c1565b5050565b600a546001600160a01b031633146200028e5760405162461bcd60e51b81526020600482018190526024820152600080516020620032228339815191526044820152606401620001b5565b6200023f8282612710811115620002e85760405162461bcd60e51b815260206004820152601a60248201527f45524332393831526f79616c746965733a20546f6f20686967680000000000006044820152606401620001b5565b604080518082019091526001600160a01b0390921680835262ffffff9091166020909201829052600b8054600160a01b9093026001600160b81b0319909316909117919091179055565b8280546200034090620005e6565b90600052602060002090601f016020900481019282620003645760008555620003af565b82601f106200037f57805160ff1916838001178555620003af565b82800160010185558215620003af579182015b82811115620003af57825182559160200191906001019062000392565b50620003bd929150620003c1565b5090565b5b80821115620003bd5760008155600101620003c2565b600082601f830112620003ea57600080fd5b815160206001600160401b0382111562000408576200040862000663565b62000418818360051b01620005b3565b80838252828201915082860187848660061b89010111156200043957600080fd5b60005b858110156200049657604080838b0312156200045757600080fd5b6200046162000588565b83516001600160a01b03811681146200047957600080fd5b81528387015187820152855293850193909101906001016200043c565b5090979650505050505050565b60008060408385031215620004b757600080fd5b82516001600160401b0380821115620004cf57600080fd5b818501915085601f830112620004e457600080fd5b815181811115620004f957620004f962000663565b60206200050f601f8301601f19168201620005b3565b82815288828487010111156200052457600080fd5b60005b838110156200054457858101830151828201840152820162000527565b83811115620005565760008385840101525b5090870151909550925050808211156200056f57600080fd5b506200057e85828601620003d8565b9150509250929050565b604080519081016001600160401b0381118282101715620005ad57620005ad62000663565b60405290565b604051601f8201601f191681016001600160401b0381118282101715620005de57620005de62000663565b604052919050565b600181811c90821680620005fb57607f821691505b602082108114156200061d57634e487b7160e01b600052602260045260246000fd5b50919050565b60006000198214156200064657634e487b7160e01b600052601160045260246000fd5b5060010190565b634e487b7160e01b600052603260045260246000fd5b634e487b7160e01b600052604160045260246000fd5b608051612b866200069c600039600081816105cc0152610b370152612b866000f3fe6080604052600436106102045760003560e01c80638c7ea24b11610118578063c87b56dd116100a0578063e985e9c51161006f578063e985e9c514610603578063eb53ef521461064c578063f2fde38b1461068c578063f4a0a528146106ac578063f70429de146106cc57600080fd5b8063c87b56dd14610585578063d1239730146105a5578063d5abeb01146105ba578063e8a3d485146105ee57600080fd5b8063a0ef91df116100e7578063a0ef91df146104d5578063a22cb465146104ea578063aff810e71461050a578063b4c7f06614610545578063b88d4fde1461056557600080fd5b80638c7ea24b146104555780638da5cb5b1461047557806395d89b41146104935780639b19251a146104a857600080fd5b80632f745c591161019b57806355f804b31161016a57806355f804b3146103cb5780636352211e146103eb5780636817c76c1461040b57806370a0823114610420578063715018a61461044057600080fd5b80632f745c591461035857806340c10f191461037857806342842e0e1461038b5780634f6ccce7146103ab57600080fd5b806318160ddd116101d757806318160ddd146102ba5780631f8e6551146102d957806323b872dd146102f95780632a55205a1461031957600080fd5b806301ffc9a71461020957806306fdde031461023e578063081812fc14610260578063095ea7b314610298575b600080fd5b34801561021557600080fd5b506102296102243660046126ba565b6106d4565b60405190151581526020015b60405180910390f35b34801561024a57600080fd5b506102536106e5565b604051610235919061286c565b34801561026c57600080fd5b5061028061027b36600461273d565b610777565b6040516001600160a01b039091168152602001610235565b3480156102a457600080fd5b506102b86102b336600461257a565b610811565b005b3480156102c657600080fd5b506008545b604051908152602001610235565b3480156102e557600080fd5b506102b86102f43660046125a6565b610927565b34801561030557600080fd5b506102b861031436600461248b565b6109cc565b34801561032557600080fd5b5061033961033436600461276f565b6109fd565b604080516001600160a01b039093168352602083019190915201610235565b34801561036457600080fd5b506102cb61037336600461257a565b610a52565b6102b861038636600461257a565b610ae8565b34801561039757600080fd5b506102b86103a636600461248b565b610f86565b3480156103b757600080fd5b506102cb6103c636600461273d565b610fa1565b3480156103d757600080fd5b506102b86103e63660046126f4565b611034565b3480156103f757600080fd5b5061028061040636600461273d565b611071565b34801561041757600080fd5b506102cb6110e8565b34801561042c57600080fd5b506102cb61043b366004612418565b61113b565b34801561044c57600080fd5b506102b86111c2565b34801561046157600080fd5b506102b861047036600461257a565b6111f8565b34801561048157600080fd5b50600a546001600160a01b0316610280565b34801561049f57600080fd5b5061025361122c565b3480156104b457600080fd5b506102cb6104c3366004612418565b600f6020526000908152604090205481565b3480156104e157600080fd5b506102b861123b565b3480156104f657600080fd5b506102b861050536600461254c565b6112f1565b34801561051657600080fd5b5061022961052536600461257a565b601160209081526000928352604080842090915290825290205460ff1681565b34801561055157600080fd5b506102b8610560366004612680565b6112fc565b34801561057157600080fd5b506102b86105803660046124cc565b611339565b34801561059157600080fd5b506102536105a036600461273d565b611371565b3480156105b157600080fd5b5061022961144c565b3480156105c657600080fd5b506102cb7f000000000000000000000000000000000000000000000000000000000000000081565b3480156105fa57600080fd5b506102536114a2565b34801561060f57600080fd5b5061022961061e366004612452565b6001600160a01b03918216600090815260056020908152604080832093909416825291909152205460ff1690565b34801561065857600080fd5b5061033961066736600461273d565b601060205260009081526040902080546001909101546001600160a01b039091169082565b34801561069857600080fd5b506102b86106a7366004612418565b6114f5565b3480156106b857600080fd5b506102b86106c736600461273d565b611590565b6102b86115bf565b60006106df82611658565b92915050565b6060600080546106f490612a3f565b80601f016020809104026020016040519081016040528092919081815260200182805461072090612a3f565b801561076d5780601f106107425761010080835404028352916020019161076d565b820191906000526020600020905b81548152906001019060200180831161075057829003601f168201915b5050505050905090565b6000818152600260205260408120546001600160a01b03166107f55760405162461bcd60e51b815260206004820152602c60248201527f4552433732313a20617070726f76656420717565727920666f72206e6f6e657860448201526b34b9ba32b73a103a37b5b2b760a11b60648201526084015b60405180910390fd5b506000908152600460205260409020546001600160a01b031690565b600061081c82611071565b9050806001600160a01b0316836001600160a01b0316141561088a5760405162461bcd60e51b815260206004820152602160248201527f4552433732313a20617070726f76616c20746f2063757272656e74206f776e656044820152603960f91b60648201526084016107ec565b336001600160a01b03821614806108a657506108a6813361061e565b6109185760405162461bcd60e51b815260206004820152603860248201527f4552433732313a20617070726f76652063616c6c6572206973206e6f74206f7760448201527f6e6572206e6f7220617070726f76656420666f7220616c6c000000000000000060648201526084016107ec565b610922838361167d565b505050565b600a546001600160a01b031633146109515760405162461bcd60e51b81526004016107ec906128d1565b60005b81518110156109c85781818151811061096f5761096f612aeb565b602002602001015160200151600f600084848151811061099157610991612aeb565b602090810291909101810151516001600160a01b0316825281019190915260400160002055806109c081612a7a565b915050610954565b5050565b6109d633826116eb565b6109f25760405162461bcd60e51b81526004016107ec90612906565b6109228383836117e2565b60408051808201909152600b546001600160a01b038116808352600160a01b90910462ffffff1660208301819052909160009161271090610a3e90866129dd565b610a4891906129c9565b9150509250929050565b6000610a5d8361113b565b8210610abf5760405162461bcd60e51b815260206004820152602b60248201527f455243373231456e756d657261626c653a206f776e657220696e646578206f7560448201526a74206f6620626f756e647360a81b60648201526084016107ec565b506001600160a01b03919091166000908152600660209081526040808320938352929052205490565b610af061144c565b610b355760405162461bcd60e51b8152602060048201526016602482015275135a5b9d1a5b99c81a5cc81b9bdd08195b98589b195960521b60448201526064016107ec565b7f0000000000000000000000000000000000000000000000000000000000000000610b5f60085490565b10610ba25760405162461bcd60e51b815260206004820152601360248201527214dd5c1c1b1e481a5cc8195e1a185d5cdd1959606a1b60448201526064016107ec565b6001600160a01b038216600090815260116020908152604080832084845290915290205460ff1615610c165760405162461bcd60e51b815260206004820152601d60248201527f5468697320746f6b656e2077617320616c7265616479206d696e74656400000060448201526064016107ec565b610c1e6110e8565b341015610c6d5760405162461bcd60e51b815260206004820152601b60248201527f496e73756666696369656e742076616c756520666f72206d696e74000000000060448201526064016107ec565b610c876001600160a01b0383166380ac58cd60e01b61198d565b15610d7a576040516331a9108f60e11b81526004810182905233906001600160a01b03841690636352211e9060240160206040518083038186803b158015610cce57600080fd5b505afa158015610ce2573d6000803e3d6000fd5b505050506040513d601f19601f82011682018060405250810190610d069190612435565b6001600160a01b031614610d755760405162461bcd60e51b815260206004820152603060248201527f596f7520646f206e6f74206f776e207468697320746f6b656e20696e2074686560448201526f081cdbdd5c98d94818dbdb9d1c9858dd60821b60648201526084016107ec565b610e7f565b610d946001600160a01b038316636cdb3d1360e11b61198d565b15610e7f57604051627eeac760e11b8152336004820152602481018290526000906001600160a01b0384169062fdd58e9060440160206040518083038186803b158015610de057600080fd5b505afa158015610df4573d6000803e3d6000fd5b505050506040513d601f19601f82011682018060405250810190610e189190612756565b11610e7f5760405162461bcd60e51b815260206004820152603160248201527f596f7520646f206e6f74206f776e207468697320746f6b656e20696e2074686560448201527020736f7572636520636f6e74726163742160781b60648201526084016107ec565b6000610e8a60085490565b336000908152600f602052604090205490915015610ec857336000908152600f60205260408120805460019290610ec29084906129fc565b90915550505b610ed233826119a9565b6040805180820182526001600160a01b038581168083526020808401878152600087815260108352868120865181546001600160a01b0319169087161781558251600191820155938152601183528681208982528352869020805460ff1916909317909255845184519093168352905190820152918201839052336060830152907f670e7290204c50f0ab4452d3e4a7534e1e511f6098ad647a5f9e2727356a01489060800160405180910390a150505050565b61092283838360405180602001604052806000815250611339565b6000610fac60085490565b821061100f5760405162461bcd60e51b815260206004820152602c60248201527f455243373231456e756d657261626c653a20676c6f62616c20696e646578206f60448201526b7574206f6620626f756e647360a01b60648201526084016107ec565b6008828154811061102257611022612aeb565b90600052602060002001549050919050565b600a546001600160a01b0316331461105e5760405162461bcd60e51b81526004016107ec906128d1565b80516109c890600e906020840190612327565b6000818152600260205260408120546001600160a01b0316806106df5760405162461bcd60e51b815260206004820152602960248201527f4552433732313a206f776e657220717565727920666f72206e6f6e657869737460448201526832b73a103a37b5b2b760b91b60648201526084016107ec565b60006110fc600a546001600160a01b031690565b6001600160a01b0316336001600160a01b031614806111295750336000908152600f602052604090205415155b156111345750600090565b50600c5490565b60006001600160a01b0382166111a65760405162461bcd60e51b815260206004820152602a60248201527f4552433732313a2062616c616e636520717565727920666f7220746865207a65604482015269726f206164647265737360b01b60648201526084016107ec565b506001600160a01b031660009081526003602052604090205490565b600a546001600160a01b031633146111ec5760405162461bcd60e51b81526004016107ec906128d1565b6111f660006119c3565b565b600a546001600160a01b031633146112225760405162461bcd60e51b81526004016107ec906128d1565b6109c88282611a15565b6060600180546106f490612a3f565b600a546001600160a01b031633146112655760405162461bcd60e51b81526004016107ec906128d1565b6040514790600090339083908381818185875af1925050503d80600081146112a9576040519150601f19603f3d011682016040523d82523d6000602084013e6112ae565b606091505b50509050806109c85760405162461bcd60e51b815260206004820152600f60248201526e15da5d1a191c985dc819985a5b1959608a1b60448201526064016107ec565b6109c8338383611ab1565b600a546001600160a01b031633146113265760405162461bcd60e51b81526004016107ec906128d1565b600d805460ff1916911515919091179055565b61134333836116eb565b61135f5760405162461bcd60e51b81526004016107ec90612906565b61136b84848484611b80565b50505050565b6000818152600260205260409020546060906001600160a01b03166113f05760405162461bcd60e51b815260206004820152602f60248201527f4552433732314d657461646174613a2055524920717565727920666f72206e6f60448201526e3732bc34b9ba32b73a103a37b5b2b760891b60648201526084016107ec565b60006113fa611bb3565b9050600081511161141a5760405180602001604052806000815250611445565b8061142484611bc2565b6040516020016114359291906127d9565b6040516020818303038152906040525b9392505050565b6000611460600a546001600160a01b031690565b6001600160a01b0316336001600160a01b0316148061148d5750336000908152600f602052604090205415155b156114985750600190565b50600d5460ff1690565b606060006114ae611bb3565b905060008151116114ce57604051806020016040528060008152506114ef565b806040516020016114df9190612808565b6040516020818303038152906040525b91505090565b600a546001600160a01b0316331461151f5760405162461bcd60e51b81526004016107ec906128d1565b6001600160a01b0381166115845760405162461bcd60e51b815260206004820152602660248201527f4f776e61626c653a206e6577206f776e657220697320746865207a65726f206160448201526564647265737360d01b60648201526084016107ec565b61158d816119c3565b50565b600a546001600160a01b031633146115ba5760405162461bcd60e51b81526004016107ec906128d1565b600c55565b6000341161161e5760405162461bcd60e51b815260206004820152602660248201527f496e73756666696369656e742076616c756520666f72206f72646572696e67206044820152657072696e747360d01b60648201526084016107ec565b604080513381523460208201527fa4cf3ada86a3fccf5f0429f5f8dcac085349231b6700d053945bd0292f222744910160405180910390a1565b60006001600160e01b0319821663152a902d60e11b14806106df57506106df82611cc0565b600081815260046020526040902080546001600160a01b0319166001600160a01b03841690811790915581906116b282611071565b6001600160a01b03167f8c5be1e5ebec7d5bd14f71427d1e84f3dd0314c0f7b2291e5b200ac8c7c3b92560405160405180910390a45050565b6000818152600260205260408120546001600160a01b03166117645760405162461bcd60e51b815260206004820152602c60248201527f4552433732313a206f70657261746f7220717565727920666f72206e6f6e657860448201526b34b9ba32b73a103a37b5b2b760a11b60648201526084016107ec565b600061176f83611071565b9050806001600160a01b0316846001600160a01b031614806117aa5750836001600160a01b031661179f84610777565b6001600160a01b0316145b806117da57506001600160a01b0380821660009081526005602090815260408083209388168352929052205460ff165b949350505050565b826001600160a01b03166117f582611071565b6001600160a01b03161461185d5760405162461bcd60e51b815260206004820152602960248201527f4552433732313a207472616e73666572206f6620746f6b656e2074686174206960448201526839903737ba1037bbb760b91b60648201526084016107ec565b6001600160a01b0382166118bf5760405162461bcd60e51b8152602060048201526024808201527f4552433732313a207472616e7366657220746f20746865207a65726f206164646044820152637265737360e01b60648201526084016107ec565b6118ca838383611ce5565b6118d560008261167d565b6001600160a01b03831660009081526003602052604081208054600192906118fe9084906129fc565b90915550506001600160a01b038216600090815260036020526040812080546001929061192c9084906129b1565b909155505060008181526002602052604080822080546001600160a01b0319166001600160a01b0386811691821790925591518493918716917fddf252ad1be2c89b69c2b068fc378daa952ba7f163c4a11628f55a4df523b3ef91a4505050565b600061199883611d9d565b801561144557506114458383611dd0565b6109c8828260405180602001604052806000815250611eb9565b600a80546001600160a01b038381166001600160a01b0319831681179093556040519116919082907f8be0079c531659141344cd1fd0a4f28419497f9722a3daafe3b4186f6b6457e090600090a35050565b612710811115611a675760405162461bcd60e51b815260206004820152601a60248201527f45524332393831526f79616c746965733a20546f6f206869676800000000000060448201526064016107ec565b604080518082019091526001600160a01b0390921680835262ffffff9091166020909201829052600b8054600160a01b9093026001600160b81b0319909316909117919091179055565b816001600160a01b0316836001600160a01b03161415611b135760405162461bcd60e51b815260206004820152601960248201527f4552433732313a20617070726f766520746f2063616c6c65720000000000000060448201526064016107ec565b6001600160a01b03838116600081815260056020908152604080832094871680845294825291829020805460ff191686151590811790915591519182527f17307eab39ab6107e8899845ad3d59bd9653f200f220920489ca2b5937696c31910160405180910390a3505050565b611b8b8484846117e2565b611b9784848484611eec565b61136b5760405162461bcd60e51b81526004016107ec9061287f565b6060600e80546106f490612a3f565b606081611be65750506040805180820190915260018152600360fc1b602082015290565b8160005b8115611c105780611bfa81612a7a565b9150611c099050600a836129c9565b9150611bea565b60008167ffffffffffffffff811115611c2b57611c2b612b01565b6040519080825280601f01601f191660200182016040528015611c55576020820181803683370190505b5090505b84156117da57611c6a6001836129fc565b9150611c77600a86612a95565b611c829060306129b1565b60f81b818381518110611c9757611c97612aeb565b60200101906001600160f81b031916908160001a905350611cb9600a866129c9565b9450611c59565b60006001600160e01b0319821663780e9d6360e01b14806106df57506106df82611ff9565b6001600160a01b038316611d4057611d3b81600880546000838152600960205260408120829055600182018355919091527ff3f7a9fe364faab93b216da50a3214154f22a0a2b415b23a84c8169e8b636ee30155565b611d63565b816001600160a01b0316836001600160a01b031614611d6357611d638382612049565b6001600160a01b038216611d7a57610922816120e6565b826001600160a01b0316826001600160a01b031614610922576109228282612195565b6000611db0826301ffc9a760e01b611dd0565b80156106df5750611dc9826001600160e01b0319611dd0565b1592915050565b604080516001600160e01b0319831660248083019190915282518083039091018152604490910182526020810180516001600160e01b03166301ffc9a760e01b179052905160009190829081906001600160a01b0387169061753090611e379086906127bd565b6000604051808303818686fa925050503d8060008114611e73576040519150601f19603f3d011682016040523d82523d6000602084013e611e78565b606091505b5091509150602081511015611e9357600093505050506106df565b818015611eaf575080806020019051810190611eaf919061269d565b9695505050505050565b611ec383836121d9565b611ed06000848484611eec565b6109225760405162461bcd60e51b81526004016107ec9061287f565b60006001600160a01b0384163b15611fee57604051630a85bd0160e11b81526001600160a01b0385169063150b7a0290611f30903390899088908890600401612839565b602060405180830381600087803b158015611f4a57600080fd5b505af1925050508015611f7a575060408051601f3d908101601f19168201909252611f77918101906126d7565b60015b611fd4573d808015611fa8576040519150601f19603f3d011682016040523d82523d6000602084013e611fad565b606091505b508051611fcc5760405162461bcd60e51b81526004016107ec9061287f565b805181602001fd5b6001600160e01b031916630a85bd0160e11b1490506117da565b506001949350505050565b60006001600160e01b031982166380ac58cd60e01b148061202a57506001600160e01b03198216635b5e139f60e01b145b806106df57506301ffc9a760e01b6001600160e01b03198316146106df565b600060016120568461113b565b61206091906129fc565b6000838152600760205260409020549091508082146120b3576001600160a01b03841660009081526006602090815260408083208584528252808320548484528184208190558352600790915290208190555b5060009182526007602090815260408084208490556001600160a01b039094168352600681528383209183525290812055565b6008546000906120f8906001906129fc565b6000838152600960205260408120546008805493945090928490811061212057612120612aeb565b90600052602060002001549050806008838154811061214157612141612aeb565b600091825260208083209091019290925582815260099091526040808220849055858252812055600880548061217957612179612ad5565b6001900381819060005260206000200160009055905550505050565b60006121a08361113b565b6001600160a01b039093166000908152600660209081526040808320868452825280832085905593825260079052919091209190915550565b6001600160a01b03821661222f5760405162461bcd60e51b815260206004820181905260248201527f4552433732313a206d696e7420746f20746865207a65726f206164647265737360448201526064016107ec565b6000818152600260205260409020546001600160a01b0316156122945760405162461bcd60e51b815260206004820152601c60248201527f4552433732313a20746f6b656e20616c7265616479206d696e7465640000000060448201526064016107ec565b6122a060008383611ce5565b6001600160a01b03821660009081526003602052604081208054600192906122c99084906129b1565b909155505060008181526002602052604080822080546001600160a01b0319166001600160a01b03861690811790915590518392907fddf252ad1be2c89b69c2b068fc378daa952ba7f163c4a11628f55a4df523b3ef908290a45050565b82805461233390612a3f565b90600052602060002090601f016020900481019282612355576000855561239b565b82601f1061236e57805160ff191683800117855561239b565b8280016001018555821561239b579182015b8281111561239b578251825591602001919060010190612380565b506123a79291506123ab565b5090565b5b808211156123a757600081556001016123ac565b600067ffffffffffffffff8311156123da576123da612b01565b6123ed601f8401601f1916602001612980565b905082815283838301111561240157600080fd5b828260208301376000602084830101529392505050565b60006020828403121561242a57600080fd5b813561144581612b17565b60006020828403121561244757600080fd5b815161144581612b17565b6000806040838503121561246557600080fd5b823561247081612b17565b9150602083013561248081612b17565b809150509250929050565b6000806000606084860312156124a057600080fd5b83356124ab81612b17565b925060208401356124bb81612b17565b929592945050506040919091013590565b600080600080608085870312156124e257600080fd5b84356124ed81612b17565b935060208501356124fd81612b17565b925060408501359150606085013567ffffffffffffffff81111561252057600080fd5b8501601f8101871361253157600080fd5b612540878235602084016123c0565b91505092959194509250565b6000806040838503121561255f57600080fd5b823561256a81612b17565b9150602083013561248081612b2c565b6000806040838503121561258d57600080fd5b823561259881612b17565b946020939093013593505050565b600060208083850312156125b957600080fd5b823567ffffffffffffffff808211156125d157600080fd5b818501915085601f8301126125e557600080fd5b8135818111156125f7576125f7612b01565b612605848260051b01612980565b8181528481019250838501600683901b8501860189101561262557600080fd5b60009450845b8381101561267257604080838c031215612643578687fd5b61264b612957565b833561265681612b17565b815283890135898201528652948701949091019060010161262b565b509098975050505050505050565b60006020828403121561269257600080fd5b813561144581612b2c565b6000602082840312156126af57600080fd5b815161144581612b2c565b6000602082840312156126cc57600080fd5b813561144581612b3a565b6000602082840312156126e957600080fd5b815161144581612b3a565b60006020828403121561270657600080fd5b813567ffffffffffffffff81111561271d57600080fd5b8201601f8101841361272e57600080fd5b6117da848235602084016123c0565b60006020828403121561274f57600080fd5b5035919050565b60006020828403121561276857600080fd5b5051919050565b6000806040838503121561278257600080fd5b50508035926020909101359150565b600081518084526127a9816020860160208601612a13565b601f01601f19169290920160200192915050565b600082516127cf818460208701612a13565b9190910192915050565b600083516127eb818460208801612a13565b8351908301906127ff818360208801612a13565b01949350505050565b6000825161281a818460208701612a13565b6c31b7b73a3930b1ba173539b7b760991b920191825250600d01919050565b6001600160a01b0385811682528416602082015260408101839052608060608201819052600090611eaf90830184612791565b6020815260006114456020830184612791565b60208082526032908201527f4552433732313a207472616e7366657220746f206e6f6e20455243373231526560408201527131b2b4bb32b91034b6b83632b6b2b73a32b960711b606082015260800190565b6020808252818101527f4f776e61626c653a2063616c6c6572206973206e6f7420746865206f776e6572604082015260600190565b60208082526031908201527f4552433732313a207472616e736665722063616c6c6572206973206e6f74206f6040820152701ddb995c881b9bdc88185c1c1c9bdd9959607a1b606082015260800190565b6040805190810167ffffffffffffffff8111828210171561297a5761297a612b01565b60405290565b604051601f8201601f1916810167ffffffffffffffff811182821017156129a9576129a9612b01565b604052919050565b600082198211156129c4576129c4612aa9565b500190565b6000826129d8576129d8612abf565b500490565b60008160001904831182151516156129f7576129f7612aa9565b500290565b600082821015612a0e57612a0e612aa9565b500390565b60005b83811015612a2e578181015183820152602001612a16565b8381111561136b5750506000910152565b600181811c90821680612a5357607f821691505b60208210811415612a7457634e487b7160e01b600052602260045260246000fd5b50919050565b6000600019821415612a8e57612a8e612aa9565b5060010190565b600082612aa457612aa4612abf565b500690565b634e487b7160e01b600052601160045260246000fd5b634e487b7160e01b600052601260045260246000fd5b634e487b7160e01b600052603160045260246000fd5b634e487b7160e01b600052603260045260246000fd5b634e487b7160e01b600052604160045260246000fd5b6001600160a01b038116811461158d57600080fd5b801515811461158d57600080fd5b6001600160e01b03198116811461158d57600080fdfea2646970667358221220ce08a942b9e4c380ca1ea73c65649e39e3f5e5ecae5b408c115684afbaa62f7564736f6c634300080700334f776e61626c653a2063616c6c6572206973206e6f7420746865206f776e6572",
  "linkReferences": {},
  "deployedLinkReferences": {}
}