{
  "_format": "hh-sol-artifact-1",
  "contractName": "Assemblage",
  "sourceName": "contracts/Assemblage.sol",
  "abi": [
    {
      "inputs": [],
      "stateMutability": "nonpayable",
      "type": "constructor"
    },
    {
      "anonymous": false,
      "inputs": [
        {
          "indexed": true,
          "internalType": "address",
          "name": "owner",
          "type": "address"
        },
        {
          "indexed": true,
          "internalType": "address",
          "name": "approved",
          "type": "address"
        },
        {
          "indexed": true,
          "internalType": "uint256",
          "name": "tokenId",
          "type": "uint256"
        }
      ],
      "name": "Approval",
      "type": "event"
    },
    {
      "anonymous": false,
      "inputs": [
        {
          "indexed": true,
          "internalType": "address",
          "name": "owner",
          "type": "address"
        },
        {
          "indexed": true,
          "internalType": "address",
          "name": "operator",
          "type": "address"
        },
        {
          "indexed": false,
          "internalType": "bool",
          "name": "approved",
          "type": "bool"
        }
      ],
      "name": "ApprovalForAll",
      "type": "event"
    },
    {
      "anonymous": false,
      "inputs": [
        {
          "indexed": true,
          "internalType": "address",
          "name": "previousOwner",
          "type": "address"
        },
        {
          "indexed": true,
          "internalType": "address",
          "name": "newOwner",
          "type": "address"
        }
      ],
      "name": "OwnershipTransferred",
      "type": "event"
    },
    {
      "anonymous": false,
      "inputs": [
        {
          "components": [
            {
              "internalType": "address",
              "name": "sourceContract",
              "type": "address"
            },
            {
              "internalType": "uint256",
              "name": "sourceTokenId",
              "type": "uint256"
            }
          ],
          "indexed": false,
          "internalType": "struct Assemblage.SourceToken",
          "name": "",
          "type": "tuple"
        },
        {
          "indexed": false,
          "internalType": "uint256",
          "name": "tokenId",
          "type": "uint256"
        },
        {
          "indexed": false,
          "internalType": "address",
          "name": "to",
          "type": "address"
        }
      ],
      "name": "SourceTokenMinted",
      "type": "event"
    },
    {
      "anonymous": false,
      "inputs": [
        {
          "indexed": true,
          "internalType": "address",
          "name": "from",
          "type": "address"
        },
        {
          "indexed": true,
          "internalType": "address",
          "name": "to",
          "type": "address"
        },
        {
          "indexed": true,
          "internalType": "uint256",
          "name": "tokenId",
          "type": "uint256"
        }
      ],
      "name": "Transfer",
      "type": "event"
    },
    {
      "inputs": [
        {
          "internalType": "address",
          "name": "to",
          "type": "address"
        },
        {
          "internalType": "uint256",
          "name": "tokenId",
          "type": "uint256"
        }
      ],
      "name": "approve",
      "outputs": [],
      "stateMutability": "nonpayable",
      "type": "function"
    },
    {
      "inputs": [
        {
          "internalType": "address",
          "name": "owner",
          "type": "address"
        }
      ],
      "name": "balanceOf",
      "outputs": [
        {
          "internalType": "uint256",
          "name": "",
          "type": "uint256"
        }
      ],
      "stateMutability": "view",
      "type": "function"
    },
    {
      "inputs": [
        {
          "internalType": "address",
          "name": "",
          "type": "address"
        }
      ],
      "name": "freeloaders",
      "outputs": [
        {
          "internalType": "uint256",
          "name": "",
          "type": "uint256"
        }
      ],
      "stateMutability": "view",
      "type": "function"
    },
    {
      "inputs": [
        {
          "internalType": "uint256",
          "name": "tokenId",
          "type": "uint256"
        }
      ],
      "name": "getApproved",
      "outputs": [
        {
          "internalType": "address",
          "name": "",
          "type": "address"
        }
      ],
      "stateMutability": "view",
      "type": "function"
    },
    {
      "inputs": [
        {
          "internalType": "address",
          "name": "_address",
          "type": "address"
        }
      ],
      "name": "getFreeloaderCount",
      "outputs": [
        {
          "internalType": "uint256",
          "name": "",
          "type": "uint256"
        }
      ],
      "stateMutability": "view",
      "type": "function"
    },
    {
      "inputs": [
        {
          "internalType": "address",
          "name": "owner",
          "type": "address"
        },
        {
          "internalType": "address",
          "name": "operator",
          "type": "address"
        }
      ],
      "name": "isApprovedForAll",
      "outputs": [
        {
          "internalType": "bool",
          "name": "",
          "type": "bool"
        }
      ],
      "stateMutability": "view",
      "type": "function"
    },
    {
      "inputs": [],
      "name": "maxSupply",
      "outputs": [
        {
          "internalType": "uint256",
          "name": "",
          "type": "uint256"
        }
      ],
      "stateMutability": "view",
      "type": "function"
    },
    {
      "inputs": [
        {
          "internalType": "address",
          "name": "sourceContract",
          "type": "address"
        },
        {
          "internalType": "uint256",
          "name": "sourceTokenId",
          "type": "uint256"
        }
      ],
      "name": "mint",
      "outputs": [],
      "stateMutability": "payable",
      "type": "function"
    },
    {
      "inputs": [],
      "name": "mintEnabled",
      "outputs": [
        {
          "internalType": "bool",
          "name": "",
          "type": "bool"
        }
      ],
      "stateMutability": "view",
      "type": "function"
    },
    {
      "inputs": [],
      "name": "mintPrice",
      "outputs": [
        {
          "internalType": "uint256",
          "name": "",
          "type": "uint256"
        }
      ],
      "stateMutability": "view",
      "type": "function"
    },
    {
      "inputs": [],
      "name": "name",
      "outputs": [
        {
          "internalType": "string",
          "name": "",
          "type": "string"
        }
      ],
      "stateMutability": "view",
      "type": "function"
    },
    {
      "inputs": [],
      "name": "owner",
      "outputs": [
        {
          "internalType": "address",
          "name": "",
          "type": "address"
        }
      ],
      "stateMutability": "view",
      "type": "function"
    },
    {
      "inputs": [
        {
          "internalType": "uint256",
          "name": "tokenId",
          "type": "uint256"
        }
      ],
      "name": "ownerOf",
      "outputs": [
        {
          "internalType": "address",
          "name": "",
          "type": "address"
        }
      ],
      "stateMutability": "view",
      "type": "function"
    },
    {
      "inputs": [],
      "name": "renounceOwnership",
      "outputs": [],
      "stateMutability": "nonpayable",
      "type": "function"
    },
    {
      "inputs": [
        {
          "internalType": "uint256",
          "name": "",
          "type": "uint256"
        },
        {
          "internalType": "uint256",
          "name": "value",
          "type": "uint256"
        }
      ],
      "name": "royaltyInfo",
      "outputs": [
        {
          "internalType": "address",
          "name": "receiver",
          "type": "address"
        },
        {
          "internalType": "uint256",
          "name": "royaltyAmount",
          "type": "uint256"
        }
      ],
      "stateMutability": "view",
      "type": "function"
    },
    {
      "inputs": [
        {
          "internalType": "address",
          "name": "from",
          "type": "address"
        },
        {
          "internalType": "address",
          "name": "to",
          "type": "address"
        },
        {
          "internalType": "uint256",
          "name": "tokenId",
          "type": "uint256"
        }
      ],
      "name": "safeTransferFrom",
      "outputs": [],
      "stateMutability": "nonpayable",
      "type": "function"
    },
    {
      "inputs": [
        {
          "internalType": "address",
          "name": "from",
          "type": "address"
        },
        {
          "internalType": "address",
          "name": "to",
          "type": "address"
        },
        {
          "internalType": "uint256",
          "name": "tokenId",
          "type": "uint256"
        },
        {
          "internalType": "bytes",
          "name": "_data",
          "type": "bytes"
        }
      ],
      "name": "safeTransferFrom",
      "outputs": [],
      "stateMutability": "nonpayable",
      "type": "function"
    },
    {
      "inputs": [
        {
          "internalType": "address",
          "name": "operator",
          "type": "address"
        },
        {
          "internalType": "bool",
          "name": "approved",
          "type": "bool"
        }
      ],
      "name": "setApprovalForAll",
      "outputs": [],
      "stateMutability": "nonpayable",
      "type": "function"
    },
    {
      "inputs": [
        {
          "internalType": "string",
          "name": "newBaseURI",
          "type": "string"
        },
        {
          "internalType": "string",
          "name": "newExtensionURI",
          "type": "string"
        }
      ],
      "name": "setBaseURI",
      "outputs": [],
      "stateMutability": "nonpayable",
      "type": "function"
    },
    {
      "inputs": [
        {
          "internalType": "address",
          "name": "_address",
          "type": "address"
        },
        {
          "internalType": "uint256",
          "name": "amount",
          "type": "uint256"
        }
      ],
      "name": "setFreeloader",
      "outputs": [],
      "stateMutability": "nonpayable",
      "type": "function"
    },
    {
      "inputs": [
        {
          "internalType": "uint256",
          "name": "newMintPrice",
          "type": "uint256"
        }
      ],
      "name": "setMintPrice",
      "outputs": [],
      "stateMutability": "nonpayable",
      "type": "function"
    },
    {
      "inputs": [
        {
          "internalType": "bool",
          "name": "newMintingState",
          "type": "bool"
        }
      ],
      "name": "setMinting",
      "outputs": [],
      "stateMutability": "nonpayable",
      "type": "function"
    },
    {
      "inputs": [
        {
          "internalType": "address",
          "name": "recipient",
          "type": "address"
        },
        {
          "internalType": "uint256",
          "name": "value",
          "type": "uint256"
        }
      ],
      "name": "setRoyalties",
      "outputs": [],
      "stateMutability": "nonpayable",
      "type": "function"
    },
    {
      "inputs": [
        {
          "internalType": "address",
          "name": "sourceContract",
          "type": "address"
        },
        {
          "internalType": "uint256",
          "name": "sourceTokenId",
          "type": "uint256"
        }
      ],
      "name": "sourceTokenURI",
      "outputs": [
        {
          "internalType": "string",
          "name": "",
          "type": "string"
        }
      ],
      "stateMutability": "view",
      "type": "function"
    },
    {
      "inputs": [
        {
          "internalType": "uint256",
          "name": "",
          "type": "uint256"
        }
      ],
      "name": "sourceTokens",
      "outputs": [
        {
          "internalType": "address",
          "name": "sourceContract",
          "type": "address"
        },
        {
          "internalType": "uint256",
          "name": "sourceTokenId",
          "type": "uint256"
        }
      ],
      "stateMutability": "view",
      "type": "function"
    },
    {
      "inputs": [
        {
          "internalType": "bytes4",
          "name": "interfaceId",
          "type": "bytes4"
        }
      ],
      "name": "supportsInterface",
      "outputs": [
        {
          "internalType": "bool",
          "name": "",
          "type": "bool"
        }
      ],
      "stateMutability": "view",
      "type": "function"
    },
    {
      "inputs": [],
      "name": "symbol",
      "outputs": [
        {
          "internalType": "string",
          "name": "",
          "type": "string"
        }
      ],
      "stateMutability": "view",
      "type": "function"
    },
    {
      "inputs": [
        {
          "internalType": "uint256",
          "name": "index",
          "type": "uint256"
        }
      ],
      "name": "tokenByIndex",
      "outputs": [
        {
          "internalType": "uint256",
          "name": "",
          "type": "uint256"
        }
      ],
      "stateMutability": "view",
      "type": "function"
    },
    {
      "inputs": [
        {
          "internalType": "address",
          "name": "owner",
          "type": "address"
        },
        {
          "internalType": "uint256",
          "name": "index",
          "type": "uint256"
        }
      ],
      "name": "tokenOfOwnerByIndex",
      "outputs": [
        {
          "internalType": "uint256",
          "name": "",
          "type": "uint256"
        }
      ],
      "stateMutability": "view",
      "type": "function"
    },
    {
      "inputs": [
        {
          "internalType": "uint256",
          "name": "tokenId",
          "type": "uint256"
        }
      ],
      "name": "tokenURI",
      "outputs": [
        {
          "internalType": "string",
          "name": "",
          "type": "string"
        }
      ],
      "stateMutability": "view",
      "type": "function"
    },
    {
      "inputs": [],
      "name": "totalSupply",
      "outputs": [
        {
          "internalType": "uint256",
          "name": "",
          "type": "uint256"
        }
      ],
      "stateMutability": "view",
      "type": "function"
    },
    {
      "inputs": [
        {
          "internalType": "address",
          "name": "from",
          "type": "address"
        },
        {
          "internalType": "address",
          "name": "to",
          "type": "address"
        },
        {
          "internalType": "uint256",
          "name": "tokenId",
          "type": "uint256"
        }
      ],
      "name": "transferFrom",
      "outputs": [],
      "stateMutability": "nonpayable",
      "type": "function"
    },
    {
      "inputs": [
        {
          "internalType": "address",
          "name": "newOwner",
          "type": "address"
        }
      ],
      "name": "transferOwnership",
      "outputs": [],
      "stateMutability": "nonpayable",
      "type": "function"
    },
    {
      "inputs": [],
      "name": "withdrawEth",
      "outputs": [],
      "stateMutability": "nonpayable",
      "type": "function"
    }
  ],
  "bytecode": "0x60a06040523480156200001157600080fd5b50604080518082018252600a815269417373656d626c61676560b01b60208083019182528351808501909452600384526210509360ea1b9084015281519192916200005f9160009162000322565b5080516200007590600190602084019062000322565b505050620000926200008c6200016860201b60201c565b6200016c565b6040805180820190915260208082527f68747470733a2f2f6170692e617373656d626c6167652e65652f746f6b656e2f918101918252620000d691600c9162000322565b5060408051808201909152600580825264173539b7b760d91b60209092019182526200010591600d9162000322565b5066f8b0a10e470000600e55600f805460ff19169055611e616080526200014273c722f9adc49fce183c78b46b2d58c8c30b9a6e846003620001be565b6200016262000159600a546001600160a01b031690565b6101f462000229565b62000405565b3390565b600a80546001600160a01b038381166001600160a01b0319831681179093556040519116919082907f8be0079c531659141344cd1fd0a4f28419497f9722a3daafe3b4186f6b6457e090600090a35050565b600a546001600160a01b031633146200020d5760405162461bcd60e51b815260206004820181905260248201526000805160206200308283398151915260448201526064015b60405180910390fd5b6001600160a01b03909116600090815260106020526040902055565b600a546001600160a01b03163314620002745760405162461bcd60e51b8152602060048201819052602482015260008051602062003082833981519152604482015260640162000204565b62000280828262000284565b5050565b612710811115620002d85760405162461bcd60e51b815260206004820152601a60248201527f45524332393831526f79616c746965733a20546f6f2068696768000000000000604482015260640162000204565b604080518082019091526001600160a01b0390921680835262ffffff9091166020909201829052600b8054600160a01b9093026001600160b81b0319909316909117919091179055565b8280546200033090620003c8565b90600052602060002090601f0160209004810192826200035457600085556200039f565b82601f106200036f57805160ff19168380011785556200039f565b828001600101855582156200039f579182015b828111156200039f57825182559160200191906001019062000382565b50620003ad929150620003b1565b5090565b5b80821115620003ad5760008155600101620003b2565b600181811c90821680620003dd57607f821691505b60208210811415620003ff57634e487b7160e01b600052602260045260246000fd5b50919050565b608051612c5a62000428600039600081816105bc0152610a850152612c5a6000f3fe6080604052600436106101f95760003560e01c8063715018a61161010d578063c265e6ae116100a0578063e985e9c51161006f578063e985e9c5146105de578063eb53ef5214610627578063f2fde38b14610667578063f4a0a52814610687578063f956c103146106a757600080fd5b8063c265e6ae1461053f578063c87b56dd14610575578063d123973014610595578063d5abeb01146105aa57600080fd5b8063a0ef91df116100dc578063a0ef91df146104ca578063a22cb465146104df578063b4c7f066146104ff578063b88d4fde1461051f57600080fd5b8063715018a6146104625780638c7ea24b146104775780638da5cb5b1461049757806395d89b41146104b557600080fd5b806340c10f1911610190578063584301711161015f57806358430171146103cd5780636352211e146103ed5780636790a9de1461040d5780636817c76c1461042d57806370a082311461044257600080fd5b806340c10f191461034d5780634137171c1461036057806342842e0e1461038d5780634f6ccce7146103ad57600080fd5b806318160ddd116101cc57806318160ddd146102af57806323b872dd146102ce5780632a55205a146102ee5780632f745c591461032d57600080fd5b806301ffc9a7146101fe57806306fdde0314610233578063081812fc14610255578063095ea7b31461028d575b600080fd5b34801561020a57600080fd5b5061021e61021936600461264a565b6106c7565b60405190151581526020015b60405180910390f35b34801561023f57600080fd5b506102486106d8565b60405161022a91906128f1565b34801561026157600080fd5b50610275610270366004612755565b61076a565b6040516001600160a01b03909116815260200161022a565b34801561029957600080fd5b506102ad6102a83660046125e4565b610804565b005b3480156102bb57600080fd5b506008545b60405190815260200161022a565b3480156102da57600080fd5b506102ad6102e93660046124f5565b61091a565b3480156102fa57600080fd5b5061030e610309366004612787565b61094b565b604080516001600160a01b03909316835260208301919091520161022a565b34801561033957600080fd5b506102c06103483660046125e4565b6109a0565b6102ad61035b3660046125e4565b610a36565b34801561036c57600080fd5b506102c061037b366004612482565b60106020526000908152604090205481565b34801561039957600080fd5b506102ad6103a83660046124f5565b610f22565b3480156103b957600080fd5b506102c06103c8366004612755565b610f3d565b3480156103d957600080fd5b506102ad6103e83660046125e4565b610fd0565b3480156103f957600080fd5b50610275610408366004612755565b611016565b34801561041957600080fd5b506102ad6104283660046126fb565b61108d565b34801561043957600080fd5b506102c06110de565b34801561044e57600080fd5b506102c061045d366004612482565b611131565b34801561046e57600080fd5b506102ad6111b8565b34801561048357600080fd5b506102ad6104923660046125e4565b6111ee565b3480156104a357600080fd5b50600a546001600160a01b0316610275565b3480156104c157600080fd5b50610248611226565b3480156104d657600080fd5b506102ad611235565b3480156104eb57600080fd5b506102ad6104fa3660046125b6565b6112eb565b34801561050b57600080fd5b506102ad61051a366004612610565b6112f6565b34801561052b57600080fd5b506102ad61053a366004612536565b611333565b34801561054b57600080fd5b506102c061055a366004612482565b6001600160a01b031660009081526010602052604090205490565b34801561058157600080fd5b50610248610590366004612755565b61136b565b3480156105a157600080fd5b5061021e611449565b3480156105b657600080fd5b506102c07f000000000000000000000000000000000000000000000000000000000000000081565b3480156105ea57600080fd5b5061021e6105f93660046124bc565b6001600160a01b03918216600090815260056020908152604080832093909416825291909152205460ff1690565b34801561063357600080fd5b5061030e610642366004612755565b601160205260009081526040902080546001909101546001600160a01b039091169082565b34801561067357600080fd5b506102ad610682366004612482565b61149f565b34801561069357600080fd5b506102ad6106a2366004612755565b61153a565b3480156106b357600080fd5b506102486106c23660046125e4565b611569565b60006106d2826116cb565b92915050565b6060600080546106e790612b13565b80601f016020809104026020016040519081016040528092919081815260200182805461071390612b13565b80156107605780601f1061073557610100808354040283529160200191610760565b820191906000526020600020905b81548152906001019060200180831161074357829003601f168201915b5050505050905090565b6000818152600260205260408120546001600160a01b03166107e85760405162461bcd60e51b815260206004820152602c60248201527f4552433732313a20617070726f76656420717565727920666f72206e6f6e657860448201526b34b9ba32b73a103a37b5b2b760a11b60648201526084015b60405180910390fd5b506000908152600460205260409020546001600160a01b031690565b600061080f82611016565b9050806001600160a01b0316836001600160a01b0316141561087d5760405162461bcd60e51b815260206004820152602160248201527f4552433732313a20617070726f76616c20746f2063757272656e74206f776e656044820152603960f91b60648201526084016107df565b336001600160a01b0382161480610899575061089981336105f9565b61090b5760405162461bcd60e51b815260206004820152603860248201527f4552433732313a20617070726f76652063616c6c6572206973206e6f74206f7760448201527f6e6572206e6f7220617070726f76656420666f7220616c6c000000000000000060648201526084016107df565b61091583836116f0565b505050565b610924338261175e565b6109405760405162461bcd60e51b81526004016107df906129db565b610915838383611855565b60408051808201909152600b546001600160a01b038116808352600160a01b90910462ffffff166020830181905290916000916127109061098c9086612ab1565b6109969190612a9d565b9150509250929050565b60006109ab83611131565b8210610a0d5760405162461bcd60e51b815260206004820152602b60248201527f455243373231456e756d657261626c653a206f776e657220696e646578206f7560448201526a74206f6620626f756e647360a81b60648201526084016107df565b506001600160a01b03919091166000908152600660209081526040808320938352929052205490565b610a3e611449565b610a835760405162461bcd60e51b8152602060048201526016602482015275135a5b9d1a5b99c81a5cc81b9bdd08195b98589b195960521b60448201526064016107df565b7f0000000000000000000000000000000000000000000000000000000000000000610aad60085490565b10610af05760405162461bcd60e51b815260206004820152601360248201527214dd5c1c1b1e481a5cc8195e1a185d5cdd1959606a1b60448201526064016107df565b6001600160a01b038216600090815260126020908152604080832084845290915290205460ff1615610b645760405162461bcd60e51b815260206004820152601d60248201527f5468697320746f6b656e2077617320616c7265616479206d696e74656400000060448201526064016107df565b610b6c6110de565b341015610bbb5760405162461bcd60e51b815260206004820152601b60248201527f496e73756666696369656e742076616c756520666f72206d696e74000000000060448201526064016107df565b610bd56001600160a01b0383166380ac58cd60e01b611a00565b15610c7f576040516331a9108f60e11b81526004810182905233906001600160a01b03841690636352211e9060240160206040518083038186803b158015610c1c57600080fd5b505afa158015610c30573d6000803e3d6000fd5b505050506040513d601f19601f82011682018060405250810190610c54919061249f565b6001600160a01b031614610c7a5760405162461bcd60e51b81526004016107df9061298b565b610e1b565b610c996001600160a01b038316636cdb3d1360e11b611a00565b15610d8457604051627eeac760e11b8152336004820152602481018290526000906001600160a01b0384169062fdd58e9060440160206040518083038186803b158015610ce557600080fd5b505afa158015610cf9573d6000803e3d6000fd5b505050506040513d601f19601f82011682018060405250810190610d1d919061276e565b11610c7a5760405162461bcd60e51b815260206004820152603160248201527f596f7520646f206e6f74206f776e207468697320746f6b656e20696e2074686560448201527020736f7572636520636f6e74726163742160781b60648201526084016107df565b6040516370a0823160e01b81523360048201526000906001600160a01b038416906370a082319060240160206040518083038186803b158015610dc657600080fd5b505afa158015610dda573d6000803e3d6000fd5b505050506040513d601f19601f82011682018060405250810190610dfe919061276e565b11610e1b5760405162461bcd60e51b81526004016107df9061298b565b6000610e2660085490565b3360009081526010602052604090205490915015610e6457336000908152601060205260408120805460019290610e5e908490612ad0565b90915550505b610e6e3382611a1c565b6040805180820182526001600160a01b038581168083526020808401878152600087815260118352868120865181546001600160a01b0319169087161781558251600191820155938152601283528681208982528352869020805460ff1916909317909255845184519093168352905190820152918201839052336060830152907f670e7290204c50f0ab4452d3e4a7534e1e511f6098ad647a5f9e2727356a01489060800160405180910390a150505050565b61091583838360405180602001604052806000815250611333565b6000610f4860085490565b8210610fab5760405162461bcd60e51b815260206004820152602c60248201527f455243373231456e756d657261626c653a20676c6f62616c20696e646578206f60448201526b7574206f6620626f756e647360a01b60648201526084016107df565b60088281548110610fbe57610fbe612bbf565b90600052602060002001549050919050565b600a546001600160a01b03163314610ffa5760405162461bcd60e51b81526004016107df90612956565b6001600160a01b03909116600090815260106020526040902055565b6000818152600260205260408120546001600160a01b0316806106d25760405162461bcd60e51b815260206004820152602960248201527f4552433732313a206f776e657220717565727920666f72206e6f6e657869737460448201526832b73a103a37b5b2b760b91b60648201526084016107df565b600a546001600160a01b031633146110b75760405162461bcd60e51b81526004016107df90612956565b81516110ca90600c90602085019061238b565b50805161091590600d90602084019061238b565b60006110f2600a546001600160a01b031690565b6001600160a01b0316336001600160a01b0316148061111f57503360009081526010602052604090205415155b1561112a5750600090565b50600e5490565b60006001600160a01b03821661119c5760405162461bcd60e51b815260206004820152602a60248201527f4552433732313a2062616c616e636520717565727920666f7220746865207a65604482015269726f206164647265737360b01b60648201526084016107df565b506001600160a01b031660009081526003602052604090205490565b600a546001600160a01b031633146111e25760405162461bcd60e51b81526004016107df90612956565b6111ec6000611a36565b565b600a546001600160a01b031633146112185760405162461bcd60e51b81526004016107df90612956565b6112228282611a88565b5050565b6060600180546106e790612b13565b600a546001600160a01b0316331461125f5760405162461bcd60e51b81526004016107df90612956565b6040514790600090339083908381818185875af1925050503d80600081146112a3576040519150601f19603f3d011682016040523d82523d6000602084013e6112a8565b606091505b50509050806112225760405162461bcd60e51b815260206004820152600f60248201526e15da5d1a191c985dc819985a5b1959608a1b60448201526064016107df565b611222338383611b24565b600a546001600160a01b031633146113205760405162461bcd60e51b81526004016107df90612956565b600f805460ff1916911515919091179055565b61133d338361175e565b6113595760405162461bcd60e51b81526004016107df906129db565b61136584848484611bf3565b50505050565b6000818152600260205260409020546060906001600160a01b03166113ea5760405162461bcd60e51b815260206004820152602f60248201527f4552433732314d657461646174613a2055524920717565727920666f72206e6f60448201526e3732bc34b9ba32b73a103a37b5b2b760891b60648201526084016107df565b6000600c80546113f990612b13565b90501161141557604051806020016040528060008152506106d2565b600c61142083611c26565b600d6040516020016114349392919061288b565b60405160208183030381529060405292915050565b600061145d600a546001600160a01b031690565b6001600160a01b0316336001600160a01b0316148061148a57503360009081526010602052604090205415155b156114955750600190565b50600f5460ff1690565b600a546001600160a01b031633146114c95760405162461bcd60e51b81526004016107df90612956565b6001600160a01b03811661152e5760405162461bcd60e51b815260206004820152602660248201527f4f776e61626c653a206e6577206f776e657220697320746865207a65726f206160448201526564647265737360d01b60648201526084016107df565b61153781611a36565b50565b600a546001600160a01b031633146115645760405162461bcd60e51b81526004016107df90612956565b600e55565b6040805180820190915260018152603f60f81b602082015260609061159e6001600160a01b0385166380ac58cd60e01b611a00565b156116265760405163c87b56dd60e01b8152600481018490526001600160a01b0385169063c87b56dd9060240160006040518083038186803b1580156115e357600080fd5b505afa1580156115f7573d6000803e3d6000fd5b505050506040513d6000823e601f3d908101601f1916820160405261161f9190810190612684565b90506116c4565b6116406001600160a01b038516636cdb3d1360e11b611a00565b156116c4576040516303a24d0760e21b8152600481018490526001600160a01b03851690630e89341c9060240160006040518083038186803b15801561168557600080fd5b505afa158015611699573d6000803e3d6000fd5b505050506040513d6000823e601f3d908101601f191682016040526116c19190810190612684565b90505b9392505050565b60006001600160e01b0319821663152a902d60e11b14806106d257506106d282611d24565b600081815260046020526040902080546001600160a01b0319166001600160a01b038416908117909155819061172582611016565b6001600160a01b03167f8c5be1e5ebec7d5bd14f71427d1e84f3dd0314c0f7b2291e5b200ac8c7c3b92560405160405180910390a45050565b6000818152600260205260408120546001600160a01b03166117d75760405162461bcd60e51b815260206004820152602c60248201527f4552433732313a206f70657261746f7220717565727920666f72206e6f6e657860448201526b34b9ba32b73a103a37b5b2b760a11b60648201526084016107df565b60006117e283611016565b9050806001600160a01b0316846001600160a01b0316148061181d5750836001600160a01b03166118128461076a565b6001600160a01b0316145b8061184d57506001600160a01b0380821660009081526005602090815260408083209388168352929052205460ff165b949350505050565b826001600160a01b031661186882611016565b6001600160a01b0316146118d05760405162461bcd60e51b815260206004820152602960248201527f4552433732313a207472616e73666572206f6620746f6b656e2074686174206960448201526839903737ba1037bbb760b91b60648201526084016107df565b6001600160a01b0382166119325760405162461bcd60e51b8152602060048201526024808201527f4552433732313a207472616e7366657220746f20746865207a65726f206164646044820152637265737360e01b60648201526084016107df565b61193d838383611d49565b6119486000826116f0565b6001600160a01b0383166000908152600360205260408120805460019290611971908490612ad0565b90915550506001600160a01b038216600090815260036020526040812080546001929061199f908490612a85565b909155505060008181526002602052604080822080546001600160a01b0319166001600160a01b0386811691821790925591518493918716917fddf252ad1be2c89b69c2b068fc378daa952ba7f163c4a11628f55a4df523b3ef91a4505050565b6000611a0b83611e01565b80156116c457506116c48383611e34565b611222828260405180602001604052806000815250611f1d565b600a80546001600160a01b038381166001600160a01b0319831681179093556040519116919082907f8be0079c531659141344cd1fd0a4f28419497f9722a3daafe3b4186f6b6457e090600090a35050565b612710811115611ada5760405162461bcd60e51b815260206004820152601a60248201527f45524332393831526f79616c746965733a20546f6f206869676800000000000060448201526064016107df565b604080518082019091526001600160a01b0390921680835262ffffff9091166020909201829052600b8054600160a01b9093026001600160b81b0319909316909117919091179055565b816001600160a01b0316836001600160a01b03161415611b865760405162461bcd60e51b815260206004820152601960248201527f4552433732313a20617070726f766520746f2063616c6c65720000000000000060448201526064016107df565b6001600160a01b03838116600081815260056020908152604080832094871680845294825291829020805460ff191686151590811790915591519182527f17307eab39ab6107e8899845ad3d59bd9653f200f220920489ca2b5937696c31910160405180910390a3505050565b611bfe848484611855565b611c0a84848484611f50565b6113655760405162461bcd60e51b81526004016107df90612904565b606081611c4a5750506040805180820190915260018152600360fc1b602082015290565b8160005b8115611c745780611c5e81612b4e565b9150611c6d9050600a83612a9d565b9150611c4e565b60008167ffffffffffffffff811115611c8f57611c8f612bd5565b6040519080825280601f01601f191660200182016040528015611cb9576020820181803683370190505b5090505b841561184d57611cce600183612ad0565b9150611cdb600a86612b69565b611ce6906030612a85565b60f81b818381518110611cfb57611cfb612bbf565b60200101906001600160f81b031916908160001a905350611d1d600a86612a9d565b9450611cbd565b60006001600160e01b0319821663780e9d6360e01b14806106d257506106d28261205d565b6001600160a01b038316611da457611d9f81600880546000838152600960205260408120829055600182018355919091527ff3f7a9fe364faab93b216da50a3214154f22a0a2b415b23a84c8169e8b636ee30155565b611dc7565b816001600160a01b0316836001600160a01b031614611dc757611dc783826120ad565b6001600160a01b038216611dde576109158161214a565b826001600160a01b0316826001600160a01b0316146109155761091582826121f9565b6000611e14826301ffc9a760e01b611e34565b80156106d25750611e2d826001600160e01b0319611e34565b1592915050565b604080516001600160e01b0319831660248083019190915282518083039091018152604490910182526020810180516001600160e01b03166301ffc9a760e01b179052905160009190829081906001600160a01b0387169061753090611e9b90869061286f565b6000604051808303818686fa925050503d8060008114611ed7576040519150601f19603f3d011682016040523d82523d6000602084013e611edc565b606091505b5091509150602081511015611ef757600093505050506106d2565b818015611f13575080806020019051810190611f13919061262d565b9695505050505050565b611f27838361223d565b611f346000848484611f50565b6109155760405162461bcd60e51b81526004016107df90612904565b60006001600160a01b0384163b1561205257604051630a85bd0160e11b81526001600160a01b0385169063150b7a0290611f949033908990889088906004016128be565b602060405180830381600087803b158015611fae57600080fd5b505af1925050508015611fde575060408051601f3d908101601f19168201909252611fdb91810190612667565b60015b612038573d80801561200c576040519150601f19603f3d011682016040523d82523d6000602084013e612011565b606091505b5080516120305760405162461bcd60e51b81526004016107df90612904565b805181602001fd5b6001600160e01b031916630a85bd0160e11b14905061184d565b506001949350505050565b60006001600160e01b031982166380ac58cd60e01b148061208e57506001600160e01b03198216635b5e139f60e01b145b806106d257506301ffc9a760e01b6001600160e01b03198316146106d2565b600060016120ba84611131565b6120c49190612ad0565b600083815260076020526040902054909150808214612117576001600160a01b03841660009081526006602090815260408083208584528252808320548484528184208190558352600790915290208190555b5060009182526007602090815260408084208490556001600160a01b039094168352600681528383209183525290812055565b60085460009061215c90600190612ad0565b6000838152600960205260408120546008805493945090928490811061218457612184612bbf565b9060005260206000200154905080600883815481106121a5576121a5612bbf565b60009182526020808320909101929092558281526009909152604080822084905585825281205560088054806121dd576121dd612ba9565b6001900381819060005260206000200160009055905550505050565b600061220483611131565b6001600160a01b039093166000908152600660209081526040808320868452825280832085905593825260079052919091209190915550565b6001600160a01b0382166122935760405162461bcd60e51b815260206004820181905260248201527f4552433732313a206d696e7420746f20746865207a65726f206164647265737360448201526064016107df565b6000818152600260205260409020546001600160a01b0316156122f85760405162461bcd60e51b815260206004820152601c60248201527f4552433732313a20746f6b656e20616c7265616479206d696e7465640000000060448201526064016107df565b61230460008383611d49565b6001600160a01b038216600090815260036020526040812080546001929061232d908490612a85565b909155505060008181526002602052604080822080546001600160a01b0319166001600160a01b03861690811790915590518392907fddf252ad1be2c89b69c2b068fc378daa952ba7f163c4a11628f55a4df523b3ef908290a45050565b82805461239790612b13565b90600052602060002090601f0160209004810192826123b957600085556123ff565b82601f106123d257805160ff19168380011785556123ff565b828001600101855582156123ff579182015b828111156123ff5782518255916020019190600101906123e4565b5061240b92915061240f565b5090565b5b8082111561240b5760008155600101612410565b600061243761243284612a5d565b612a2c565b905082815283838301111561244b57600080fd5b828260208301376000602084830101529392505050565b600082601f83011261247357600080fd5b6116c483833560208501612424565b60006020828403121561249457600080fd5b81356116c481612beb565b6000602082840312156124b157600080fd5b81516116c481612beb565b600080604083850312156124cf57600080fd5b82356124da81612beb565b915060208301356124ea81612beb565b809150509250929050565b60008060006060848603121561250a57600080fd5b833561251581612beb565b9250602084013561252581612beb565b929592945050506040919091013590565b6000806000806080858703121561254c57600080fd5b843561255781612beb565b9350602085013561256781612beb565b925060408501359150606085013567ffffffffffffffff81111561258a57600080fd5b8501601f8101871361259b57600080fd5b6125aa87823560208401612424565b91505092959194509250565b600080604083850312156125c957600080fd5b82356125d481612beb565b915060208301356124ea81612c00565b600080604083850312156125f757600080fd5b823561260281612beb565b946020939093013593505050565b60006020828403121561262257600080fd5b81356116c481612c00565b60006020828403121561263f57600080fd5b81516116c481612c00565b60006020828403121561265c57600080fd5b81356116c481612c0e565b60006020828403121561267957600080fd5b81516116c481612c0e565b60006020828403121561269657600080fd5b815167ffffffffffffffff8111156126ad57600080fd5b8201601f810184136126be57600080fd5b80516126cc61243282612a5d565b8181528560208385010111156126e157600080fd5b6126f2826020830160208601612ae7565b95945050505050565b6000806040838503121561270e57600080fd5b823567ffffffffffffffff8082111561272657600080fd5b61273286838701612462565b9350602085013591508082111561274857600080fd5b5061099685828601612462565b60006020828403121561276757600080fd5b5035919050565b60006020828403121561278057600080fd5b5051919050565b6000806040838503121561279a57600080fd5b50508035926020909101359150565b600081518084526127c1816020860160208601612ae7565b601f01601f19169290920160200192915050565b8054600090600181811c90808316806127ef57607f831692505b602080841082141561281157634e487b7160e01b600052602260045260246000fd5b818015612825576001811461283657612863565b60ff19861689528489019650612863565b60008881526020902060005b8681101561285b5781548b820152908501908301612842565b505084890196505b50505050505092915050565b60008251612881818460208701612ae7565b9190910192915050565b600061289782866127d5565b84516128a7818360208901612ae7565b6128b3818301866127d5565b979650505050505050565b6001600160a01b0385811682528416602082015260408101839052608060608201819052600090611f13908301846127a9565b6020815260006116c460208301846127a9565b60208082526032908201527f4552433732313a207472616e7366657220746f206e6f6e20455243373231526560408201527131b2b4bb32b91034b6b83632b6b2b73a32b960711b606082015260800190565b6020808252818101527f4f776e61626c653a2063616c6c6572206973206e6f7420746865206f776e6572604082015260600190565b60208082526030908201527f596f7520646f206e6f74206f776e207468697320746f6b656e20696e2074686560408201526f081cdbdd5c98d94818dbdb9d1c9858dd60821b606082015260800190565b60208082526031908201527f4552433732313a207472616e736665722063616c6c6572206973206e6f74206f6040820152701ddb995c881b9bdc88185c1c1c9bdd9959607a1b606082015260800190565b604051601f8201601f1916810167ffffffffffffffff81118282101715612a5557612a55612bd5565b604052919050565b600067ffffffffffffffff821115612a7757612a77612bd5565b50601f01601f191660200190565b60008219821115612a9857612a98612b7d565b500190565b600082612aac57612aac612b93565b500490565b6000816000190483118215151615612acb57612acb612b7d565b500290565b600082821015612ae257612ae2612b7d565b500390565b60005b83811015612b02578181015183820152602001612aea565b838111156113655750506000910152565b600181811c90821680612b2757607f821691505b60208210811415612b4857634e487b7160e01b600052602260045260246000fd5b50919050565b6000600019821415612b6257612b62612b7d565b5060010190565b600082612b7857612b78612b93565b500690565b634e487b7160e01b600052601160045260246000fd5b634e487b7160e01b600052601260045260246000fd5b634e487b7160e01b600052603160045260246000fd5b634e487b7160e01b600052603260045260246000fd5b634e487b7160e01b600052604160045260246000fd5b6001600160a01b038116811461153757600080fd5b801515811461153757600080fd5b6001600160e01b03198116811461153757600080fdfea264697066735822122085316405f7eccc00516a3887714fc51f8fcca2e07b9ebe84f07bbdeb3f90155964736f6c634300080700334f776e61626c653a2063616c6c6572206973206e6f7420746865206f776e6572",
  "linkReferences": {},
  "deployedLinkReferences": {}
}