{
  "_format": "hh-sol-artifact-1",
  "contractName": "Simple",
  "sourceName": "contracts/Simple.sol",
  "abi": [
    {
      "inputs": [],
      "stateMutability": "nonpayable",
      "type": "constructor"
    },
    {
      "anonymous": false,
      "inputs": [
        {
          "indexed": true,
          "internalType": "address",
          "name": "owner",
          "type": "address"
        },
        {
          "indexed": true,
          "internalType": "address",
          "name": "approved",
          "type": "address"
        },
        {
          "indexed": true,
          "internalType": "uint256",
          "name": "tokenId",
          "type": "uint256"
        }
      ],
      "name": "Approval",
      "type": "event"
    },
    {
      "anonymous": false,
      "inputs": [
        {
          "indexed": true,
          "internalType": "address",
          "name": "owner",
          "type": "address"
        },
        {
          "indexed": true,
          "internalType": "address",
          "name": "operator",
          "type": "address"
        },
        {
          "indexed": false,
          "internalType": "bool",
          "name": "approved",
          "type": "bool"
        }
      ],
      "name": "ApprovalForAll",
      "type": "event"
    },
    {
      "anonymous": false,
      "inputs": [
        {
          "indexed": true,
          "internalType": "address",
          "name": "from",
          "type": "address"
        },
        {
          "indexed": true,
          "internalType": "address",
          "name": "to",
          "type": "address"
        },
        {
          "indexed": true,
          "internalType": "uint256",
          "name": "tokenId",
          "type": "uint256"
        }
      ],
      "name": "Transfer",
      "type": "event"
    },
    {
      "inputs": [
        {
          "internalType": "address",
          "name": "to",
          "type": "address"
        },
        {
          "internalType": "uint256",
          "name": "tokenId",
          "type": "uint256"
        }
      ],
      "name": "approve",
      "outputs": [],
      "stateMutability": "nonpayable",
      "type": "function"
    },
    {
      "inputs": [
        {
          "internalType": "address",
          "name": "owner",
          "type": "address"
        }
      ],
      "name": "balanceOf",
      "outputs": [
        {
          "internalType": "uint256",
          "name": "",
          "type": "uint256"
        }
      ],
      "stateMutability": "view",
      "type": "function"
    },
    {
      "inputs": [
        {
          "internalType": "uint256",
          "name": "tokenId",
          "type": "uint256"
        }
      ],
      "name": "getApproved",
      "outputs": [
        {
          "internalType": "address",
          "name": "",
          "type": "address"
        }
      ],
      "stateMutability": "view",
      "type": "function"
    },
    {
      "inputs": [
        {
          "internalType": "address",
          "name": "owner",
          "type": "address"
        },
        {
          "internalType": "address",
          "name": "operator",
          "type": "address"
        }
      ],
      "name": "isApprovedForAll",
      "outputs": [
        {
          "internalType": "bool",
          "name": "",
          "type": "bool"
        }
      ],
      "stateMutability": "view",
      "type": "function"
    },
    {
      "inputs": [],
      "name": "mint",
      "outputs": [],
      "stateMutability": "payable",
      "type": "function"
    },
    {
      "inputs": [],
      "name": "name",
      "outputs": [
        {
          "internalType": "string",
          "name": "",
          "type": "string"
        }
      ],
      "stateMutability": "view",
      "type": "function"
    },
    {
      "inputs": [
        {
          "internalType": "uint256",
          "name": "tokenId",
          "type": "uint256"
        }
      ],
      "name": "ownerOf",
      "outputs": [
        {
          "internalType": "address",
          "name": "",
          "type": "address"
        }
      ],
      "stateMutability": "view",
      "type": "function"
    },
    {
      "inputs": [
        {
          "internalType": "address",
          "name": "from",
          "type": "address"
        },
        {
          "internalType": "address",
          "name": "to",
          "type": "address"
        },
        {
          "internalType": "uint256",
          "name": "tokenId",
          "type": "uint256"
        }
      ],
      "name": "safeTransferFrom",
      "outputs": [],
      "stateMutability": "nonpayable",
      "type": "function"
    },
    {
      "inputs": [
        {
          "internalType": "address",
          "name": "from",
          "type": "address"
        },
        {
          "internalType": "address",
          "name": "to",
          "type": "address"
        },
        {
          "internalType": "uint256",
          "name": "tokenId",
          "type": "uint256"
        },
        {
          "internalType": "bytes",
          "name": "_data",
          "type": "bytes"
        }
      ],
      "name": "safeTransferFrom",
      "outputs": [],
      "stateMutability": "nonpayable",
      "type": "function"
    },
    {
      "inputs": [
        {
          "internalType": "address",
          "name": "operator",
          "type": "address"
        },
        {
          "internalType": "bool",
          "name": "approved",
          "type": "bool"
        }
      ],
      "name": "setApprovalForAll",
      "outputs": [],
      "stateMutability": "nonpayable",
      "type": "function"
    },
    {
      "inputs": [
        {
          "internalType": "bytes4",
          "name": "interfaceId",
          "type": "bytes4"
        }
      ],
      "name": "supportsInterface",
      "outputs": [
        {
          "internalType": "bool",
          "name": "",
          "type": "bool"
        }
      ],
      "stateMutability": "view",
      "type": "function"
    },
    {
      "inputs": [],
      "name": "symbol",
      "outputs": [
        {
          "internalType": "string",
          "name": "",
          "type": "string"
        }
      ],
      "stateMutability": "view",
      "type": "function"
    },
    {
      "inputs": [
        {
          "internalType": "uint256",
          "name": "index",
          "type": "uint256"
        }
      ],
      "name": "tokenByIndex",
      "outputs": [
        {
          "internalType": "uint256",
          "name": "",
          "type": "uint256"
        }
      ],
      "stateMutability": "view",
      "type": "function"
    },
    {
      "inputs": [
        {
          "internalType": "address",
          "name": "owner",
          "type": "address"
        },
        {
          "internalType": "uint256",
          "name": "index",
          "type": "uint256"
        }
      ],
      "name": "tokenOfOwnerByIndex",
      "outputs": [
        {
          "internalType": "uint256",
          "name": "",
          "type": "uint256"
        }
      ],
      "stateMutability": "view",
      "type": "function"
    },
    {
      "inputs": [
        {
          "internalType": "uint256",
          "name": "tokenId",
          "type": "uint256"
        }
      ],
      "name": "tokenURI",
      "outputs": [
        {
          "internalType": "string",
          "name": "",
          "type": "string"
        }
      ],
      "stateMutability": "view",
      "type": "function"
    },
    {
      "inputs": [],
      "name": "totalSupply",
      "outputs": [
        {
          "internalType": "uint256",
          "name": "",
          "type": "uint256"
        }
      ],
      "stateMutability": "view",
      "type": "function"
    },
    {
      "inputs": [
        {
          "internalType": "address",
          "name": "from",
          "type": "address"
        },
        {
          "internalType": "address",
          "name": "to",
          "type": "address"
        },
        {
          "internalType": "uint256",
          "name": "tokenId",
          "type": "uint256"
        }
      ],
      "name": "transferFrom",
      "outputs": [],
      "stateMutability": "nonpayable",
      "type": "function"
    }
  ],
  "bytecode": "0x60806040523480156200001157600080fd5b50604080518082018252600681526553696d706c6560d01b60208083019182528351808501909452600384526253494d60e81b9084015281519192916200005b916000916200007a565b508051620000719060019060208401906200007a565b5050506200015d565b828054620000889062000120565b90600052602060002090601f016020900481019282620000ac5760008555620000f7565b82601f10620000c757805160ff1916838001178555620000f7565b82800160010185558215620000f7579182015b82811115620000f7578251825591602001919060010190620000da565b506200010592915062000109565b5090565b5b808211156200010557600081556001016200010a565b600181811c908216806200013557607f821691505b602082108114156200015757634e487b7160e01b600052602260045260246000fd5b50919050565b611930806200016d6000396000f3fe6080604052600436106100fe5760003560e01c806342842e0e1161009557806395d89b411161006457806395d89b411461029b578063a22cb465146102b0578063b88d4fde146102d0578063c87b56dd146102f0578063e985e9c51461031057600080fd5b806342842e0e1461021b5780634f6ccce71461023b5780636352211e1461025b57806370a082311461027b57600080fd5b80631249c58b116100d15780631249c58b146101b457806318160ddd146101bc57806323b872dd146101db5780632f745c59146101fb57600080fd5b806301ffc9a71461010357806306fdde0314610138578063081812fc1461015a578063095ea7b314610192575b600080fd5b34801561010f57600080fd5b5061012361011e36600461162b565b610359565b60405190151581526020015b60405180910390f35b34801561014457600080fd5b5061014d610384565b60405161012f9190611713565b34801561016657600080fd5b5061017a610175366004611663565b610416565b6040516001600160a01b03909116815260200161012f565b34801561019e57600080fd5b506101b26101ad366004611602565b6104b0565b005b6101b26105c6565b3480156101c857600080fd5b506008545b60405190815260200161012f565b3480156101e757600080fd5b506101b26101f63660046114b8565b6105e0565b34801561020757600080fd5b506101cd610216366004611602565b610611565b34801561022757600080fd5b506101b26102363660046114b8565b6106a7565b34801561024757600080fd5b506101cd610256366004611663565b6106c2565b34801561026757600080fd5b5061017a610276366004611663565b610763565b34801561028757600080fd5b506101cd61029636600461146c565b6107da565b3480156102a757600080fd5b5061014d610861565b3480156102bc57600080fd5b506101b26102cb3660046115c8565b610870565b3480156102dc57600080fd5b506101b26102eb3660046114f3565b61087f565b3480156102fc57600080fd5b5061014d61030b366004611663565b6108b7565b34801561031c57600080fd5b5061012361032b366004611486565b6001600160a01b03918216600090815260056020908152604080832093909416825291909152205460ff1690565b60006001600160e01b0319821663780e9d6360e01b148061037e575061037e826109ba565b92915050565b60606000805461039390611838565b80601f01602080910402602001604051908101604052809291908181526020018280546103bf90611838565b801561040c5780601f106103e15761010080835404028352916020019161040c565b820191906000526020600020905b8154815290600101906020018083116103ef57829003601f168201915b5050505050905090565b6000818152600260205260408120546001600160a01b03166104945760405162461bcd60e51b815260206004820152602c60248201527f4552433732313a20617070726f76656420717565727920666f72206e6f6e657860448201526b34b9ba32b73a103a37b5b2b760a11b60648201526084015b60405180910390fd5b506000908152600460205260409020546001600160a01b031690565b60006104bb82610763565b9050806001600160a01b0316836001600160a01b031614156105295760405162461bcd60e51b815260206004820152602160248201527f4552433732313a20617070726f76616c20746f2063757272656e74206f776e656044820152603960f91b606482015260840161048b565b336001600160a01b03821614806105455750610545813361032b565b6105b75760405162461bcd60e51b815260206004820152603860248201527f4552433732313a20617070726f76652063616c6c6572206973206e6f74206f7760448201527f6e6572206e6f7220617070726f76656420666f7220616c6c0000000000000000606482015260840161048b565b6105c18383610a0a565b505050565b60006105d160085490565b90506105dd3382610a78565b50565b6105ea3382610a92565b6106065760405162461bcd60e51b815260040161048b90611778565b6105c1838383610b89565b600061061c836107da565b821061067e5760405162461bcd60e51b815260206004820152602b60248201527f455243373231456e756d657261626c653a206f776e657220696e646578206f7560448201526a74206f6620626f756e647360a81b606482015260840161048b565b506001600160a01b03919091166000908152600660209081526040808320938352929052205490565b6105c18383836040518060200160405280600081525061087f565b60006106cd60085490565b82106107305760405162461bcd60e51b815260206004820152602c60248201527f455243373231456e756d657261626c653a20676c6f62616c20696e646578206f60448201526b7574206f6620626f756e647360a01b606482015260840161048b565b6008828154811061075157634e487b7160e01b600052603260045260246000fd5b90600052602060002001549050919050565b6000818152600260205260408120546001600160a01b03168061037e5760405162461bcd60e51b815260206004820152602960248201527f4552433732313a206f776e657220717565727920666f72206e6f6e657869737460448201526832b73a103a37b5b2b760b91b606482015260840161048b565b60006001600160a01b0382166108455760405162461bcd60e51b815260206004820152602a60248201527f4552433732313a2062616c616e636520717565727920666f7220746865207a65604482015269726f206164647265737360b01b606482015260840161048b565b506001600160a01b031660009081526003602052604090205490565b60606001805461039390611838565b61087b338383610d34565b5050565b6108893383610a92565b6108a55760405162461bcd60e51b815260040161048b90611778565b6108b184848484610e03565b50505050565b6000818152600260205260409020546060906001600160a01b03166109365760405162461bcd60e51b815260206004820152602f60248201527f4552433732314d657461646174613a2055524920717565727920666f72206e6f60448201526e3732bc34b9ba32b73a103a37b5b2b760891b606482015260840161048b565b600061096860408051808201909152601381527268747470733a2f2f73696d706c652e6465762f60681b602082015290565b9050600081511161098857604051806020016040528060008152506109b3565b8061099284610e36565b6040516020016109a39291906116a7565b6040516020818303038152906040525b9392505050565b60006001600160e01b031982166380ac58cd60e01b14806109eb57506001600160e01b03198216635b5e139f60e01b145b8061037e57506301ffc9a760e01b6001600160e01b031983161461037e565b600081815260046020526040902080546001600160a01b0319166001600160a01b0384169081179091558190610a3f82610763565b6001600160a01b03167f8c5be1e5ebec7d5bd14f71427d1e84f3dd0314c0f7b2291e5b200ac8c7c3b92560405160405180910390a45050565b61087b828260405180602001604052806000815250610f50565b6000818152600260205260408120546001600160a01b0316610b0b5760405162461bcd60e51b815260206004820152602c60248201527f4552433732313a206f70657261746f7220717565727920666f72206e6f6e657860448201526b34b9ba32b73a103a37b5b2b760a11b606482015260840161048b565b6000610b1683610763565b9050806001600160a01b0316846001600160a01b03161480610b515750836001600160a01b0316610b4684610416565b6001600160a01b0316145b80610b8157506001600160a01b0380821660009081526005602090815260408083209388168352929052205460ff165b949350505050565b826001600160a01b0316610b9c82610763565b6001600160a01b031614610c045760405162461bcd60e51b815260206004820152602960248201527f4552433732313a207472616e73666572206f6620746f6b656e2074686174206960448201526839903737ba1037bbb760b91b606482015260840161048b565b6001600160a01b038216610c665760405162461bcd60e51b8152602060048201526024808201527f4552433732313a207472616e7366657220746f20746865207a65726f206164646044820152637265737360e01b606482015260840161048b565b610c71838383610f83565b610c7c600082610a0a565b6001600160a01b0383166000908152600360205260408120805460019290610ca59084906117f5565b90915550506001600160a01b0382166000908152600360205260408120805460019290610cd39084906117c9565b909155505060008181526002602052604080822080546001600160a01b0319166001600160a01b0386811691821790925591518493918716917fddf252ad1be2c89b69c2b068fc378daa952ba7f163c4a11628f55a4df523b3ef91a4505050565b816001600160a01b0316836001600160a01b03161415610d965760405162461bcd60e51b815260206004820152601960248201527f4552433732313a20617070726f766520746f2063616c6c657200000000000000604482015260640161048b565b6001600160a01b03838116600081815260056020908152604080832094871680845294825291829020805460ff191686151590811790915591519182527f17307eab39ab6107e8899845ad3d59bd9653f200f220920489ca2b5937696c31910160405180910390a3505050565b610e0e848484610b89565b610e1a8484848461103b565b6108b15760405162461bcd60e51b815260040161048b90611726565b606081610e5a5750506040805180820190915260018152600360fc1b602082015290565b8160005b8115610e845780610e6e81611873565b9150610e7d9050600a836117e1565b9150610e5e565b60008167ffffffffffffffff811115610ead57634e487b7160e01b600052604160045260246000fd5b6040519080825280601f01601f191660200182016040528015610ed7576020820181803683370190505b5090505b8415610b8157610eec6001836117f5565b9150610ef9600a8661188e565b610f049060306117c9565b60f81b818381518110610f2757634e487b7160e01b600052603260045260246000fd5b60200101906001600160f81b031916908160001a905350610f49600a866117e1565b9450610edb565b610f5a8383611148565b610f67600084848461103b565b6105c15760405162461bcd60e51b815260040161048b90611726565b6001600160a01b038316610fde57610fd981600880546000838152600960205260408120829055600182018355919091527ff3f7a9fe364faab93b216da50a3214154f22a0a2b415b23a84c8169e8b636ee30155565b611001565b816001600160a01b0316836001600160a01b031614611001576110018382611296565b6001600160a01b038216611018576105c181611333565b826001600160a01b0316826001600160a01b0316146105c1576105c1828261140c565b60006001600160a01b0384163b1561113d57604051630a85bd0160e11b81526001600160a01b0385169063150b7a029061107f9033908990889088906004016116d6565b602060405180830381600087803b15801561109957600080fd5b505af19250505080156110c9575060408051601f3d908101601f191682019092526110c691810190611647565b60015b611123573d8080156110f7576040519150601f19603f3d011682016040523d82523d6000602084013e6110fc565b606091505b50805161111b5760405162461bcd60e51b815260040161048b90611726565b805181602001fd5b6001600160e01b031916630a85bd0160e11b149050610b81565b506001949350505050565b6001600160a01b03821661119e5760405162461bcd60e51b815260206004820181905260248201527f4552433732313a206d696e7420746f20746865207a65726f2061646472657373604482015260640161048b565b6000818152600260205260409020546001600160a01b0316156112035760405162461bcd60e51b815260206004820152601c60248201527f4552433732313a20746f6b656e20616c7265616479206d696e74656400000000604482015260640161048b565b61120f60008383610f83565b6001600160a01b03821660009081526003602052604081208054600192906112389084906117c9565b909155505060008181526002602052604080822080546001600160a01b0319166001600160a01b03861690811790915590518392907fddf252ad1be2c89b69c2b068fc378daa952ba7f163c4a11628f55a4df523b3ef908290a45050565b600060016112a3846107da565b6112ad91906117f5565b600083815260076020526040902054909150808214611300576001600160a01b03841660009081526006602090815260408083208584528252808320548484528184208190558352600790915290208190555b5060009182526007602090815260408084208490556001600160a01b039094168352600681528383209183525290812055565b600854600090611345906001906117f5565b6000838152600960205260408120546008805493945090928490811061137b57634e487b7160e01b600052603260045260246000fd5b9060005260206000200154905080600883815481106113aa57634e487b7160e01b600052603260045260246000fd5b60009182526020808320909101929092558281526009909152604080822084905585825281205560088054806113f057634e487b7160e01b600052603160045260246000fd5b6001900381819060005260206000200160009055905550505050565b6000611417836107da565b6001600160a01b039093166000908152600660209081526040808320868452825280832085905593825260079052919091209190915550565b80356001600160a01b038116811461146757600080fd5b919050565b60006020828403121561147d578081fd5b6109b382611450565b60008060408385031215611498578081fd5b6114a183611450565b91506114af60208401611450565b90509250929050565b6000806000606084860312156114cc578081fd5b6114d584611450565b92506114e360208501611450565b9150604084013590509250925092565b60008060008060808587031215611508578081fd5b61151185611450565b935061151f60208601611450565b925060408501359150606085013567ffffffffffffffff80821115611542578283fd5b818701915087601f830112611555578283fd5b813581811115611567576115676118ce565b604051601f8201601f19908116603f0116810190838211818310171561158f5761158f6118ce565b816040528281528a60208487010111156115a7578586fd5b82602086016020830137918201602001949094529598949750929550505050565b600080604083850312156115da578182fd5b6115e383611450565b9150602083013580151581146115f7578182fd5b809150509250929050565b60008060408385031215611614578182fd5b61161d83611450565b946020939093013593505050565b60006020828403121561163c578081fd5b81356109b3816118e4565b600060208284031215611658578081fd5b81516109b3816118e4565b600060208284031215611674578081fd5b5035919050565b6000815180845261169381602086016020860161180c565b601f01601f19169290920160200192915050565b600083516116b981846020880161180c565b8351908301906116cd81836020880161180c565b01949350505050565b6001600160a01b03858116825284166020820152604081018390526080606082018190526000906117099083018461167b565b9695505050505050565b6020815260006109b3602083018461167b565b60208082526032908201527f4552433732313a207472616e7366657220746f206e6f6e20455243373231526560408201527131b2b4bb32b91034b6b83632b6b2b73a32b960711b606082015260800190565b60208082526031908201527f4552433732313a207472616e736665722063616c6c6572206973206e6f74206f6040820152701ddb995c881b9bdc88185c1c1c9bdd9959607a1b606082015260800190565b600082198211156117dc576117dc6118a2565b500190565b6000826117f0576117f06118b8565b500490565b600082821015611807576118076118a2565b500390565b60005b8381101561182757818101518382015260200161180f565b838111156108b15750506000910152565b600181811c9082168061184c57607f821691505b6020821081141561186d57634e487b7160e01b600052602260045260246000fd5b50919050565b6000600019821415611887576118876118a2565b5060010190565b60008261189d5761189d6118b8565b500690565b634e487b7160e01b600052601160045260246000fd5b634e487b7160e01b600052601260045260246000fd5b634e487b7160e01b600052604160045260246000fd5b6001600160e01b0319811681146105dd57600080fdfea2646970667358221220665651c23b14a645f9d95383179975d7ede5d42e9846266e37a5ab6bd3c7125f64736f6c63430008040033",
  "linkReferences": {},
  "deployedLinkReferences": {}
}