{
  "_format": "hh-sol-artifact-1",
  "contractName": "SimpleERC721",
  "sourceName": "contracts/SimpleERC721.sol",
  "abi": [
    {
      "inputs": [],
      "stateMutability": "nonpayable",
      "type": "constructor"
    },
    {
      "anonymous": false,
      "inputs": [
        {
          "indexed": true,
          "internalType": "address",
          "name": "owner",
          "type": "address"
        },
        {
          "indexed": true,
          "internalType": "address",
          "name": "approved",
          "type": "address"
        },
        {
          "indexed": true,
          "internalType": "uint256",
          "name": "tokenId",
          "type": "uint256"
        }
      ],
      "name": "Approval",
      "type": "event"
    },
    {
      "anonymous": false,
      "inputs": [
        {
          "indexed": true,
          "internalType": "address",
          "name": "owner",
          "type": "address"
        },
        {
          "indexed": true,
          "internalType": "address",
          "name": "operator",
          "type": "address"
        },
        {
          "indexed": false,
          "internalType": "bool",
          "name": "approved",
          "type": "bool"
        }
      ],
      "name": "ApprovalForAll",
      "type": "event"
    },
    {
      "anonymous": false,
      "inputs": [
        {
          "indexed": true,
          "internalType": "address",
          "name": "previousOwner",
          "type": "address"
        },
        {
          "indexed": true,
          "internalType": "address",
          "name": "newOwner",
          "type": "address"
        }
      ],
      "name": "OwnershipTransferred",
      "type": "event"
    },
    {
      "anonymous": false,
      "inputs": [
        {
          "indexed": true,
          "internalType": "address",
          "name": "from",
          "type": "address"
        },
        {
          "indexed": true,
          "internalType": "address",
          "name": "to",
          "type": "address"
        },
        {
          "indexed": true,
          "internalType": "uint256",
          "name": "tokenId",
          "type": "uint256"
        }
      ],
      "name": "Transfer",
      "type": "event"
    },
    {
      "inputs": [
        {
          "internalType": "address",
          "name": "to",
          "type": "address"
        },
        {
          "internalType": "uint256",
          "name": "tokenId",
          "type": "uint256"
        }
      ],
      "name": "approve",
      "outputs": [],
      "stateMutability": "nonpayable",
      "type": "function"
    },
    {
      "inputs": [
        {
          "internalType": "address",
          "name": "owner",
          "type": "address"
        }
      ],
      "name": "balanceOf",
      "outputs": [
        {
          "internalType": "uint256",
          "name": "",
          "type": "uint256"
        }
      ],
      "stateMutability": "view",
      "type": "function"
    },
    {
      "inputs": [
        {
          "internalType": "uint256",
          "name": "tokenId",
          "type": "uint256"
        }
      ],
      "name": "getApproved",
      "outputs": [
        {
          "internalType": "address",
          "name": "",
          "type": "address"
        }
      ],
      "stateMutability": "view",
      "type": "function"
    },
    {
      "inputs": [
        {
          "internalType": "address",
          "name": "owner",
          "type": "address"
        },
        {
          "internalType": "address",
          "name": "operator",
          "type": "address"
        }
      ],
      "name": "isApprovedForAll",
      "outputs": [
        {
          "internalType": "bool",
          "name": "",
          "type": "bool"
        }
      ],
      "stateMutability": "view",
      "type": "function"
    },
    {
      "inputs": [],
      "name": "mint",
      "outputs": [],
      "stateMutability": "payable",
      "type": "function"
    },
    {
      "inputs": [],
      "name": "name",
      "outputs": [
        {
          "internalType": "string",
          "name": "",
          "type": "string"
        }
      ],
      "stateMutability": "view",
      "type": "function"
    },
    {
      "inputs": [],
      "name": "owner",
      "outputs": [
        {
          "internalType": "address",
          "name": "",
          "type": "address"
        }
      ],
      "stateMutability": "view",
      "type": "function"
    },
    {
      "inputs": [
        {
          "internalType": "uint256",
          "name": "tokenId",
          "type": "uint256"
        }
      ],
      "name": "ownerOf",
      "outputs": [
        {
          "internalType": "address",
          "name": "",
          "type": "address"
        }
      ],
      "stateMutability": "view",
      "type": "function"
    },
    {
      "inputs": [],
      "name": "renounceOwnership",
      "outputs": [],
      "stateMutability": "nonpayable",
      "type": "function"
    },
    {
      "inputs": [
        {
          "internalType": "address",
          "name": "from",
          "type": "address"
        },
        {
          "internalType": "address",
          "name": "to",
          "type": "address"
        },
        {
          "internalType": "uint256",
          "name": "tokenId",
          "type": "uint256"
        }
      ],
      "name": "safeTransferFrom",
      "outputs": [],
      "stateMutability": "nonpayable",
      "type": "function"
    },
    {
      "inputs": [
        {
          "internalType": "address",
          "name": "from",
          "type": "address"
        },
        {
          "internalType": "address",
          "name": "to",
          "type": "address"
        },
        {
          "internalType": "uint256",
          "name": "tokenId",
          "type": "uint256"
        },
        {
          "internalType": "bytes",
          "name": "_data",
          "type": "bytes"
        }
      ],
      "name": "safeTransferFrom",
      "outputs": [],
      "stateMutability": "nonpayable",
      "type": "function"
    },
    {
      "inputs": [
        {
          "internalType": "address",
          "name": "operator",
          "type": "address"
        },
        {
          "internalType": "bool",
          "name": "approved",
          "type": "bool"
        }
      ],
      "name": "setApprovalForAll",
      "outputs": [],
      "stateMutability": "nonpayable",
      "type": "function"
    },
    {
      "inputs": [
        {
          "internalType": "string",
          "name": "newBaseURI",
          "type": "string"
        }
      ],
      "name": "setBaseURI",
      "outputs": [],
      "stateMutability": "nonpayable",
      "type": "function"
    },
    {
      "inputs": [
        {
          "internalType": "bytes4",
          "name": "interfaceId",
          "type": "bytes4"
        }
      ],
      "name": "supportsInterface",
      "outputs": [
        {
          "internalType": "bool",
          "name": "",
          "type": "bool"
        }
      ],
      "stateMutability": "view",
      "type": "function"
    },
    {
      "inputs": [],
      "name": "symbol",
      "outputs": [
        {
          "internalType": "string",
          "name": "",
          "type": "string"
        }
      ],
      "stateMutability": "view",
      "type": "function"
    },
    {
      "inputs": [
        {
          "internalType": "uint256",
          "name": "index",
          "type": "uint256"
        }
      ],
      "name": "tokenByIndex",
      "outputs": [
        {
          "internalType": "uint256",
          "name": "",
          "type": "uint256"
        }
      ],
      "stateMutability": "view",
      "type": "function"
    },
    {
      "inputs": [
        {
          "internalType": "address",
          "name": "owner",
          "type": "address"
        },
        {
          "internalType": "uint256",
          "name": "index",
          "type": "uint256"
        }
      ],
      "name": "tokenOfOwnerByIndex",
      "outputs": [
        {
          "internalType": "uint256",
          "name": "",
          "type": "uint256"
        }
      ],
      "stateMutability": "view",
      "type": "function"
    },
    {
      "inputs": [
        {
          "internalType": "uint256",
          "name": "tokenId",
          "type": "uint256"
        }
      ],
      "name": "tokenURI",
      "outputs": [
        {
          "internalType": "string",
          "name": "",
          "type": "string"
        }
      ],
      "stateMutability": "view",
      "type": "function"
    },
    {
      "inputs": [],
      "name": "totalSupply",
      "outputs": [
        {
          "internalType": "uint256",
          "name": "",
          "type": "uint256"
        }
      ],
      "stateMutability": "view",
      "type": "function"
    },
    {
      "inputs": [
        {
          "internalType": "address",
          "name": "from",
          "type": "address"
        },
        {
          "internalType": "address",
          "name": "to",
          "type": "address"
        },
        {
          "internalType": "uint256",
          "name": "tokenId",
          "type": "uint256"
        }
      ],
      "name": "transferFrom",
      "outputs": [],
      "stateMutability": "nonpayable",
      "type": "function"
    },
    {
      "inputs": [
        {
          "internalType": "address",
          "name": "newOwner",
          "type": "address"
        }
      ],
      "name": "transferOwnership",
      "outputs": [],
      "stateMutability": "nonpayable",
      "type": "function"
    }
  ],
  "bytecode": "0x60806040523480156200001157600080fd5b50604080518082018252600681526553696d706c6560d01b60208083019182528351808501909452600384526253494d60e81b9084015281519192916200005b91600091620000ea565b50805162000071906001906020840190620000ea565b5050506200008e620000886200009460201b60201c565b62000098565b620001cd565b3390565b600a80546001600160a01b038381166001600160a01b0319831681179093556040519116919082907f8be0079c531659141344cd1fd0a4f28419497f9722a3daafe3b4186f6b6457e090600090a35050565b828054620000f89062000190565b90600052602060002090601f0160209004810192826200011c576000855562000167565b82601f106200013757805160ff191683800117855562000167565b8280016001018555821562000167579182015b82811115620001675782518255916020019190600101906200014a565b506200017592915062000179565b5090565b5b808211156200017557600081556001016200017a565b600181811c90821680620001a557607f821691505b60208210811415620001c757634e487b7160e01b600052602260045260246000fd5b50919050565b611c2880620001dd6000396000f3fe60806040526004361061012a5760003560e01c806355f804b3116100ab57806395d89b411161006f57806395d89b411461031a578063a22cb4651461032f578063b88d4fde1461034f578063c87b56dd1461036f578063e985e9c51461038f578063f2fde38b146103d857600080fd5b806355f804b3146102875780636352211e146102a757806370a08231146102c7578063715018a6146102e75780638da5cb5b146102fc57600080fd5b806318160ddd116100f257806318160ddd146101e857806323b872dd146102075780632f745c591461022757806342842e0e146102475780634f6ccce71461026757600080fd5b806301ffc9a71461012f57806306fdde0314610164578063081812fc14610186578063095ea7b3146101be5780631249c58b146101e0575b600080fd5b34801561013b57600080fd5b5061014f61014a36600461168e565b6103f8565b60405190151581526020015b60405180910390f35b34801561017057600080fd5b50610179610423565b60405161015b9190611703565b34801561019257600080fd5b506101a66101a1366004611716565b6104b5565b6040516001600160a01b03909116815260200161015b565b3480156101ca57600080fd5b506101de6101d936600461174b565b61054f565b005b6101de610665565b3480156101f457600080fd5b506008545b60405190815260200161015b565b34801561021357600080fd5b506101de610222366004611775565b61067f565b34801561023357600080fd5b506101f961024236600461174b565b6106b0565b34801561025357600080fd5b506101de610262366004611775565b610746565b34801561027357600080fd5b506101f9610282366004611716565b610761565b34801561029357600080fd5b506101de6102a236600461183d565b6107f4565b3480156102b357600080fd5b506101a66102c2366004611716565b610835565b3480156102d357600080fd5b506101f96102e2366004611886565b6108ac565b3480156102f357600080fd5b506101de610933565b34801561030857600080fd5b50600a546001600160a01b03166101a6565b34801561032657600080fd5b50610179610969565b34801561033b57600080fd5b506101de61034a3660046118a1565b610978565b34801561035b57600080fd5b506101de61036a3660046118dd565b610983565b34801561037b57600080fd5b5061017961038a366004611716565b6109bb565b34801561039b57600080fd5b5061014f6103aa366004611959565b6001600160a01b03918216600090815260056020908152604080832093909416825291909152205460ff1690565b3480156103e457600080fd5b506101de6103f3366004611886565b610a96565b60006001600160e01b0319821663780e9d6360e01b148061041d575061041d82610b2e565b92915050565b6060600080546104329061198c565b80601f016020809104026020016040519081016040528092919081815260200182805461045e9061198c565b80156104ab5780601f10610480576101008083540402835291602001916104ab565b820191906000526020600020905b81548152906001019060200180831161048e57829003601f168201915b5050505050905090565b6000818152600260205260408120546001600160a01b03166105335760405162461bcd60e51b815260206004820152602c60248201527f4552433732313a20617070726f76656420717565727920666f72206e6f6e657860448201526b34b9ba32b73a103a37b5b2b760a11b60648201526084015b60405180910390fd5b506000908152600460205260409020546001600160a01b031690565b600061055a82610835565b9050806001600160a01b0316836001600160a01b031614156105c85760405162461bcd60e51b815260206004820152602160248201527f4552433732313a20617070726f76616c20746f2063757272656e74206f776e656044820152603960f91b606482015260840161052a565b336001600160a01b03821614806105e457506105e481336103aa565b6106565760405162461bcd60e51b815260206004820152603860248201527f4552433732313a20617070726f76652063616c6c6572206973206e6f74206f7760448201527f6e6572206e6f7220617070726f76656420666f7220616c6c0000000000000000606482015260840161052a565b6106608383610b7e565b505050565b600061067060085490565b905061067c3382610bec565b50565b6106893382610c06565b6106a55760405162461bcd60e51b815260040161052a906119c7565b610660838383610cfd565b60006106bb836108ac565b821061071d5760405162461bcd60e51b815260206004820152602b60248201527f455243373231456e756d657261626c653a206f776e657220696e646578206f7560448201526a74206f6620626f756e647360a81b606482015260840161052a565b506001600160a01b03919091166000908152600660209081526040808320938352929052205490565b61066083838360405180602001604052806000815250610983565b600061076c60085490565b82106107cf5760405162461bcd60e51b815260206004820152602c60248201527f455243373231456e756d657261626c653a20676c6f62616c20696e646578206f60448201526b7574206f6620626f756e647360a01b606482015260840161052a565b600882815481106107e2576107e2611a18565b90600052602060002001549050919050565b600a546001600160a01b0316331461081e5760405162461bcd60e51b815260040161052a90611a2e565b805161083190600b9060208401906115df565b5050565b6000818152600260205260408120546001600160a01b03168061041d5760405162461bcd60e51b815260206004820152602960248201527f4552433732313a206f776e657220717565727920666f72206e6f6e657869737460448201526832b73a103a37b5b2b760b91b606482015260840161052a565b60006001600160a01b0382166109175760405162461bcd60e51b815260206004820152602a60248201527f4552433732313a2062616c616e636520717565727920666f7220746865207a65604482015269726f206164647265737360b01b606482015260840161052a565b506001600160a01b031660009081526003602052604090205490565b600a546001600160a01b0316331461095d5760405162461bcd60e51b815260040161052a90611a2e565b6109676000610ea8565b565b6060600180546104329061198c565b610831338383610efa565b61098d3383610c06565b6109a95760405162461bcd60e51b815260040161052a906119c7565b6109b584848484610fc9565b50505050565b6000818152600260205260409020546060906001600160a01b0316610a3a5760405162461bcd60e51b815260206004820152602f60248201527f4552433732314d657461646174613a2055524920717565727920666f72206e6f60448201526e3732bc34b9ba32b73a103a37b5b2b760891b606482015260840161052a565b6000610a44610ffc565b90506000815111610a645760405180602001604052806000815250610a8f565b80610a6e8461100b565b604051602001610a7f929190611a63565b6040516020818303038152906040525b9392505050565b600a546001600160a01b03163314610ac05760405162461bcd60e51b815260040161052a90611a2e565b6001600160a01b038116610b255760405162461bcd60e51b815260206004820152602660248201527f4f776e61626c653a206e6577206f776e657220697320746865207a65726f206160448201526564647265737360d01b606482015260840161052a565b61067c81610ea8565b60006001600160e01b031982166380ac58cd60e01b1480610b5f57506001600160e01b03198216635b5e139f60e01b145b8061041d57506301ffc9a760e01b6001600160e01b031983161461041d565b600081815260046020526040902080546001600160a01b0319166001600160a01b0384169081179091558190610bb382610835565b6001600160a01b03167f8c5be1e5ebec7d5bd14f71427d1e84f3dd0314c0f7b2291e5b200ac8c7c3b92560405160405180910390a45050565b610831828260405180602001604052806000815250611109565b6000818152600260205260408120546001600160a01b0316610c7f5760405162461bcd60e51b815260206004820152602c60248201527f4552433732313a206f70657261746f7220717565727920666f72206e6f6e657860448201526b34b9ba32b73a103a37b5b2b760a11b606482015260840161052a565b6000610c8a83610835565b9050806001600160a01b0316846001600160a01b03161480610cc55750836001600160a01b0316610cba846104b5565b6001600160a01b0316145b80610cf557506001600160a01b0380821660009081526005602090815260408083209388168352929052205460ff165b949350505050565b826001600160a01b0316610d1082610835565b6001600160a01b031614610d785760405162461bcd60e51b815260206004820152602960248201527f4552433732313a207472616e73666572206f6620746f6b656e2074686174206960448201526839903737ba1037bbb760b91b606482015260840161052a565b6001600160a01b038216610dda5760405162461bcd60e51b8152602060048201526024808201527f4552433732313a207472616e7366657220746f20746865207a65726f206164646044820152637265737360e01b606482015260840161052a565b610de583838361113c565b610df0600082610b7e565b6001600160a01b0383166000908152600360205260408120805460019290610e19908490611aa8565b90915550506001600160a01b0382166000908152600360205260408120805460019290610e47908490611abf565b909155505060008181526002602052604080822080546001600160a01b0319166001600160a01b0386811691821790925591518493918716917fddf252ad1be2c89b69c2b068fc378daa952ba7f163c4a11628f55a4df523b3ef91a4505050565b600a80546001600160a01b038381166001600160a01b0319831681179093556040519116919082907f8be0079c531659141344cd1fd0a4f28419497f9722a3daafe3b4186f6b6457e090600090a35050565b816001600160a01b0316836001600160a01b03161415610f5c5760405162461bcd60e51b815260206004820152601960248201527f4552433732313a20617070726f766520746f2063616c6c657200000000000000604482015260640161052a565b6001600160a01b03838116600081815260056020908152604080832094871680845294825291829020805460ff191686151590811790915591519182527f17307eab39ab6107e8899845ad3d59bd9653f200f220920489ca2b5937696c31910160405180910390a3505050565b610fd4848484610cfd565b610fe0848484846111f4565b6109b55760405162461bcd60e51b815260040161052a90611ad7565b6060600b80546104329061198c565b60608161102f5750506040805180820190915260018152600360fc1b602082015290565b8160005b8115611059578061104381611b29565b91506110529050600a83611b5a565b9150611033565b60008167ffffffffffffffff811115611074576110746117b1565b6040519080825280601f01601f19166020018201604052801561109e576020820181803683370190505b5090505b8415610cf5576110b3600183611aa8565b91506110c0600a86611b6e565b6110cb906030611abf565b60f81b8183815181106110e0576110e0611a18565b60200101906001600160f81b031916908160001a905350611102600a86611b5a565b94506110a2565b6111138383611301565b61112060008484846111f4565b6106605760405162461bcd60e51b815260040161052a90611ad7565b6001600160a01b0383166111975761119281600880546000838152600960205260408120829055600182018355919091527ff3f7a9fe364faab93b216da50a3214154f22a0a2b415b23a84c8169e8b636ee30155565b6111ba565b816001600160a01b0316836001600160a01b0316146111ba576111ba838261144f565b6001600160a01b0382166111d157610660816114ec565b826001600160a01b0316826001600160a01b03161461066057610660828261159b565b60006001600160a01b0384163b156112f657604051630a85bd0160e11b81526001600160a01b0385169063150b7a0290611238903390899088908890600401611b82565b602060405180830381600087803b15801561125257600080fd5b505af1925050508015611282575060408051601f3d908101601f1916820190925261127f91810190611bbf565b60015b6112dc573d8080156112b0576040519150601f19603f3d011682016040523d82523d6000602084013e6112b5565b606091505b5080516112d45760405162461bcd60e51b815260040161052a90611ad7565b805181602001fd5b6001600160e01b031916630a85bd0160e11b149050610cf5565b506001949350505050565b6001600160a01b0382166113575760405162461bcd60e51b815260206004820181905260248201527f4552433732313a206d696e7420746f20746865207a65726f2061646472657373604482015260640161052a565b6000818152600260205260409020546001600160a01b0316156113bc5760405162461bcd60e51b815260206004820152601c60248201527f4552433732313a20746f6b656e20616c7265616479206d696e74656400000000604482015260640161052a565b6113c86000838361113c565b6001600160a01b03821660009081526003602052604081208054600192906113f1908490611abf565b909155505060008181526002602052604080822080546001600160a01b0319166001600160a01b03861690811790915590518392907fddf252ad1be2c89b69c2b068fc378daa952ba7f163c4a11628f55a4df523b3ef908290a45050565b6000600161145c846108ac565b6114669190611aa8565b6000838152600760205260409020549091508082146114b9576001600160a01b03841660009081526006602090815260408083208584528252808320548484528184208190558352600790915290208190555b5060009182526007602090815260408084208490556001600160a01b039094168352600681528383209183525290812055565b6008546000906114fe90600190611aa8565b6000838152600960205260408120546008805493945090928490811061152657611526611a18565b90600052602060002001549050806008838154811061154757611547611a18565b600091825260208083209091019290925582815260099091526040808220849055858252812055600880548061157f5761157f611bdc565b6001900381819060005260206000200160009055905550505050565b60006115a6836108ac565b6001600160a01b039093166000908152600660209081526040808320868452825280832085905593825260079052919091209190915550565b8280546115eb9061198c565b90600052602060002090601f01602090048101928261160d5760008555611653565b82601f1061162657805160ff1916838001178555611653565b82800160010185558215611653579182015b82811115611653578251825591602001919060010190611638565b5061165f929150611663565b5090565b5b8082111561165f5760008155600101611664565b6001600160e01b03198116811461067c57600080fd5b6000602082840312156116a057600080fd5b8135610a8f81611678565b60005b838110156116c65781810151838201526020016116ae565b838111156109b55750506000910152565b600081518084526116ef8160208601602086016116ab565b601f01601f19169290920160200192915050565b602081526000610a8f60208301846116d7565b60006020828403121561172857600080fd5b5035919050565b80356001600160a01b038116811461174657600080fd5b919050565b6000806040838503121561175e57600080fd5b6117678361172f565b946020939093013593505050565b60008060006060848603121561178a57600080fd5b6117938461172f565b92506117a16020850161172f565b9150604084013590509250925092565b634e487b7160e01b600052604160045260246000fd5b600067ffffffffffffffff808411156117e2576117e26117b1565b604051601f8501601f19908116603f0116810190828211818310171561180a5761180a6117b1565b8160405280935085815286868601111561182357600080fd5b858560208301376000602087830101525050509392505050565b60006020828403121561184f57600080fd5b813567ffffffffffffffff81111561186657600080fd5b8201601f8101841361187757600080fd5b610cf5848235602084016117c7565b60006020828403121561189857600080fd5b610a8f8261172f565b600080604083850312156118b457600080fd5b6118bd8361172f565b9150602083013580151581146118d257600080fd5b809150509250929050565b600080600080608085870312156118f357600080fd5b6118fc8561172f565b935061190a6020860161172f565b925060408501359150606085013567ffffffffffffffff81111561192d57600080fd5b8501601f8101871361193e57600080fd5b61194d878235602084016117c7565b91505092959194509250565b6000806040838503121561196c57600080fd5b6119758361172f565b91506119836020840161172f565b90509250929050565b600181811c908216806119a057607f821691505b602082108114156119c157634e487b7160e01b600052602260045260246000fd5b50919050565b60208082526031908201527f4552433732313a207472616e736665722063616c6c6572206973206e6f74206f6040820152701ddb995c881b9bdc88185c1c1c9bdd9959607a1b606082015260800190565b634e487b7160e01b600052603260045260246000fd5b6020808252818101527f4f776e61626c653a2063616c6c6572206973206e6f7420746865206f776e6572604082015260600190565b60008351611a758184602088016116ab565b835190830190611a898183602088016116ab565b01949350505050565b634e487b7160e01b600052601160045260246000fd5b600082821015611aba57611aba611a92565b500390565b60008219821115611ad257611ad2611a92565b500190565b60208082526032908201527f4552433732313a207472616e7366657220746f206e6f6e20455243373231526560408201527131b2b4bb32b91034b6b83632b6b2b73a32b960711b606082015260800190565b6000600019821415611b3d57611b3d611a92565b5060010190565b634e487b7160e01b600052601260045260246000fd5b600082611b6957611b69611b44565b500490565b600082611b7d57611b7d611b44565b500690565b6001600160a01b0385811682528416602082015260408101839052608060608201819052600090611bb5908301846116d7565b9695505050505050565b600060208284031215611bd157600080fd5b8151610a8f81611678565b634e487b7160e01b600052603160045260246000fdfea2646970667358221220d296283f4e7512a6ccd280f1a56b92f16c83ef975a292f7ee1b50863edf3e8f064736f6c63430008090033",
  "linkReferences": {},
  "deployedLinkReferences": {}
}